:020000040800F2
:10000000F03700209D010008B95500083D4F000859
:1000100019540008E14300083F6400080000000094
:100020000000000000000000000000004D5C00081F
:100030003F4C000800000000555600087D5D000898
:10004000B7010008B7010008B7010008B7010008B0
:10005000B7010008B7010008414C0008B7010008CB
:10006000B7010008B7010008B7010008B701000890
:10007000B7010008B7010008B7010008B701000880
:10008000B701000831490008B7010008B7010008AE
:10009000E5430008B7010008B7010008B7010008F0
:1000A000B7010008B7010008B7010008B701000850
:1000B000B7010008B7010008B7010008B701000840
:1000C000B7010008B7010008B7010008B701000830
:1000D000B7010008C7600008D1600008B701000838
:1000E000B7010008B7010008B7010008B701000810
:1000F000B7010008B7010008B7010008B701000800
:10010000B7010008B7010008B7010008B7010008EF
:10011000B7010008B7010008B7010008B7010008DF
:10012000B7010008B7010008B7010008B7010008CF
:10013000B7010008B7010008B7010008B7010008BF
:10014000B7010008B7010008B7010008B7010008AF
:10015000B7010008B7010008B7010008B70100089F
:10016000B7010008B7010008B7010008B70100088F
:10017000B7010008B7010008B7010008B70100087F
:10018000B7010008B7010008DFF80CD000F0C4FC8C
:10019000004800470D850008F037002006488047DA
:1001A00006480047FEE7FEE7FEE7FEE7FEE7FEE75C
:1001B000FEE7FEE7FEE7FEE7855D0008890100082F
:1001C00040EA01039B0703D009E008C9121F08C0D9
:1001D000042AFAD203E011F8013B00F8013B521E59
:1001E000F9D27047D2B201E000F8012B491EFBD2D0
:1001F00070470022F6E710B513460A460446194632
:10020000FFF7F0FF204610BD30B505462A460B46E5
:1002100012F8010B13F8014B08B1A042F8D01CB141
:10022000002802D06D1CF1E7284630BD10B5044609
:1002300004E00B7800F8013B03B1491C521EF8D2D0
:10024000204610BD10B5002200E0521C835C8C5C7F
:10025000A34201D1002BF8D1D8B2E1B2401A10BDAF
:1002600070B50F4D00B92868002412E00A4602E07C
:100270009E4203D0521C1378002BF9D1DAB22243EC
:1002800005D02BB124B1002100F8011B04E0044685
:10029000401C0678002EE9D12860204670BD000081
:1002A000FC0000200FB400B58DB010A909900B9090
:1002B00000914FF0FF300A9000200C900548069006
:1002C000054807906A4609A80F9900F04BFB0DB04E
:1002D0005DF814FB810900089F0900082DE9FF5F04
:1002E0001D464FF0FF3BD5E9014691465F464FF072
:1002F0000008A9697F1C01988847296A82468847B7
:100300000028F6D1BAF1FF3F0CD024F4C064002ECF
:1003100019DD600614D5BAF12B0F09D0BAF12D0FF3
:100320000ED103E0584604B0BDE8F09F44F4806469
:10033000A9697F1C01988847761E8246002E02DD3F
:10034000BAF1300F03D0B9F1000F26D032E0A9691D
:10035000761E44F400747F1C019888478246002E64
:1003600005DDBAF1780F06D0BAF1580F03D0B9F114
:10037000000F10D01EE0B9F1000F02D0B9F1100F3C
:1003800018D1A969761E24F400747F1C019888474F
:100390008246102002E0082000E00A20814609E0A1
:1003A00008FB0908A969761E44F400747F1C0198B3
:1003B00088478246002E05DD4946504600F0BEFAC9
:1003C0000028EDDAE96901988847A00502D46FF0AA
:1003D0000100A8E7E00725D1600613D5600502D526
:1003E000C8F1000000E0404629680A1D2A6009683B
:1003F000220501D5087015E0220701D5088011E01B
:1004000008600FE02868011D29600068210502D5F9
:1004100080F8008006E0210702D5A0F8008001E006
:10042000C0F8008038467EE72DE9FF5FD2E901A7DA
:100430004FF00008916999461446DDF838B04646F9
:1004400001988847054659EA0B0005D009E0A169E3
:10045000761C019888470546216A28468847002867
:10046000F5D1681C03D05FEACA7005D015E04FF0E3
:10047000FF3004B0BDE8F09F2068011D2160D0F876
:1004800000800AE05FEACA7001D108F8015BA16947
:10049000761C7F1E019888470546002F1ADD681CD0
:1004A00018D0B9F1000F0DD0E81705EBD06042115C
:1004B00020F01F0059F822102A1A01209040014212
:1004C000E0D107E0BBF1000FDCD1216A2846884764
:1004D0000028D7D0E16901988847BBF1000F07D108
:1004E000002E05DD5FEACA7002D1002188F80010F5
:1004F000A068B84203DDBBF1000F03D017B16FF065
:100500000100B6E73046B4E72DE9FE4F804681EAA8
:100510000300C00F0C46009021F0004123F000457D
:10052000B8EB0200A94105D24046214690461C4640
:100530000B46024623F00040104347D0270DC7F377
:100540000A00C3F30A510290401A019040286BDA66
:10055000C3F3130040F4801B0098924620B100239F
:10056000D2EB030A63EB0B0B01985946C0F1400232
:10057000504600F0B2F906460D4650465946019ADB
:1005800000F0CAF910EB08006141002487EA11521B
:1005900084EAE7731A4340D0009A62B3019A012AB1
:1005A0004FEA075215DC001B61EB02014FF00042DD
:1005B00002EA0752CDE90042001C41F580113246A3
:1005C0002B4600F05AFA03B0BDE8F08F40462146B2
:1005D000F9E7001B61EB0201001C41F580130018D4
:1005E0005B412018A2F5001747EB030140EAD570E4
:1005F000B6196D4111E06D084FEA360645EAC0753F
:100600004FEA0752001B61EB0201001C41F580110B
:1006100049084FEA30000019514132462B4603B0D9
:10062000BDE8F04F00F01ABA009801224000002304
:10063000D0EB020263EBE073009821464FEAE074CE
:10064000B8EB000061EB0401E9E783F000435BE7EE
:1006500081F0004158E72DE9FE4F81EA030404F0E0
:10066000004421F0004100944FF0000B23F00043C0
:1006700050EA01045ED052EA03045BD0C3F30A548B
:10068000C1F30A552C44A4F2F3340194A0FB0254A4
:10069000C1F3130141F48011C3F3130343F4801336
:1006A00001FB024400FB034E840A970A44EA81548A
:1006B00047EA8357A4FB076802958D0A05FB078567
:1006C0004FEA932C04FB0C542705029D4FEA065871
:1006D00047EA1637B5EB08056EEB070C870E920E4E
:1006E00047EA811742EA8312A7FB0201B6EB0B012E
:1006F00064EB00042B0D43EA0C335E1844EB1C50F2
:10070000DA465146E7FB0201C5F313044FEA0B3307
:1007100043EA14534FEA0432019C43EA0603A4F16E
:100720000C040294009CCDE900B400F0A6F903B0DB
:10073000BDE8F08F00200146F9E72DE9F04D81EA90
:10074000030404F0004B21F0004514464FF0000A6A
:1007500023F0004150EA050220D054EA01021DD0E6
:10076000C5F30A570246C5F31303C1F31300C1F3DF
:100770000A5640F4801543F48013A7EB0608101BBB
:10078000D64608F2FD3873EB050002D308F10108E4
:1007900001E092185B41B8F1000F03DA0020014636
:1007A000BDE8F08D00204FF48011064684460EE02F
:1007B000171B73EB050705D3121B63EB05030643F9
:1007C0004CEA010C49084FEA300092185B4150EAAC
:1007D0000107EDD152EA030012D082EA040083EA55
:1007E0000501084305D0101BAB4106D201220023AE
:1007F00006E000224FF0004302E06FF001025310C8
:100800001AEB06004CEB085110EB0A0041EB0B0110
:10081000BDE8F04D00F022B90EB5C10F80EAE070DE
:100820000844CA07002140F233438DE80E000A460F
:100830000B4600F022F903B000BD70B5C1F30A52B7
:1008400001F000450024C1F3130140F2FF3341F4ED
:1008500080119A4201DA002070BD40F233439A427F
:10086000A2F2334203DC524200F046F800E090402E
:100870002C43F1D0404270BD2DE9F05F05460020C9
:1008800092469B4688460646814640241BE0284601
:1008900041464746224600F02FF853465A46C01AB2
:1008A000914110D311461846224600F016F82D1A31
:1008B00067EB01084F4622460120002100F00DF8A9
:1008C00017EB00094E41201EA4F10104DFDC48466D
:1008D00031462A464346BDE8F09F202A04DB203AF1
:1008E00000FA02F1002070479140C2F1200320FA83
:1008F00003F3194390407047202A04DB203A21FA81
:1009000002F00021704721FA02F3D040C2F1200228
:100910009140084319467047202A06DBCB17203A3E
:1009200041FA02F043EAE07306E041FA02F3D040F4
:10093000C2F1200291400843194670473A2800D27C
:10094000303820F02002412A01D3A2F1370088423A
:1009500001D34FF0FF3070470268114413780160F3
:1009600018467047D1600449516104491162002161
:100970001161114600F0E8B8590900083D0B000864
:10098000426842B1016811F8013B23B1521EC0E92F
:100990000012184670470121C160881E70474268E6
:1009A0005AB1C368016843B983688B4205D0491EB8
:1009B000521CC0E90012002070474FF0FF30704712
:1009C0000FB4002300B589B00CA900910B996FF00A
:1009D0000042CB601E4B06931E4B07930423CDE9C8
:1009E00001321D4A089202466B46002000F0D6FAFA
:1009F00009B05DF814FB70B586B006464FF0FF30C5
:100A00000091CDE90101002015460C4604903246C4
:100A1000694604A8FFF7D4FF02460498211825B1BF
:100A200008B1084600E020462860049800280DD050
:100A3000002A02DD0098884208D0081B0094CDE906
:100A400001043246694604A8FFF7BAFF06B070BD3C
:100A5000810900089F0900083D0B000810B5141E0D
:100A600073F1000408DA401C41F1000192185B4167
:100A70001A4301D120F0010010BD2DE9F04D92463E
:100A80009B4611B1B1FA81F202E0B0FA80F2203255
:100A90009046FFF722FF04460F4640EA0A0041EA6B
:100AA0000B0153465A46084313D0114653EA01003E
:100AB00019D0C8F140025046FFF71EFF05460E460A
:100AC000504659464246FFF708FF084305D001202B
:100AD00004E020463946BDE8F08D0020054346EA93
:100AE000E0762C4337430A986305E40AA0EB08003C
:100AF0000022FD0A44EA47540A3002D5002001468C
:100B0000E9E7010510196941DDE908450019694166
:100B1000BDE8F04DA2E70000064C074D06E0E06896
:100B200040F0010394E8070098471034AC42F6D334
:100B3000FFF72EFBE0A7000800A80008C0B24FF4A2
:100B4000F05100F047BB00002DE9F34F8BB04FF0A0
:100B5000000801F10C000C464FF0010B46460DF168
:100B6000080A01906269012101989047051E2DD065
:100B7000252D2CD0216A8847C0B1626901210198D6
:100B80009047216A88470028F7D1411E6269019881
:100B9000904700E0761CA1690B988847216A884736
:100BA0000028F7D1E1690B988847DBE7A1690B982A
:100BB00088470746A84201D1761CD3E7E1690B9824
:100BC00088477F1C02D1B8F1000F6FD046E10027A3
:100BD00062693D463946019890472A2804D16269E6
:100BE0000121019890470125DFF884926269012173
:100BF00001989047A0F130010A290AD24F45E5DC5F
:100C000007EB870100EB4107303FDFD445F01005CB
:100C1000ECE7E90601D46FF000476C280AD04C28B5
:100C200014D0682815D06A280DD074281CD07A28D2
:100C30001AD01DE062690121019890476C2802D00A
:100C400045F0040514E045F002050DE045F02005EF
:100C50000AE06269012101989047682802D045F0B6
:100C6000080505E045F40065626901210198904797
:100C7000C4E9015765283DD019DC58287AD00CDC2E
:100C8000452837D004DC252826D0412831D131E051
:100C900046282FD047282CD12CE05B2877D061281C
:100CA00028D063287CD0642823D15AE0D0E06F2874
:100CB00048D008DC66281DD067281BD0692821D0C1
:100CC0006E2816D127E0702845D0732868D0752883
:100CD00047D078280DD14DE0A1690B98884705468B
:100CE00025283FF469AFE1690B9888476D1C3FF4F4
:100CF0006AAFB3E023466A466FF001000B9900F03B
:100D00004DF99EE045F040006060A80723464FF093
:100D1000000236D43EE0E8077FF447AF2068011DAB
:100D200021600068290501D506701BE7290701D558
:100D3000068017E7A90703D5F117C0E9006111E79D
:100D400006600FE745F040006060A80723464FF0BB
:100D5000080216D41EE040F60E0125EA010060608C
:100D600016E045F040006060A80723464FF00A02F5
:100D700007D40FE045F040006060A80708D523467F
:100D800010226FF001000B99AFF3008059E007E0EB
:100D9000234610226FF001000B99FFF79FFA50E0F5
:100DA0004FF000094F464B46632802D05B2806D01F
:100DB00040E0E80601D40120A06001273AE0626922
:100DC0000121019890475E2805D14FF00109626921
:100DD000494601989047216939B900210A4653468E
:100DE00043F82120491C0829FADBB0B3216969B90D
:100DF000C11700EBD16253110AEB830122F01F02ED
:100E0000821A01200B68904003430B606269012144
:100E1000019890475D28E8D1B9F1000F09D0002072
:100E2000514651F82020D24341F82020401C082888
:100E3000F7DB02AB224600976FF001000B99FFF73A
:100E4000F3FA00280CDA401C08D1BBF1000F05D0E2
:100E50004FF0FF300DB0BDE8F08FFFE74046F9E7F7
:100E6000E90701D108F1010806444FF0000B79E6CB
:100E7000CCCCCC0C2DE9FF4F087883B09946FF28E5
:100E800005D0491C2D2804D00024002008E00020B3
:100E90000BE00124F9E700EB800003EB4000491C64
:100EA0000B78FF2BF7D104B1404200230293147852
:100EB00019461D462D2C01D02B2C04D1521C2D2C53
:100EC00013D000240294AA461478FF2C0FD00A25D0
:100ED000A3FB057801FB05814FF0000C03FB0C110F
:100EE000521CE3194AEB0101EEE70124EAE78144D1
:100EF00053EA010002D019F5C87F06DA03980021F1
:100F0000C0E9001107B0BDE8F08F0025AE4E2F46B6
:100F1000DFF8B882184600F071F9CDE90001B9F1A7
:100F2000000002DAC9F1000400E004460023A74AE9
:100F30001AEB030B42EB045A12E0E00707D02A46F3
:100F4000334638464146FFF786FB074688462A4621
:100F5000334610461946FFF77EFB05460E466410E1
:100F6000002CEAD1DDE90001B9F1000F5A465346E1
:100F700006DAFFF7E2FB3A464346FFF7DEFB05E001
:100F8000FFF769FB3A464346FFF765FB029A0AB151
:100F900081F00041039AC2E90001B3E72DE9FF4F58
:100FA0001F468DB0D7E901464FF0FF382E20454649
:100FB0004FF000090B90B9696D1C0E988847396A8B
:100FC000824688470028F6D1BAF1FF3F0AD024F4C0
:100FD000D064002E11DDBAF12B0F08D0BAF12D0F1D
:100FE0000BD102E0404611B08DE744F48064B9694A
:100FF0006D1C0E9888478246761E6946600501D5AD
:101000002D2000E02B208DF8000001F1010B0DF1E7
:10101000200809E0B9696D1C0E98884782460F9830
:1010200044F40074761E0560002E02DDBAF1300F24
:10103000F0D00B998A453ED144F0800406E00F9928
:10104000681CA9F1010944F400740860B9696D1CB9
:10105000761E0E98884782463028F0D02BE00B99F8
:101060008A4505D1200603D444F08004761E18E09A
:10107000504605F039FA08B30DF11301761E44F419
:1010800000748B4508D2AAF130000BF8010B200642
:1010900007D5A9F1010003E0200602D409F10100FF
:1010A0008146A00502D50F99681C0860B9696D1CBE
:1010B0000E9888478246002ED1DC53E0002E51DD89
:1010C000BAF1650F02D0BAF1450F4BD1A00549D551
:1010D000B9696D1C24F44074761E0E9888478246C8
:1010E000002E0CDD2B2804D0BAF12D0F07D144F4CB
:1010F0008074B9696D1C0E9888478246761EE0059B
:1011000001D52D2100E02B2108F8011BCDF82C8002
:1011100021E00DF12901761E44F4007488450CD2BB
:10112000AAF1300010F0FF0088F8000002D10B99FE
:10113000884509D908F1010806E0E00501D52448F1
:1011400001E042F20F708146B9696D1C0E98884724
:1011500082460F980560002E04DD504605F0C4F964
:101160000028D6D1F9690E988847FF208BF8000037
:1011700088F800000020069007904B466A4608A9B0
:1011800006A8FFF777FEA00502D46FF001002AE75A
:1011900014F0240F0AD0E00714D1DDE906123868F4
:1011A000031D3B600068C0E900120BE0DDE90601A9
:1011B00000F030F80146E00704D13868021D3A60BB
:1011C0000068016028460EE7000014400000F03F70
:1011D000F1D8FFFF7F2801D9002208E0064A02EB80
:1011E0005002C007127800D1120902F00F0201204C
:1011F000904008407047000058A400080EB540F227
:10120000334202920022CDE900221346FFF735FC5B
:1012100003B000BD01F0004330B421F0004150EABA
:10122000010206D00A0DA2F56072C1F31301002A73
:1012300002DC30BC00207047440F44EAC104C10006
:10124000E01830BC00EBC250AFF300800029A8BF0B
:101250007047401C490008BF20F00100704710B4DF
:10126000B0FA80FC00FA0CF050EA010404BF10BC94
:10127000704749B1CCF1200421FA04F411FA0CF1C1
:1012800018BF012121430843A3EB0C01CB1D4FEAFA
:1012900000614FEA102042BF002010BC704700EBF5
:1012A000C35010440029A4BF10BC7047401C490023
:1012B00008BF20F0010010BC704721B1826842F0E5
:1012C0000102826003E0826822F0010282607047BE
:1012D0000021084A1168084A1140D0E900231A4346
:1012E00083681A43C3681A431143044AC2F80413BB
:1012F0007047000004230140E030FCFF0020014063
:101300000021016041608160C16070470146C86C86
:1013100080B270470246002013680B400BB10120D9
:1013200000E000207047000030B502460020002396
:101330005068104C20400D790C6844EA0524204385
:10134000506090680C4C2040D1E903542C438D68C8
:101350002C434D7944EA450420439060D06A20F440
:1013600070000C7D641EE4B2234340EA0350D06257
:1013700030BD0000FFFEFFFCFDF7FFC0F0B50446E6
:101380000D4600200021092D11DDE068A5F10A06B7
:1013900006EB4607072606FA07F18843A5F10A0679
:1013A00006EB460603FA06F10843E0600CE020690C
:1013B00005EB4507072606FA07F1884305EB4506C6
:1013C00003FA06F108432061072A0FDA606B561E04
:1013D00006EB86071F2606FA07F18843561E06EB22
:1013E000860605FA06F10843606322E00D2A0FDA4B
:1013F000206BD61F06EB86071F2606FA07F18843E7
:10140000D61F06EB860605FA06F10843206310E0B6
:10141000E06AA2F10D0606EB86071F2606FA07F121
:101420008843A2F10D0606EB860605FA06F108438D
:10143000E062F0BD816841F0804181607047002129
:101440000160017141718160C1600161012101751B
:10145000704770B505460C46284605F00BFD08B9E7
:10146000002070BD204607F09DFD05F0F8FC01202E
:10147000F7E70000004870471C31002010B500203D
:101480001649087016490870164908701649087000
:1014900016490870164908701649087016490870F0
:1014A0004FF6FF7015490880002015490870172273
:1014B00014A11648FEF7BAFE172212A11448FEF72F
:1014C000B5FE17220FA11348FEF7B0FE00200F490A
:1014D000C8750F49C8750F49C87510BDC8000020F0
:1014E000C9000020CA000020CB000020CC00002052
:1014F000CD000020CE000020CF000020D000002032
:10150000DC0000204E4F4E4500000000043100205A
:101510001C31002034310020004870473431002055
:1015200010B5FFF7ABFF03F079FF10BD014800785D
:1015300070470000CE00002001480078704700008E
:10154000CA0000200148007870470000CC0000204D
:101550000148007870470000CD0000200148007865
:1015600070470000C9000020014800787047000063
:10157000CB00002070B504460D462946204600F0F9
:101580000DF970BD10B500200849087008490870B1
:101590000849087008490870172208A10948FEF791
:1015A00045FE00200749C87510BD0000CD00002091
:1015B000CE000020CB000020CC0000204E4F4E4536
:1015C000000000000431002070B504460D460026DE
:1015D000012C03D107F0C8FB064613E0022C03D10F
:1015E00007F092FB06460DE0032C0AD107F0BCFB86
:1015F00020B107F089FB08B1012000E00020064679
:1016000000E00026A6B10DB1012000E000200A494B
:1016100008700020094908700949087009490870D4
:10162000094908700448007807F03EFD05F017FCF2
:1016300007F058FB304670BDCF000020CB000020E3
:10164000CC000020CD000020CE0000200149087011
:1016500070470000D20000201748007830B11748CA
:10166000007808B116A0704718A0FCE71A48007867
:1016700070B91A48007820B91948007808B919A03B
:10168000F1E71648007808B91BA0ECE71EA0EAE7CE
:101690002148007820B92148007808B920A0E2E765
:1016A0001D48007808B922A0DDE71C48007808B979
:1016B00022A0D8E724A0D6E7CD000020CE0000204D
:1016C0004C4F47494E2041444D494E004C4F4749ED
:1016D0004E20555345520000C8000020C90000208C
:1016E000CA0000205245474953544552204E4643B4
:1016F0002B46505200000000524547495354455272
:10170000204E46430000000052454749535445527D
:101710002046505200000000CB000020CC000020EA
:10172000564552494659204E46432B4650520000DA
:10173000564552494659204E4643000056455249A7
:10174000465920465052000052454144590000007D
:1017500010B540F225510F4804F0AFFD00B910BD9F
:101760000C4804F063FEC4B20B480078012803D192
:10177000204603F00FFF06E007480078022802D158
:10178000204606F07FFA40F22551024804F0ECFCB6
:1017900000BFE4E700100140D200002070B504460D
:1017A0000D4600261648007808B9002070BD25B106
:1017B0001448007808B90020F8E7012C03D107F09D
:1017C00027FE064613E0022C03D107F0E1FD064692
:1017D0000DE0032C0AD107F01BFE20B107F0D8FD65
:1017E00008B1012000E00020064600E0002626B1F6
:1017F000284607F061FD05F032FB3046D6E70000D1
:10180000C8000020CF0000200020024908800249C3
:1018100008707047720000207400002002460B46DA
:101820000948008800F5847000B21080074890F9DC
:10183000000000F13A01002900DA0021642900DDEE
:10184000642119700120704772000020740000208C
:10185000024A1080024A1170704700007200002096
:101860007400002010B5024613464AF25A50002177
:1018700007E05C5C84EA400484EAE034A0B24C1CDB
:10188000A1B20829F5DB10BD00B50D4800210160AB
:101890004160018140F22620094908804FF42A70F6
:1018A00048804FF443708880012088710846FFF714
:1018B000D9FF0349088101200249087000BD0000DA
:1018C0006E0E00207C00002010B504460A48007807
:1018D00008B9002010BD09480168216041686160B5
:1018E000008920812046FFF7BDFF2189884201D170
:1018F0000120EFE70020EDE77C0000206E0E0020C5
:1019000010B504460748216801606168416021897B
:101910000181FFF7A7FF03490881012002490870F0
:1019200010BD00006E0E00207C0000202DE9F0416B
:1019300005460E4617461248008800EB400101EBB1
:10194000C000104901EBC004266025714F223946C2
:10195000601DFEF76BFC002184F8541008480078E5
:10196000401C00F03F0006490880074800884028D6
:1019700004D205480088401C03490880BDE8F08176
:10198000C2000020041B0020C400002010B54FF44A
:10199000B0510448FEF72DFC00200349088003499C
:1019A000088010BD041B0020C2000020C4000020DD
:1019B0000148008870470000C400002010B54FF4B3
:1019C000B0510448FEF715FC002003490880034984
:1019D000088010BD041B0020C2000020C4000020AD
:1019E00070B504460D460D480088844201DB002096
:1019F00070BD0B48007809490978401A204400F06E
:101A00003F0606EB460000EBC600064A02EBC001AB
:101A100058222846FEF7D4FB0120E9E7C400002045
:101A2000C2000020041B00202DE9FC5F0746884609
:101A300015461E464FF6FF7931A13846FEF7E4FB06
:101A400020B931A14046FEF7DFFB08B14FF47849D9
:101A50000021484603F0D0FC03F09CFC824603F0D2
:101A600093FC834653465A460021084603F0F4FB94
:101A700003F084FC4FF0000A3B4652465146504664
:101A800003F03EFC00214FF6FF7003F0B5FC55B3A8
:101A90004EB303F073FCB0F806A002225146404654
:101AA00005F0A3FC00241BE005EB0410808905EB86
:101AB0000411896805EB041CCDE90010BCF8063060
:101AC00005EB041CBCF8042005EB041CBCF8021058
:101AD00005EB041CBCF8000005F0DBFC601CC4B284
:101AE000B442E1DB0AE003F049FCC08840044FEA5D
:101AF000104A00225146404605F077FCBDE8FC9FA5
:101B0000414C41524D000000414C41524D204C454A
:101B100056454C0070B503F05BFC114803F076FCB1
:101B200000214FF6FF7003F067FC03F033FC04461E
:101B300003F02AFC054623462A460021084603F006
:101B40008BFB03F01BFC002406A322462146204603
:101B500003F0D6FB08A1124804F0A1FA70BD000002
:101B60004800002048617A6D6174204D6F6E697481
:101B70006F7220426F6F74005B4C43445D20494C90
:101B800049393334312046534D43206472697665B8
:101B90007220656E61626C65642E0D0A00000000A3
:101BA0000044004010B504460CB9002010BD0A489E
:101BB000007968B108480088208007484088608024
:101BC0000548007920710020034908710120EDE7E4
:101BD000204607F0C9FDE9E75E00002010B50020AF
:101BE00004490871044908700449087007F046FC6C
:101BF00010BD00005E000020640000206500002091
:101C0000034A108051800122014B1A717047000075
:101C10005E0000202DE9F04705460E4690469946A5
:101C2000089F00243E48007808B104240DE047F2E4
:101C30003050874204D2002400203A49087004E062
:101C40003146284605F048FC04463748007884426F
:101C50001DD0042C03DB00203449087004E0042C60
:101C600002DA0020314908702F48047000780328F8
:101C70000DDB29462C48007802F07EF82A480078CF
:101C800000F0D8F882465146032001F08FFB264829
:101C9000007808B9012000E000200146002002F091
:101CA00069FA21480078032801DB012000E00020C8
:101CB0000146012002F05EFA1B490978042904DB81
:101CC0001A49097809B9012100E00021084601F00C
:101CD0008FFF1548007818B9142002F0D1FA1AE0E5
:101CE00011480078012803D1282002F0C9FA12E037
:101CF0000D480078022803D13C2002F0C1FA0AE026
:101D000009480078032803D1502002F0B9FA02E014
:101D1000642002F0B5FA04480078BDE8F0870000BE
:101D2000EC000020EB000020EA000020ED00002085
:101D300010B501200C49087000200C4908700420DF
:101D40000B490870012001F053FF0121084602F001
:101D500011FA40F2E7310648007802F00DF805A1CB
:101D6000032001F023FB10BDEC000020ED0000205B
:101D7000EA0000206D616E75616C20656D657267AB
:101D8000656E637920657874690000000148007809
:101D900070470000EA00002010B1064B1B8803804A
:101DA00011B1054B1B880B8012B1044B1B881380AB
:101DB00070470000EE000020F0000020F20000203C
:101DC00000B50020054908700549087005490870EC
:101DD0000549087000F082F800BD0000EA0000200C
:101DE000EB000020EC000020ED000020014800780E
:101DF00070470000ED00002010B507480078042867
:101E000009DB012005490870002001F0F1FE04A162
:101E1000032001F0CBFA10BDEA000020ED00002005
:101E2000616C61726D206D75746564206279206BE0
:101E3000657900000146012906D0022906D0032950
:101E400006D0042908D105E004A0704706A0FCE7ED
:101E500007A0FAE708A0F8E709A0F6E741545445BF
:101E60004E54494F4E0000004C4556454C31000041
:101E70004C4556454C3200004C4556454C3300000D
:101E80004E4F4E450000000010B500200949087073
:101E900009490870094908700949087001F0A8FE4D
:101EA0000021012002F066F906A1032001F07EFA6C
:101EB00010BD0000EC000020ED000020EA00002032
:101EC000EB000020616C61726D2072657365742097
:101ED00062792061646D696E0000000040F2262086
:101EE000054908804FF42A70044908804FF4437074
:101EF0000349088070470000EE000020F000002039
:101F0000F2000020642800D26420B0F5617F01D97E
:101F10004FF46170814201DC431C99B240F2B63348
:101F2000994200D919468A4201DC4B1C9AB2B2F59B
:101F30007A7F01D94FF47A72034B1880034B1980D2
:101F4000034B1A8070470000EE000020F0000020D4
:101F5000F200002030B597B005465748007828B108
:101F60005648007810B15648008878B93F2255A1EC
:101F70005948FEF75BF90020574981F83F0057A107
:101F8000042001F013FA002017B030BD4B4805F0D3
:101F90001BFB044648480078012842D1002C18DA7F
:101FA00005F000FB0446002C0EDA3F2253A14A48FC
:101FB000FEF73CF90020484981F83F0053A1042076
:101FC00001F0F4F90020DFE7E0B200223B4907F01E
:101FD0004BF8E0B2534901EB001080893849098879
:101FE0000844E1B24F4A02EB01118881344800886D
:101FF000324B4DA25021CDE9000503A804F022FA8E
:102000002F4800882D4B4EA240210090324804F00A
:1020100019FA03A9022001F0C9F905F089F9012094
:10202000B2E7002C08DBE0B23E4901EB00108089EA
:1020300023490988884217DA214800881F4B44A2A7
:102040005021009003A804F0FDF91D4800881B4BA7
:1020500045A240210090204804F0F4F903A904208F
:1020600001F0A4F900208FE7E0B22E4901EB001047
:10207000808913490988401AE1B22A4A02EB01110A
:1020800088810F4800880D4B3BA25021CDE9000507
:1020900003A804F0D7F90A480088084B3CA2402165
:1020A00000900D4804F0CEF903A9022001F07EF95A
:1020B00005F03EF9012067E77E000020F81A0020B5
:1020C000800000206E6F20636172676F2070656E04
:1020D00064696E670000000082000020636172671F
:1020E0006F20636F6E6669726D20776974686F75B3
:1020F000742070656E64696E6700000063617267CA
:102100006F206C6973742066756C6C006361726714
:102110006F20616464206661696C65642066756C1B
:102120006C000000781A0020636172676F206164A0
:10213000642025732078257520627920257300009E
:1021400061646465642025732078257500000000B3
:10215000636172676F206F7574206661696C656476
:1021600020257320782575006F7574206661696C71
:102170002025732078257500636172676F206F7565
:10218000742025732078257520627920257300003E
:102190006F7574202573207825750000F8B5054605
:1021A0000E46002705B106B9F8BD002028700024AE
:1021B00015E00E4800EB0410807B70B10B4800EB7B
:1021C00004108089094A02EB0413F11B0090E819FE
:1021D00007A204F037F9384487B2601CC4B2082C57
:1021E00001D2B742E5DB00BFDEE70000781A00202D
:1021F00025733A257520000010B500F025F810BDB4
:1022000001480078704700007E0000200146012947
:1022100002D0022904D101E002A0704702A0FCE72D
:1022200002A0FAE7414444004F5554004E4F4E453A
:102230000000000000487047F81A0020014800889C
:10224000704700008000002010B580211648FDF77F
:10225000D0FF0A2215A1002006F006FF082214A1D3
:10226000012006F001FF062212A1022006F0FCFE6A
:102270000C2211A1032006F0F7FE05220FA1042075
:1022800006F0F2FE03220EA1052006F0EDFE05F099
:102290004FF83F220BA10F48FDF7C8FF00200D4962
:1022A00081F83F0010BD0000781A002041000000B6
:1022B0004200000043000000440000004500000010
:1022C00046000000636172676F2072657365742059
:1022D000412D46008200002070B504460C48047071
:1022E00000200C4908700C4908802CB90BA2402131
:1022F000104804F0A7F809E02046FFF787FF0546DD
:102300002B460DA240210B4804F09CF870BD000044
:102310007E000020F81A00208000002063617267B0
:102320006F2070656E64696E672063616E63656CB3
:102330006C656400820000202573206D6F64652C3D
:102340002073656E6420434152474F20636D6400E3
:102350002DE9FC4104460D4616461DB1287808B10A
:1023600006B154B93F2213A11848FDF75FFF0020C2
:10237000164981F83F00BDE8FC81154804700B2226
:1023800029461448FDF752FF00201249C87212482E
:1023900006802046FFF73AFF07460F4800880D49A0
:1023A0003B460EA2CDE900104021084804F04AF84F
:1023B0000120E0E7636172676F2070656E64696E8B
:1023C0006720696E76616C696400000082000020FD
:1023D0007E000020F81A00208000002070656E64E6
:1023E000696E67202573202573207825750000000D
:1023F000004870478200002070B5BEB0044620211E
:1024000036A8FDF7F6FE20212EA8FDF7F2FE2021CA
:1024100026A8FDF7EEFE0CB1207808B93EB070BDDD
:10242000C9A12046FDF70EFF002818D1C84806F0C4
:10243000B9FCC8A006F0B6FCD6A006F0B3FCE5488F
:1024400006F0B0FCE4A006F0ADFCF04806F0AAFCF3
:10245000EF4806F0A7FCEFA006F0A4FCDEE720465C
:1024600006F098FB00B1D9E726A82EAB36AAF9A151
:1024700000902046FDF716FF012811DBF9A136A8D0
:10248000FDF7E0FE20B1F9A136A8FDF7DBFE40B96B
:102490002EA806F07FFB002802D1F7A006F082FCF0
:1024A000D7E3F8A136A8FDF7CDFE002849D10025D5
:1024B000F5A12EA8FDF7C6FE28B900210120FFF7DF
:1024C00083F805462DE0F1A12EA8FDF7BBFE20B153
:1024D000F0A12EA8FDF7B6FE28B900210220FFF7D3
:1024E00073F805461DE0ECA12EA8FDF7ABFE28B958
:1024F00001210320FFF768F8054612E0E8A12EA8A5
:10250000FDF7A0FE20B1E8A12EA8FDF79BFE18B9AB
:10251000FEF7B4FF012504E000210320FFF754F883
:10252000054655B1E2A1012000F040FF012001F075
:10253000ABFAE4A006F036FC02E0E4A006F032FCC0
:1025400087E3E6A136A8FDF77DFE002862D10025CD
:10255000CDA12EA8FDF776FE28B900210120FFF7B6
:102560001DF9054632E0C9A12EA8FDF76BFE20B18A
:10257000C8A12EA8FDF766FE28B900210220FFF7AA
:102580000DF9054622E0C4A12EA8FDF75BFE28B98F
:1025900001210320FEF7EEFF054617E0C0A12EA89B
:1025A000FDF750FE20B1CFA12EA8FDF74BFE40B99C
:1025B000FEF7E8FF012001F067FACCA006F0F2FB7D
:1025C0002CE700210320FEF7D5FF0546DDB1FEF71D
:1025D000BFFF08B1C9A000E0CEA0064631460120E9
:1025E00000F0E4FEFEF7B4FF30B1022001F04CFA37
:1025F000CFA006F0D7FB0CE0012001F045FAD0A0F7
:1026000006F0D0FB05E0012001F03EFAD0A006F074
:10261000C9FB1EE3D7A136A8FDF714FE002853D14D
:10262000D6A12EA8FDF70EFE18B9042001F02CFA51
:1026300046E0D4A12EA8FDF705FE18B9092001F047
:1026400023FA3DE0D1A12EA8FDF7FCFD18B90A2020
:1026500001F01AFA34E0CFA12EA8FDF7F3FD18B966
:10266000072001F011FA2BE0CBA12EA8FDF7EAFD1F
:1026700020B1CBA12EA8FDF7E5FD18B9082001F087
:1026800003FA1DE095A12EA8FDF7DCFD18B9012085
:1026900001F0FAF914E0C5A12EA8FDF7D3FD18B991
:1026A000032001F0F1F90BE0C2A12EA8FDF7CAFD4D
:1026B00018B9052001F0E8F902E0022001F0E4F980
:1026C000BEA006F06FFBC4E2BEA136A8FDF7BAFDBE
:1026D000E0B9ACA12EA8FDF7B5FDB8B926A82EAB80
:1026E00036AA5CA100902046FDF7DCFD03280DD141
:1026F00026A806F08DF8054600F0D4FCB2A105200E
:1027000000F054FEB5A006F04DFBA2E2ADA136A844
:10271000FDF798FDB0B9B5A12EA8FDF793FD88B9D6
:1027200025A82EAB36AAB2A100902046FDF7BAFD2F
:10273000032807D1BDF8940000F0BAFCB0A006F061
:1027400031FB86E262E1000048454C500000000089
:1027500074A5000850415353203235353331343697
:1027600030207C2050415353574F5244203235354E
:102770003331343630207C206469726563742062A2
:1027800061636B7570206175746820616E642048A8
:102790004F4D45005041474520484F4D457C4D4FDA
:1027A0004E49544F527C534F555243457C534345F9
:1027B0004E457C4C4F477C53455454494E477C41D1
:1027C0005554487C434152474F7C44455649434504
:1027D00000000000C8A5000847415320534554207D
:1027E0003C302D313030303E207C20474153205248
:1027F000414D50203C73746172743E203C656E64A0
:102800003E203C7365636F6E64733E002CA5000828
:10281000E0A40008475053205245504C41597C4C8D
:102820004F53547C5245434F564552207C204C4FC9
:1028300047204558504F5254207C20414C41524D26
:10284000205245534554207C20544F55434820780E
:10285000207900002533317320253331732025334F
:102860003173000050415353000000005041535356
:10287000574F5244000000004552522050415353DC
:1028800000000000524547004E46430046494E476F
:10289000455200004650520041444D494E00000050
:1028A0005245534554000000434C4541520000003E
:1028B0006964656E7469747920726567697374659B
:1028C000726564004F4B205245470000455252202C
:1028D000524547204641494C454400004155544823
:1028E000000000004C4F474F555400004F4B204113
:1028F0005554482052455345540000006964656EA4
:1029000074697479206C6F67696E20636F6D706C89
:10291000657465006964656E7469747920666163C5
:10292000746F7220766572696669656400000000E4
:102930004F4B2041555448204C4F47494E00000012
:102940004F4B204155544820464143544F520000BC
:102950004552522041555448204E45454420524549
:1029600047204F52204F5448455220464143544F30
:102970005200000050414745000000004D4F4E49B5
:10298000544F5200534F5552434500005343454E58
:10299000450000004C4F470053455454494E4700F2
:1029A00053455454494E4753000000004341524799
:1029B0004F00000044455649434500004F4B20500E
:1029C000414745004741530067617320736F75723B
:1029D0006365206368616E67656400004F4B204744
:1029E000415320534F555243450000005345540076
:1029F000253331732025333173202568750000009D
:102A00004F4B20474153205345540000AFF24C0137
:102A100036A8FDF717FCF0B98FA12EA8FDF712FC20
:102A2000C8B923A824A925AA2EABCDE9002102907C
:102A300036AA8BA12046FDF735FC05280BD1BDF841
:102A40008C20BDF89010BDF8940000F06BFB8AA0BC
:102A500006F0A8F9FDE0AFF2CC0136A8FDF7F2FBD5
:102A600090B9AFF2C4112EA8FDF7ECFB10B900F03D
:102A7000C7FE05E02EA805F069FE054600F078FEC9
:102A800080A006F08FF9E4E081A136A8FDF7DAFB1B
:102A9000E8B980A12EA8FDF7D5FB18B9012000F0F8
:102AA00019FA10E07DA12EA8FDF7CCFB18B9002083
:102AB00000F010FA07E07BA12EA8FDF7C3FB10B9C8
:102AC000012000F017FA79A006F06CF9C1E079A1B5
:102AD00036A8FDF7B7FB30B9601D00F089F977A083
:102AE00006F060F9B5E0AFF2541136A8FDF7AAFB85
:102AF00038B974A12EA8FDF7A5FB10B900F074FC3D
:102B0000A7E0AFF2581136A8FDF79CFB00286CD166
:102B10006EA12EA8FDF796FB20B16DA12EA8FDF7A2
:102B200091FB88BB25A826A92EAB36AACDE90010BB
:102B300068A12046FDF7B6FB042826D163A12EA884
:102B4000FDF780FB70B9BDF8942026A90120FFF79E
:102B5000FFFB18B164A006F025F911E068A006F0AB
:102B600021F90DE0BDF8942026A90220FFF7F0FB23
:102B700018B167A006F016F902E06BA006F012F992
:102B8000032000F081FF2FE0FFE76BA12EA8FDF7E7
:102B900059FB98B9802103A8FFF700FB68A16B4897
:102BA00003F07DFA03A9694803F079FA68A1674840
:102BB00003F075FA032000F067FF15E0AFF2203153
:102BC0002EA8FDF73FFB60B9FFF73EFB61A1052092
:102BD00000F0ECFB032000F057FF61A006F0E2F8E4
:102BE00002E063A006F0DEF833E065A136A8FDF749
:102BF00029FB90B9AFF258312EA8FDF723FB60B93D
:102C0000FEF794FC28B1FFF73FF95FA006F0CAF881
:102C10001FE061A006F0C6F81BE064A136A8FDF72E
:102C200011FB98B924A825AB36AA62A100902046D2
:102C3000FDF738FB032809D1BDF89010BDF89400CA
:102C4000FEF7DEFF5FA006F0ADF802E060A006F040
:102C5000A9F800BF07E4000052414D5000000000F9
:102C6000253331732025333173202568752025687D
:102C700075202568750000004F4B204741532052B6
:102C8000414D50004F4B205343454E45000000003E
:102C9000475053004C4F5354000000005245434FDF
:102CA000564552005245504C415900004F4B204769
:102CB000505300004E4D4541000000004F4B204E48
:102CC0004D4541004558504F525400004144440086
:102CD0004F5554002533317320253331732025336C
:102CE00031732025687500004F4B20434152474FF8
:102CF000204144442050454E44494E4700000000C6
:102D000045525220434152474F2041444400000065
:102D10004F4B20434152474F204F55542050454E72
:102D200044494E470000000045525220434152475B
:102D30004F204F55540000004C49535400000000F0
:102D4000434152474F204C49535420000044004017
:102D50000D0A0000636172676F207265736574000D
:102D60004F4B20434152474F20524553455400009A
:102D700045525220434152474F20434D44000000EA
:102D8000414C41524D0000004F4B20414C41524DAF
:102D900020524553455400004552522041444D496C
:102DA0004E2052455155495245440000544F554319
:102DB000480000002533317320256875202568758B
:102DC000000000004F4B20544F55434800000000C6
:102DD00045525220554E4B4E4F574E20434F4D4D6E
:102DE000414E442C20545950452048454C50000039
:102DF00070B5AEB0054600247F2229460EA8FDF727
:102E000015FA00208DF8B7001DA10EA8FDF728FACD
:102E1000064609E02046611CCCB24DF8206018A19E
:102E20000020FDF71DFA06460EB10E2CF2D3062C3B
:102E300023D914A10098FDF7E7F9F0B102980078C2
:102E4000412816D10120104988720020C87288815B
:102E5000049A1178039805F021FC0B490860069A42
:102E60001178059805F01AFC0749486001202EB03A
:102E700070BD002004498872F9E70020F7E70000E0
:102E80002C000000524D4300EC31002000487047F8
:102E9000EC3100200A480021016041608160C1607E
:102EA0000120084908700020074908700749087088
:102EB0000749087001200249C872002088727047D3
:102EC000EC310020DD000020DE000020DF000020CB
:102ED000E000002008B1012100E00021034A117048
:102EE00010B90021024A918170470000DE000020E5
:102EF000EC31002008B1012100E00021034A1170EB
:102F000011460978024AD17270470000DD000020A6
:102F1000EC31002008B1012100E00021014A1170CC
:102F200070470000DF0000200E48007810B90E48FE
:102F3000808930B10C48C07A08B10CA070470EA04F
:102F4000FCE70948C07A30B10748807A08B10CA084
:102F5000F4E70DA0F2E70448807A08B10DA0EDE790
:102F600005A0EBE7DE000020EC3100205245504C7C
:102F700041595F4C4F5354004E4F46495800000092
:102F80005245504C415900005245504C41595F57F1
:102F9000414954005245414C5F46495800000000E9
:102FA0002348007838B10020224988720846808979
:102FB000401C888170472048007870B301201D496B
:102FC000C8728872002088811C481D49097850F811
:102FD0002100184908601B481949097850F8210058
:102FE000144948601848007858B1084600681749E5
:102FF00008441049086008464068144908440D49CF
:10300000486040F245100B4908810D480078401C8B
:1030100000F003000A49087008E0FFE70548807ADD
:1030200020B904488089401C0249888100BFC1E75B
:10303000DE000020EC310020DD000020E89E0008CA
:10304000E0000020F89E0008DF000020905F0100F3
:1030500000487047600100200148007B7047000075
:103060006001002010B50446084804730020074999
:103070000880488088804FF4A0700881C88048810B
:10308000002000F0FBFE00F0AFF810BD6001002052
:1030900010B50446204604F02CF90149C88010BD43
:1030A00060010020014908737047000060010020A2
:1030B00010B50446204604F01CF90249088104209A
:1030C000087310BD60010020014605290ED2DFE81B
:1030D00001F0030507090B0005A0704707A0FCE7F6
:1030E00007A0FAE709A0F8E70AA0F6E70BA0F4E7C3
:1030F0005245414C5F4D513200000000504F54008A
:103100004441435F4C4F4F50000000005343454E35
:10311000450000005541525400000000554E4B4EF2
:103120004F574E0070B504460D461646204604F033
:10313000E0F80446284604F0DCF8054606B9012606
:10314000084804800848058008480680002008498F
:1031500008800120074908700420074908730846C1
:10316000048170BD6A0000206C0000206E00002009
:1031700070000020680000206001002014490978D8
:1031800001B9704713490988134A1288914207DB35
:1031900012490988124A118100210D4A1170F0E785
:1031A0000C490988491C0B4A11800C4909880D4AB1
:1031B0001288881A074909884143074A128891FBF7
:1031C000F2F1084A12881144054A118100BFD8E77C
:1031D00068000020700000206E0000206C000020BD
:1031E000600100206A00002070B500F0CEFC0546AA
:1031F00004F07FF82449088000F0CFFC054604F075
:1032000078F82149488000F0B8FC0446142C06D216
:1032100000F000FE142802D900F0FCFD0446204610
:1032200004F067F8184988800846007B05281DD2FD
:10323000DFE800F003080D12170013480088124958
:10324000488118E0104840880F49488113E00E4833
:1032500080880D4948810EE00B48C0880A494881A2
:1032600009E0094800890849488104E006480088C7
:103270000549488100BF00BF0349488904F039F877
:103280000149488170BD00006001002010B54FF475
:10329000A06002F0CFF94FF4E13002F077FE2EA1EA
:1032A000384802F0FCFE00F0C3FE00F001FC00F024
:1032B000B7FD00F08BFF01F013F800F0CDFC00F03B
:1032C0000BFEFEF7E1FAFEF72BF9FEF79DFAFEF78B
:1032D00085FC00F0E7F8FEF78FFF2B48FEF7F4FAC5
:1032E00098B940F22620284908804FF42A70488077
:1032F0004FF443708880012088710846FEF7B2FAC7
:10330000214908810846FEF7FBFA1F498879FFF733
:10331000A9FEFFF7BFFDFEF753FD1B4B9A885988A6
:103320001888FEF7EFFD00F0C7F900F061FB002000
:10333000164948770120887705F0CEFD012000F07E
:10334000A3FB01201149487701F01AF810A10D489C
:1033500002F0A5FE10BD00000D0A3D3D3D20486174
:103360007A6D6174205472616E73706F7274204D47
:103370006F6E69746F7220626F6F74203D3D3D0DFA
:103380000A000000004400402C010020040100203D
:10339000547970652048454C5020666F7220636FE9
:1033A0006D6D616E64732E0D0A00000070B50546E8
:1033B0000C4600F073FF0646224631462846FEF7CB
:1033C000B5FA70BD10B5FEF7E1FA02A10020FFF7D3
:1033D000EDFF10BD6C6F6720636C65617265640002
:1033E00010B5FEF7E5FA10BDF0B599B0FEF7E0FABA
:1033F00006460024C4F540611A4A101933461AA241
:1034000003F020F8204484B200251BE003A92846DD
:10341000FEF7E6FAA0B19DF8100000F05FF807464D
:103420000DF111000399CDE900170290C4F5406138
:103430000C4A10192B4615A203F004F8204484B25C
:10344000681C85B2B54202DAB4F53A6FDED3214684
:10345000044800F095FD18B90249114802F01FFE1A
:1034600019B0F0BD780E00200D0A232048617A6D56
:103470006174206C6F67206578706F72742C2063A4
:103480006F756E743D25750D0A000000253033758B
:103490002C256C752C25732C25730D0A000000005B
:1034A0000044004010B5FEF789FA02A10020FFF7A2
:1034B0007DFF10BD73797374656D206C6F67206933
:1034C0006E697469616C697A6564000070B5044660
:1034D0000D4629462046FEF783FA70BD01460629AF
:1034E0000ED2DFE801F00D030507090B05A07047B8
:1034F00006A0FCE708A0FAE709A0F8E70AA0F6E7AB
:103500000BA0F4E741555448000000005452414ECE
:1035100053504F5254000000414C41524D000000A6
:103520004641554C54000000504152414D000000AE
:10353000494E464F0000000010B51148006840F6A3
:10354000B831884200D210BD0D4800680D490968A5
:10355000401AB0F5487F00D2F5E7094800680949EC
:103560000860FEF713FC042802DBFEF745FCEAE7DF
:10357000FEF7DEFB01200449087000BFE3E700000E
:1035800000000020200000201D00002002480068EC
:10359000401C0149086070470000002000B5A3B03E
:1035A000802103A802F048FD10B103A8FEF724FF14
:1035B0003148006831490968401A32280DD32E4835
:1035C00000682E49086001A8FEF7ECFA28B1BDF8A2
:1035D0000610BDF8040000F0ADF92748006828493E
:1035E0000968401A322805D3234800682449086036
:1035F00004F028FF2048006822490968401AB0F505
:10360000FA7F08D31C4800681E49086005F0AEFC2C
:10361000002005F0D7FB184800681B490968401ACC
:10362000B0F57A7F05D3144800681749086005F0A3
:10363000B7FD1148006815490968401AB0F5FA7FCE
:1036400006D30D48006811490860114800F0DAF906
:10365000094800680F490968401A41F288318842D8
:1036600007D3054800680B4908600BA10220FFF74B
:103670009DFE23B000BD0000000000200C000020D3
:103680001800002004000020100000200800002086
:103690000401002014000020706572696F64696382
:1036A00020736E617073686F7400000001480078C9
:1036B00070470000F4000020002002490870024911
:1036C00008807047F4000020F60000200146092918
:1036D00016D2DFE801F0150507090B0D0F111300D5
:1036E00008A0704709A0FCE70BA0FAE70DA0F8E7D7
:1036F0000FA0F6E712A0F4E715A0F2E717A0F0E795
:1037000019A0EEE74E4F524D414C00004741535F28
:10371000534C4F57000000004741535F46415354FC
:10372000000000004750535F4C4F5354000000000E
:10373000524F5554455F4445564941544500000099
:10374000494C4C4547414C5F4F50454E00000000EE
:103750004C4F575F424154544552590043414E5FCC
:103760004F46464C494E45004E4F4E450000000026
:1037700070B5044620480470002020490880204687
:10378000FFF7A4FF054629460020FFF70FFE012C96
:1037900010D10120FFF786FC0020FFF79BFB0020E3
:1037A000FFF7B8FB012000F003FB00210846FEF7FD
:1037B0004FF81FE0022C01D0032C03D10220FFF7A9
:1037C00071FC17E0042C03D10120FFF783FB11E00B
:1037D000052C03D10120FFF79DFB0BE0082C03D142
:1037E000002000F0E5FA05E0072C03D108213C2079
:1037F000FEF72EF870BD0000F4000020F600002057
:1038000010B500200849087008490880FFF762FBDE
:103810000020FFF77FFB012000F0CAFA00210846D4
:10382000FEF716F810BD0000F4000020F60000209E
:1038300010B500243648007800B910BD354800881E
:10384000401C3449088032480078022830D10846AC
:1038500000880A2802D84FF496741DE02D4800888D
:10386000282808D82B4800880A38C0EB001000F53B
:10387000967084B210E02748008837280AD8254877
:103880000088283800EB400040F2EE2101EB4000B8
:1038900084B201E04FF4B47440F25230844200D953
:1038A0000446204600F0EAFA2046FFF7F1FB2CE040
:1038B0001748007803281CD116480088142809D21C
:1038C00014480088C0EBC0004FF4A07101EB8000E9
:1038D00080B201E040F252300446B4F5617F01D974
:1038E0004FF46174204600F0C9FA2046FFF7D0FB80
:1038F0000BE007480078062807D106480088012811
:1039000003D105A10320FFF751FD00BF95E700009B
:10391000F4000020F6000020696C6C6567616C2083
:10392000626F78206F70656E2073696D756C61745D
:10393000656400002DE9F04105460E4631462846F3
:1039400005F064FCFEF722FA042801DBFEF754FAC6
:10395000282E0ED2FDF7FCFD08B1022000E0012068
:10396000074600F091F80121084605F029FCBDE862
:10397000F0811E48007802281BD01C4800780128DE
:1039800017D01A480078A0B1B6F58C7F11D3502D0E
:1039900001D2022404E0A02D01D2042400E0052479
:1039A000204604F079FB80464146204605F008FC9D
:1039B000DDE73146284604F013FD0446204604F0B6
:1039C0006BFB80464146204605F0FAFB074800782D
:1039D000012802D00548007828B9FDF7B9FD10B1DB
:1039E000022000F051F800BFC1E70000F8000020FD
:1039F00010B5FEF78FF800200149087010BD0000D7
:103A0000F80000202DE9F041ADF52E7D0446207F21
:103A1000032802DB0620184908704FF47A71606AA7
:103A2000B0FBF1F51448007804F0E2FD804643460F
:103A300012A23021A2A8009502F004FD4FF40072FA
:103A400022A9204603F028FA21A90B48007804F0A7
:103A500063FD074601AA9DF88410384603F084FCF4
:103A60000646334601AA22A9A2A8FDF7DDFF0DF5FF
:103A70002E7DBDE8F0810000F80000202573207C39
:103A800020743D256C75730010B50446012C09D0D7
:103A900044B1062C06D0FDF75BFD18B9012003499F
:103AA000087010BD0148047000BFFAE7F80000205C
:103AB00000B58DB00121052001F0CEFD01210802E5
:103AC00001F00AFE0BA801F030FA03208DF8300057
:103AD00000208DF8330002200B900BA9174801F04D
:103AE000ACF90E200B900BA9154801F0A6F901A81E
:103AF000FDF706FC002001904FF48030029000207A
:103B00000390049001A8FDF7E3FB05A8FDF797FCDF
:103B1000002005908DF818008DF819000790099085
:103B200001208DF8280005A90648FDF7FDFB0121BD
:103B30000448FDF7C2FB0DB000BD000000000240CC
:103B4000000802400020014001464FF47A704843CB
:103B500040F6FF72B0FBF2F080B2704710B50D2056
:103B600000F024F8044640F6E4406043800040F64C
:103B7000FF71B0FBF1F080B210BD10B5012000F074
:103B800015F80446FFF7E0FF10BD10B50C2000F05B
:103B90000DF80446FFF7D8FF10BD10B50B2000F05C
:103BA00005F80446FFF7D0FF10BD000070B50446CD
:103BB0000D4D0623012221460C48FDF7DFFB0B4883
:103BC000FDF738FC00BF02210848FDF7A3FB18B938
:103BD000281EA5F10105F6D10DB9002070BD0348DE
:103BE000FDF794FBFAE70000A086010000200140E9
:103BF00010B504462CB14FF48071054801F091F9DD
:103C000004E04FF48071024801F08DF910BD00000E
:103C10000000024000B585B011E06A4600210C4862
:103C200000F026FD40F203110098884204D040F2D3
:103C3000FF310098884202D1012006490870002116
:103C4000034800F006FD0028E7D105B000BD0000E4
:103C5000006400407500002000B58BB001210846CB
:103C600001F0FAFC0121480601F016FD09220B21A2
:103C7000384801F02AF909220C21364801F025F9CB
:103C800009A801F052F94FF4C050099002208DF8B4
:103C9000280000208DF82A008DF82B0003208DF8D5
:103CA000290009A92B4801F0C8F82B4800F09EFB19
:103CB00006A800F055FD00208DF81E008DF81F00AD
:103CC0008DF8200001208DF8210000208DF82200C1
:103CD0008DF8230001208DF81A0000208DF81B00BC
:103CE00005208DF81C0006208DF81D00ADF8180089
:103CF00006A9194800F023FC00208DF812008DF869
:103D0000130001208DF814000020ADF80800ADF874
:103D10000A00ADF80C00ADF80E00ADF8100001205F
:103D20008DF8150002A800F07DFB012202210A484F
:103D300000F0FCFB14208DF8040002208DF8050033
:103D40008DF8060001208DF8070001A801F036FC6F
:103D50000BB000BD00000240006400400448007841
:103D600020B10448007808B1012070470020FCE72A
:103D7000760000207500002070B504460D462B46E5
:103D8000E122214640F2FF3005F0CEF870BD000080
:103D900070B504460D460548007830B12B46A52283
:103DA000214640F2031005F0BFF870BD76000020F8
:103DB00008B1012100E00021034A117010B900216F
:103DC000024A117070470000760000207500002044
:103DD0000548007808B905A070470648007808B182
:103DE00005A0F9E707A0F7E77600002053494D5FEB
:103DF0004F464600750000204C4F4F504241434B08
:103E0000000000004C4F4F504241434B5F57414927
:103E10005400000001480088704700006600002040
:103E200000B587B00121084601F016FC01214807C2
:103E300001F032FC05A801F078F81020059003206D
:103E40008DF8180000208DF81B0005A90A4800F025
:103E5000F4FF01A800F066FD00200190029004909C
:103E600001A900F035FD0121002000F01DFD00201A
:103E700000F004F807B000BD0000024070B5044631
:103E8000B4F57A7F01D94FF47A7406480480C4EB04
:103E900004304FF47A71B0FBF1F5A9B2002000F0C4
:103EA00031FD70BD6600002010B50849084800F0DB
:103EB00039FE50B10549064800F058FD002104487C
:103EC00000F06EFD00200349087010BD0080202026
:103ED000A06002407700002000B591B001214805A4
:103EE00001F0BAFB234800F067FD00BF214800F055
:103EF0000FFE0028FAD102A800F090FE4FF00060FB
:103F000002901D4803901D48049040200590002019
:103F1000069007904FF480600890002009900A9066
:103F20000B904FF480300C9000200D900E900F906D
:103F3000109002A90F4800F045FE012210210D4803
:103F400000F022FE11208DF8040003208DF80500FA
:103F500000208DF8060001208DF8070001A801F06F
:103F60002DFB012280210448001F02F018F911B036
:103F700000BD0000A0600240044400406E0100202B
:103F800030B58FB005460C462448007800B914B906
:103F900000200FB030BDB4F5406F01D94FF440643C
:103FA000224629461E48FCF70BF900211D4800F067
:103FB000F7FC00BF1B4800F0ABFD0028FAD11A49FE
:103FC000184800F0B9FC684600F028FE4FF0006089
:103FD00000901648019012480290402003900494EB
:103FE000002005904FF48060069000200790089014
:103FF00009904FF400300A9000200B900C900D9027
:104000000E906946074800F0DDFD01200349087065
:104010000121044800F0C4FC0120BAE77700002029
:104020006E010020A060024000002D2004440040EA
:1040300000B585B00121072001F00EFB01218803A6
:1040400001F04AFB03A800F070FF23200390012039
:104050008DF8100000208DF812008DF8130002205A
:104060008DF8110003A9264800F0E7FE4FF4807098
:10407000039003A9234800F0E0FE00208DF8100013
:1040800001208DF81300039003A91E4800F0D5FE0F
:104090004FF40350039003A91B4800F0CEFE00210B
:1040A000084601F0D5FD01A800F032FE0120019084
:1040B00000208DF808000C208DF8090001208DF8F3
:1040C0000A0001A800F0DAFD06208DF800000220A9
:1040D0008DF8010001208DF802008DF8030068467C
:1040E00001F06CFA0021084600F044F8002101209C
:1040F00000F040F80020FFF77BFD05B000BD000098
:1041000000040240000002400008024010B50446CE
:10411000012C08D10121154800F0FAFE08B9012050
:1041200010BD0020FCE7022C08D12103104800F04C
:10413000EFFE08B90120F3E70020F1E7032C08D1D6
:1041400040210B4800F0E4FE08B90120E8E7002018
:10415000E6E7042C08D18021054800F0D9FE08B913
:104160000120DDE70020DBE70020D9E70000024066
:10417000000802402DE9F04105460C465CB1284696
:1041800004F0B4F90646284604F0BAF90746314669
:1041900000F0C7FE0AE0284604F0A8F906462846C3
:1041A00004F0AEF90746314600F0BDFEBDE8F081EF
:1041B00070B50546284604F0A3F900F1140428461A
:1041C00004F094F921684840206070BD00B58BB0C0
:1041D0000121022001F040FA0121022001F05CFAE5
:1041E00002220521244800F070FE09A800F09DFE7F
:1041F0002020099002208DF8280000208DF82A0048
:1042000001208DF82B0002208DF8290009A91A48F9
:1042100000F013FE06A801F0AFFE5320ADF8180021
:1042200040F2E73007900020ADF81A00ADF820000A
:1042300006A9124801F05EFE01A801F04EFE6020C2
:10424000ADF804000120ADF8060000200390ADF8A1
:10425000100001A9094801F0E1FD0821074801F01B
:104260002FFE0121054801F0C1FD0121034801F0A5
:10427000C9FD0BB000BD0000000402400004004076
:1042800010B50446642C00D9642404EB840041007A
:10429000014801F02CFE10BD000400401CB501A92E
:1042A000002001F06FFB6946002001F045FB9DF8FE
:1042B00002000A4948439DF80410C1EB4112C2EBC9
:1042C000012100EB01109DF80510C1EB011100EB7D
:1042D00081009DF8061008441CBD000080510100BB
:1042E00010B586B0254C0121080701F0D5F9012051
:1042F00001F0AAF9012001F0A3FA00BF612001F04A
:104300007FFA18B9201EA4F10104F7D14FF4007010
:1043100001F0A2FA012001F099FA01F067FC03A86C
:1043200001F056FC002003907F200490FF200590B0
:1043300003A801F04FFB02A801F051FC08208DF802
:10434000080000208DF809008DF80A0002A901F08C
:10435000D7FB01A801F0B7FA1A208DF80700072053
:104360008DF805000F208DF8060003208DF804005D
:1043700001A9002001F060FB06B010BDFFFF0F0097
:1043800030B5144800684FF47A72B0FBF2F1481E61
:10439000B0F1807F00D31BE0481E4FF0E022506157
:1043A00050170F22002807DA13071D0E0A4B00F0E2
:1043B0000F04241F1D5503E013071C0E074B1C544C
:1043C00000BF00204FF0E02290610720106100BF85
:1043D00030BD00002400002018ED00E000E400E003
:1043E00000BFFEE710B5FFF715FC10BD10B5044681
:1043F0000B48844209D10121480601F05DF90021F2
:104400004FF0007001F058F908E00121880601F032
:1044100053F900214FF0806001F04EF910BD00000B
:104420000064004010B50021837A012202FA03F1F2
:104430003D4A126842F001023B4B1A603A4A1C3274
:1044400012688A43384B1C331A60027BCAB9364A59
:104450000C3212688A43344B0C331A604288C3888A
:1044600042EA0343304A4032847A42F834300288C8
:10447000838842EA03432C4A4032847A02EBC40226
:104480005360027B012A19D1274A0C3212680A4371
:10449000254B0C331A604288038842EA0343224AC0
:1044A0004032847A42F83430C288838842EA034337
:1044B0001D4A4032847A02EBC4025360C27A3AB990
:1044C000194A121D12688A43174B1B1D1A6006E019
:1044D000154A121D12680A43134B1B1D1A600289EC
:1044E00032B9114A143212688A430F4B14331A60DE
:1044F0000289012A06D10C4A143212680A430A4B77
:1045000014331A60427B012A06D1074A1C32126812
:104510000A43054B1C331A60034A126822F0010259
:10452000014B1A6010BD0000006600401AB14369DB
:104530000B43436102E043698B434361704730B5ED
:10454000024600200023146824F00204146014685A
:1045500044F00104146000E05B1C546804F00104A2
:104560001CB94FF6FF74A342F6D1546804F001045D
:104570000CB900206CE08C79012C04D1146844F053
:104580008004146003E0146824F080041460CC7983
:10459000012C04D1146844F04004146003E0146852
:1045A00024F0400414600C7A012C04D1146844F007
:1045B0002004146003E0146824F0200414604C7A92
:1045C000012C04D1146844F01004146003E0146852
:1045D00024F0100414608C7A012C04D1146844F087
:1045E0000804146003E0146824F008041460CC7A12
:1045F000012C04D1146844F00404146003E014682E
:1046000024F0040414608C78A407CD7844EA05648F
:104610000D7944EA05444D7944EA05540D886D1E30
:104620002C43D461146824F001041460002300E0DA
:104630005B1C546804F001041CB14FF6FF74A342E4
:10464000F6D1546804F001040CB1002000E0012010
:1046500030BD0246002019B9D36803F0030006E01C
:10466000012903D1136903F0030000E00020704723
:1046700010B500F5D87303EB01131B6803F00403B6
:104680001372137A53B900F5D87303EB01131B6847
:1046900040F2FF7404EA5353136009E000F5D87345
:1046A00003EB01131B686FF0604404EAD30353600B
:1046B00000F5D87303EB01131B6803F00203537278
:1046C00000F5D87303EB01135B6803F00F039372DB
:1046D00000F5D87303EB01135B681B0AD37400F574
:1046E000D87303EB01139B68D37200F5D87303EB07
:1046F00001139B681C0A147300F5D87303EB0113B4
:104700009B681C0C547300F5D87303EB01139B6872
:104710001B0E937300F5D87303EB0113DB68D3739F
:1047200000F5D87303EB0113DB681C0A147400F561
:10473000D87303EB0113DB681C0C547400F5D873B9
:1047400003EB0113DB681B0E937421B9C36843F0BC
:104750002003C36003E0036943F02003036110BD3D
:1047600000218171C171017241728172C1728170C7
:10477000C170032101710221417101210180704743
:1047800010B502460020936803F08063B3F1806F98
:1047900000D110E0936803F00063B3F1006F01D122
:1047A000012008E0936803F08053B3F1805F01D1EA
:1047B000022000E00420042874D002F5C07303EB4B
:1047C00000131B6803F0010402F5C07303EB001330
:1047D0001C600B7A7BB94B7A0C8843EA445302F590
:1047E000C07404EB00142468234302F5C07404EB86
:1047F0000014236010E00B7A4C6843EAC4034C7A3F
:10480000234302F5C07404EB00142468234302F52B
:10481000C07404EB001423608B7A03F00F038B72D7
:1048200002F5C07303EB00135B6823F00F0402F57D
:10483000C07303EB00135C6002F5C07303EB00135D
:104840005B688C7A234302F5C07404EB0014636048
:104850008B7B1C064B7B44EA03440B7B44EA03231B
:10486000CC7A234302F5C07404EB0014A3608B7C64
:104870001C064B7C44EA03440B7C44EA0323CC7BB8
:10488000234302F5C07404EB0014E36002F5C07327
:1048900003EB00131B6843F0010402F5C07303EB44
:1048A00000131C6010BD000039B1084A12680123D2
:1048B00083401A43054B1A6006E0044A126801233C
:1048C00083409A43014B1A60704700000074004017
:1048D00030B5002200230A4C226840F6FE74844062
:1048E000A243D1E900452C438D682C43CD6844EAAE
:1048F000050303FA00F42243014C226030BD00009E
:104900000074004008B500220092054A009200F1B0
:104910000802009B1A440092009A116008BD000032
:10492000007400400021016041608160C1607047F7
:1049300010B5FFF7B9FA10BD0246094B9A4201D2F1
:10494000084801E00648103801F000531BB1064B3F
:104950000B40C36002E0044B0B40836070470000D3
:1049600010640240006002407D0F7D0F0246094B3B
:104970009A4201D2084801E00648103801F000537D
:104980001BB1064B0B40C36002E0044B0B4083603D
:104990007047000010640240006002407D0F7D0FF0
:1049A00021B1026842F00102026003E0026822F0D5
:1049B0000102026070470000016821F001010160FE
:1049C0000021016041608160C1600161212141617C
:1049D0004A49884204D13D21484A103A91608CE00E
:1049E00046491831884205D14FF47461434A103A60
:1049F000916082E041493031884205D14FF4741111
:104A00003E4A103A916078E03C494831884205D1ED
:104A10004FF07461394A103A91606EE03749603165
:104A2000884204D13649354A103AD16065E03349AD
:104A30007831884204D13349304A103AD1605CE081
:104A40002E499031884204D12F492C4A103AD16026
:104A500053E02A49A831884205D14FF03D51274AF9
:104A6000103AD16049E02949884204D13D21274AC2
:104A7000083A116041E025491831884205D14FF4C8
:104A80007461224A083A116037E020493031884287
:104A900005D14FF474111D4A083A11602DE01B49ED
:104AA0004831884205D14FF07461184A083A1160C4
:104AB00023E016496031884204D11149134A121F7C
:104AC00011601AE011497831884204D10D490F4A2A
:104AD000121F116011E00D499031884204D10A493A
:104AE0000A4A121F116008E00849A831884204D11F
:104AF0004FF03D51054A121F11607047106002408F
:104B00003D000020400F002000003D2010640240C6
:104B1000014600200A6802F001020AB1012000E00B
:104B20000020704770B50246002000240025124E78
:104B3000B24201D2114B01E00F4B103B104E0E4020
:104B400036B11E2606EAD124166806EA040502E0FC
:104B5000566906F0800501F000560EB15C6800E071
:104B60001C68084E344004EA010616B10DB101205C
:104B700000E0002070BD00001064024000600240B0
:104B80003C0F3C0F7D0F7D0F10B501F080034BB142
:104B900022B1436943F08003436103E0436923F09A
:104BA0008003436180290BD02AB1036801F01E0401
:104BB0002343036004E0036801F01E04A343036081
:104BC00010BD000010B500220268134B1A40CC68DB
:104BD0000B6823434C6923438C692343CC692343EB
:104BE0000C6A23434C6A23438C6A23434C6B234354
:104BF0008C6B23431A430260426922F00702D1E919
:104C00000B3423431A4342610B6943604B68836052
:104C10008B68C36010BD00003F801CF00021016064
:104C200041608160C160016141618161C161016276
:104C300041628162C1620163416381637047704771
:104C400010B5012000F00EF820B1012000F004F8AA
:104C5000FEF772FC10BD00000149086070470000BB
:104C6000143C014001460020034A12680A400AB180
:104C7000012000E000207047143C0140002123493E
:104C80008279002A3AD00A46126803689A430B4692
:104C90001A600A1D126803689A430B1D1A60027994
:104CA00011440A6803681A430A60184A08321268F5
:104CB00003689A43154B08331A601A1D126803687B
:104CC0009A43124B0C331A604279102A0ED11A1FE4
:104CD000126803681A430D4B08331A601A1D1268D4
:104CE00003681A43094B0C331A600DE007494279F7
:104CF00011440A6803681A430A6005E00279114406
:104D00000A6803689A430A6070470000003C01404B
:104D10000021016001710C214171002181717047F6
:104D200051B18200A2F1C042126842F00103820038
:104D3000A2F1C042136009E08200A2F1C0421268F1
:104D4000034B1A408300A3F1C0431A607047000070
:104D5000FEFF0F00D0E901121143C268114302693E
:104D600011434269114382691143C2691143026AC6
:104D70001143426A1143826A1143C26A1143026BB2
:104D8000114302689200A2F1C042116081680829B3
:104D90000BD101688900A1F1C041096841F04002CE
:104DA00001688900A1F1C0410A60416B0968426B4A
:104DB000526841EA0211426B926841EA0221426B59
:104DC000928941EA0241426B128A41EA0251426BE6
:104DD000127D41EA0261426B926911430268521CE2
:104DE0009200A2F1C0421160C16AB1F5804F1BD19F
:104DF000816B0968826B526841EA0211826B92688A
:104E000041EA0221826B128A41EA0251826B127DD1
:104E100041EA0261826B9269114302689200A2F139
:104E2000C042C2F8041107E06FF0704201688900C7
:104E3000A1F1C041C1F804217047F0B50A46002134
:104E40000023002400BF3DE0012505FA01F31568A9
:104E500005EA03049C4234D105684F000326BE4096
:104E6000B543056015794E00B540066835430560C9
:104E70001579012D02D01579022D16D185684F00C4
:104E80000326BE40B543856055794E00B54086681F
:104E900035438560456801268E40B54345604568C9
:104EA00096798E40B6B235434560C5684F000326FB
:104EB000BE40B543C560D5794E00B540C6683543A0
:104EC000C560491C1029BFD3F0BDF0B500230024F4
:104ED0004D07ED0E02FA05F3CE1000F1200555F84E
:104EE00026504E07F70E0F26BE40B543CF1000F1F7
:104EF000200646F82750CE1000F1200555F8265020
:104F000045EA0304CE1000F1200545F82640F0BD27
:104F10000246002013690B400BB1012000E0002085
:104F2000704741837047018370474FF6FF710160FE
:104F30000021017141718171C171704700BFFEE7AD
:104F400010B504462CB14FF480510548FFF7E9FF36
:104F500004E04FF480510248FFF7E5FF10BD000068
:104F6000000C024000B597B00121084600F084FB18
:104F7000062001900020029006200390002004905B
:104F8000059006900790089009900A9010200B90C9
:104F900000200C900D900E900F9010904FF48050C8
:104FA0001190002012901390149001A81590169063
:104FB00008A8FFF7CFFE01210020FFF7B1FE17B0D0
:104FC00000BD000010B500222C23DC06238000BFAA
:104FD00002E0034B1980521C8242FAD310BD00003C
:104FE000000002601CB50121182000F035FB4CF6D2
:104FF000B370009002208DF804008DF805000020A9
:105000008DF806008DF8070069464348FFF715FF45
:105010004FF68070009069464048FFF70EFF0C2263
:1050200000213D48FFF751FF0C2201213A48FFF7CC
:105030004CFF0C2204213848FFF747FF0C220521C2
:105040003548FFF742FF0C2207213348FFF73DFFA9
:105050000C2208213048FFF738FF0C2209212E4886
:10506000FFF733FF0C220A212B48FFF72EFF0C22FB
:105070000B212948FFF729FF0C220E212648FFF7B4
:1050800024FF0C220F212448FFF71FFF0C220721C9
:105090002248FFF71AFF0C2208212048FFF715FFCE
:1050A0000C2209211D48FFF710FF0C220A211B4882
:1050B000FFF70BFF0C220B211848FFF706FF0C220D
:1050C00011461648FFF701FF0C220D211348FFF788
:1050D000FCFE0C220E211148FFF7F7FE0C220F21D7
:1050E0000E48FFF7F2FE4FF48050009001208DF83B
:1050F000040000208DF805008DF806008DF80700EB
:1051000069460548FFF799FE02200090694603486A
:10511000FFF793FE1CBD0000000C0240001002408F
:1051200010B50446072C00DD10BD1648047020465B
:1051300004EBD0714910A4EB410139B9F0201249B8
:1051400008804FF4A0701149088006E04FF4A07069
:105150000D490880F0200D4908803620010708809D
:10516000082040EA44100A49088008480388064895
:1051700002880021084600F00DF82C20C1060880A6
:1051800000BFD1E7540000205A0000205C0000203E
:105190000000026030B52A244FF0C0452C80041274
:1051A0000F4D2C80C4B22C808418641EC4F30F24CD
:1051B0002C808418641EE4B22C802B2465072C807C
:1051C0000C12074D2C80CCB22C80CC18641EC4F37A
:1051D0000F242C80CC18641EE4B22C8030BD00005B
:1051E0000000026010B501204FF0C0410880782017
:1051F00002F0D5F828204FF0C04108803A200880FE
:1052000055200B49088011204FF0C04108806420D0
:1052100002F0C5F829204FF0C0410880642002F058
:10522000BEF82C20C1060880052002F0B8F810BD99
:105230000000026010B502210648FFF772FE05204B
:1052400002F0ADF802210348FFF76DFE052002F0E1
:10525000A6F810BD001002402DE9F04106460F46A9
:1052600014461D462B46224639463046FFF792FF2C
:1052700004FB05F002490988FFF7A4FEBDE8F081B0
:10528000580000202DE9F05F8046894617461C46ED
:10529000DDF828A00026B346A3B23A464946404668
:1052A000FFF778FF2C20C106088007FB04F0C11728
:1052B00000EB5171C1F3CF0B002516E0002610E082
:1052C0001AF8050080213141084020B109480088C2
:1052D0000949088003E00948008807490880701CD4
:1052E00086B2082EECDB681C85B25D45E6DBBDE8C6
:1052F000F09F0000560000200000026058000020CF
:105300002DE9F84F04460F4691461D464FF0000A1E
:1053100000F034F8B0F8048000F030F8C68823E0DC
:10532000287800F03DF882466D1C12480088001B6A
:10533000404502DA0024B81987B20F480088C01B24
:10534000B04200DA002733B2424639462046CDF853
:1053500000A0FFF797FFB9F1000F03D104EB08009D
:1053600084B201E0A01984B228780028D8D1BDE821
:10537000F88F00005A0000205C00002001480068FF
:10538000704700005000002001480088704700006E
:105390005A00002001480088704700005C0000208F
:1053A00001460A4800688088084B1B68DB88584320
:1053B000A1F1200300FB03F2D01702EB5070034B66
:1053C0001B681B6803EBE0007047000050000020E2
:1053D00010B5FFF707FEFFF7C5FDFFF72BFF012014
:1053E000FFF7AEFDFFF7FEFE02480078FFF798FEDC
:1053F00010BD000054000020024A1080024A1180B3
:105400007047000056000020580000200149086045
:10541000704700005000002000BFFEE710B50120DB
:10542000FCF714F94FF4E13003F038FB03F090FB84
:1054300008B9012000E000200649087008460078FD
:1054400008B105A000E00AA001460F4800F027FEC1
:1054500010BD0000E80000205B4E46435D20504E2A
:105460003533322077616B65204F4B0D0A00000009
:105470005B4E46435D20504E3533322077616B657D
:10548000204641494C0D0A0000440040FEB5044648
:105490000F4604B10FB90020FEBD0120FCF7D6F87D
:1054A000FFF7BCFF1D48007808B90020F4E71CA1F5
:1054B000244800F0F4FD002527E003F047FA0646F3
:1054C000012E1DD12048C0781F4989781E4A527884
:1054D000CDE9002102901C4803781CA239462046E1
:1054E00000F0B0FF1FA1174800F0D9FD2146154874
:1054F00000F0D5FD1FA1134800F0D1FD0120CBE73E
:10550000642001F04CFF681CC5B2142DD5D31AA13C
:105510000C4800F0C4FD0020BEE70000E8000020B9
:105520005B4E46435D20506C61636520636172642D
:10553000206E65617220504E3533322E2E2E0D0AAC
:105540000000000000440040E20000204E46432DD1
:1055500025303258253032582530325825303258CF
:10556000000000005B4E46435D204361726420559D
:10557000494420000D0A00005B4E46435D20436114
:10558000726420726561642074696D656F75740D55
:105590000A00000006490988B1F5FA7F06D2044ADC
:1055A00011884A1C024B1A80024A5054704700006E
:1055B000E6000020FC3100207047000070B500219B
:1055C00000230F22C4781CB3174C246804F4E06451
:1055D000C4F5E064C4F30721C1F10404E3B20A4155
:1055E00044789C40E1B28478144021430C07210E9A
:1055F0000E4C05786155047804F01F050124AC4079
:1056000005786D11AD0005F1E025C5F8004109E010
:10561000047804F01F050124AC40054D067876118E
:1056200045F8264070BD00000CED00E000E400E00D
:1056300080E100E002490143024A11607047000026
:105640000000FA050CED00E0014908627047000017
:1056500000000E427047000029B1064A126802435A
:10566000044B1A6004E0034A12688243014B1A603B
:10567000704700003038024029B1064A12680243E0
:10568000044B1A6004E0034A12688243014B1A601B
:10569000704700003838024029B1064A12680243B8
:1056A000044B1A6004E0034A12688243014B1A60FB
:1056B000704700004038024029B1064A1268024390
:1056C000044B1A6004E0034A12688243014B1A60DB
:1056D000704700002038024029B1064A1268024390
:1056E000044B1A6004E0034A12688243014B1A60BB
:1056F000704700004438024029B1064A126802434C
:10570000044B1A6004E0034A12688243014B1A609A
:105710007047000024380240F0B500210022002428
:10572000022500260223324F3F6807F00C0121B109
:10573000042905D0082937D105E02E4F076036E04F
:105740002D4F076033E02A4F3F1F3F68C7F3805655
:10575000274F3F1F3F6807F03F036EB1264FB7FB4F
:10576000F3F7DFF88CC0ACF1040CDCF800C0CCF32C
:10577000881C07FB0CF40CE01E4FB7FBF3F7DFF8B7
:1057800070C0ACF1040CDCF800C0CCF3881C07FB43
:105790000CF4174F3F1F3F68C7F301477F1C7D0084
:1057A000B4FBF5F7076002E0124F076000BF00BFCF
:1057B0000F4F3F6807F0F0010909104F7A5C076846
:1057C000D74047600A4F3F6807F4E051890A0B4F02
:1057D0007A5C4768D7408760054F3F6807F46041AF
:1057E000490B064F7A5C4768D740C760F0BD0000A0
:1057F000083802400024F40000127A00380000202B
:1058000010B501460022002300204A11012A02D1CE
:105810000A4C236808E0022A03D1084C703423683C
:1058200002E0064C7434236801F01F020124944006
:105830001C400CB1012000E0002010BD00380240E7
:105840000149086070470000800E47420149086026
:10585000704700003C0E4742002100F44072B2F550
:10586000407F08D1094A116821F4F811084A024022
:105870001143064A1160054A68321268C0F30B03EF
:105880001A43024B68331A60704700000838024020
:10589000FFFCFF0F014600BF080900EB800042003B
:1058A00001F00F001044C0B270470146002204E02E
:1058B000501CC2B2A1F10A00C1B20A29F8DA1007DD
:1058C00041EA106070470121017081704170002130
:1058D000C170704708B50022009200200021104AD4
:1058E000126802F04002CAB9421E0D4B1A6000BF96
:1058F0000B4A126802F04001009A521C0092009A72
:10590000B2F5803F01D00029F2D0054A126802F0BA
:1059100040020AB1012002E0002000E0012008BDA1
:105920000C2800400348006820F08000014908600E
:10593000704700000C28004070B506460C46002554
:105940000E4800680E4900EA0105280CE070C5F316
:105950000420607005F03F00A070C5F34230207055
:105960005EB9E078FFF796FFE0706078FFF792FF8E
:105970006070A078FFF78EFFA07070BD0428004013
:105980003FFFFF0070B506460C4600250F48006833
:105990000F4900EA0105C5F305402070C5F3062054
:1059A000607005F07F00A07005F48000000CE070CE
:1059B0005EB92078FFF76EFF20706078FFF76AFF0E
:1059C0006070A078FFF766FFA07070BD00280040EF
:1059D0007F7F7F0030B504460025CA201549086046
:1059E00053200860FFF776FF00B91DE011481C380E
:1059F000006820F040000F491C3908600846006824
:105A0000216808430B491C3908600A491439A06809
:105A1000086008460068A18840EA01400549143939
:105A20000860FFF77FFF0125FF2002490860284634
:105A300030BD0000242800402DE9F04105460C4609
:105A4000002600274DB9607800F01000102804D11E
:105A5000607820F010000A30607005B908E06078C6
:105A6000FFF718FF0646A078FFF714FF064600BFB1
:105A700055B1E0780004617840EA0120A17808433C
:105A8000217840EA413611E0E078FFF70EFF4FEA57
:105A900000486078FFF709FF48EA0028A078FFF780
:105AA00004FF48EA0008207848EA4036CA20124934
:105AB000086053200860FFF70DFF08B9002714E0C5
:105AC0000E4830400C4920390860FFF72BFF0A4888
:105AD0001C38006800F0200030B900F087F808B9E1
