:020000040800F2
:100000008806002029020008350400082D04000895
:1000100031040008E3020008410800080000000065
:100020000000000000000000000000006105000862
:1000300055030008000000003704000851060008BE
:10004000430200084302000843020008430200087C
:10005000430200084302000843020008430200086C
:10006000430200084302000843020008430200085C
:10007000430200084302000843020008430200084C
:10008000430200084302000843020008430200083C
:10009000430200084302000843020008430200082C
:1000A000430200084302000843020008430200081C
:1000B000430200084302000843020008430200080C
:1000C00043020008430200084302000843020008FC
:1000D00043020008430200084302000843020008EC
:1000E00043020008430200084302000843020008DC
:1000F00043020008430200084302000843020008CC
:1001000043020008430200084302000843020008BB
:1001100043020008430200084302000843020008AB
:10012000430200084302000843020008430200089B
:10013000430200084302000843020008430200088B
:10014000430200084302000843020008430200087B
:10015000430200084302000843020008430200086B
:10016000430200084302000843020008430200085B
:10017000430200084302000843020008430200084B
:10018000430200084302000800F002F800F03CF8C7
:100190000AA090E8000C82448344AAF10107DA45E2
:1001A00001D100F031F8AFF2090EBAE80F0013F0F8
:1001B000010F18BFFB1A43F001031847180700008E
:1001C00038070000103A24BF78C878C1FAD852071F
:1001D00024BF30C830C144BF04680C6070470000C1
:1001E0000023002400250026103A28BF78C1FBD840
:1001F000520728BF30C148BF0B6070471FB500F0E1
:1002000063FB1FBD10B510BD00F031F81146FFF7BC
:10021000F5FF00F017FB00F04FF803B4FFF7F2FF13
:1002200003BC00F057F80000094880470948004720
:10023000FEE7FEE7FEE7FEE7FEE7FEE7FEE7FEE796
:10024000FEE7FEE704480549054A064B70470000F3
:100250005506000889010008880000208806002053
:10026000880200208802002070477047704775465A
:1002700000F02CF8AE4605006946534620F0070012
:10028000854618B020B5FFF7DDFFBDE820404FF0F0
:1002900000064FF000074FF000084FF0000B21F070
:1002A0000701AC46ACE8C009ACE8C009ACE8C0093D
:1002B000ACE8C0098D46704710B50446AFF3008026
:1002C0002046BDE81040FFF7A8BF00000048704777
:1002D0002400002001491820ABBEFEE726000200E2
:1002E000704700BFFEE721B1026842F001020260E0
:1002F00003E0026822F001020260704710B500229C
:100300000268134B1A40CC680B6823434C692343A3
:100310008C692343CC6923430C6A23434C6A2343EF
:100320008C6A23434C6B23438C6B23431A43026038
:10033000426922F00702D1E90B3423431A43426198
:100340000B6943604B6883608B68C36010BD00001D
:100350003F801CF07047F0B50A46002100230024BE
:1003600000BF3DE0012505FA01F3156805EA030425
:100370009C4234D105684F000326BE40B54305605A
:1003800015794E00B5400668354305601579012D95
:1003900002D01579022D16D185684F000326BE4084
:1003A000B543856055794E00B54086683543856014
:1003B000456801268E40B5434560456896798E4074
:1003C000B6B235434560C5684F000326BE40B5430D
:1003D000C560D5794E00B540C6683543C560491C37
:1003E0001029BFD3F0BDF0B5002300244D07ED0E5A
:1003F00002FA05F3CE1000F1200555F826504E07FD
:10040000F70E0F26BE40B543CF1000F1200646F888
:100410002750CE1000F1200555F8265045EA030478
:10042000CE1000F1200545F82640F0BD00BFFEE7E4
:1004300000BFFEE77047704729B1064A12680243C1
:10044000044B1A6004E0034A12688243014B1A60AD
:10045000704700003038024029B1064A1268024352
:10046000044B1A6004E0034A12688243014B1A608D
:100470007047000040380240F0B5002100220024FF
:10048000022500260223324F3F6807F00C0121B1FC
:10049000042905D0082937D105E02E4F076036E042
:1004A0002D4F076033E02A4F3F1F3F68C7F3805648
:1004B000274F3F1F3F6807F03F036EB1264FB7FB42
:1004C000F3F7DFF88CC0ACF1040CDCF800C0CCF31F
:1004D000881C07FB0CF40CE01E4FB7FBF3F7DFF8AA
:1004E00070C0ACF1040CDCF800C0CCF3881C07FB36
:1004F0000CF4174F3F1F3F68C7F301477F1C7D0077
:10050000B4FBF5F7076002E0124F076000BF00BFC1
:100510000F4F3F6807F0F0010909104F7A5C076838
:10052000D74047600A4F3F6807F4E051890A0B4FF4
:100530007A5C4768D7408760054F3F6807F46041A1
:10054000490B064F7A5C4768D740C760F0BD000092
:10055000083802400024F40000127A000000002055
:10056000704700000CB500200190009034480068EE
:1005700040F480303249086000BF3148006800F420
:10058000003000900198401C0190009818B9019823
:10059000B0F5A04FF1D12A48006800F4003010B146
:1005A0000120009001E0002000900098012846D131
:1005B00023484030006840F08050214940310860B5
:1005C0002048006840F440401E4908601C4808303C
:1005D00000681B49083108600846006840F4004084
:1005E00008600846006840F4A05008601648091FDB
:1005F0000860081F006840F08070091F086000BF95
:100600000F48006800F000700028F9D040F2057033
:100610000E4908600A480830006820F003000849C5
:10062000083108600846006840F00200086000BF1A
:1006300003480830006800F00C000828F8D10CBD11
:10064000003802400070004008544007003C02405F
:100650007047000010B51548006840F47000134959
:1006600008601348006840F001001149086000204C
:100670000F49083108600E4800680E4908400C49CF
:1006800008600D48091D0860081F006820F48020DC
:10069000091F0860002006490C310860FFF762FF5F
:1006A0004FF0006001498039086010BD88ED00E01E
:1006B00000380240FFFFF6FE1030002410B586B06F
:1006C000044601210846FFF7B7FE01214804FFF761
:1006D000C3FE0C20049002208DF814008DF8150044
:1006E00000208DF8160001208DF8170004A912488B
:1006F000FFF731FE072202210F48FFF774FE0722A1
:1007000003210D48FFF76FFE00940020ADF80400B0
:10071000ADF80600ADF80800ADF80C000C20ADF8FF
:100720000A006946054800F021F80121034800F05D
:1007300007F806B010BD0000000002400044004071
:1007400021B1828942F40052828104E082894DF60F
:10075000FF731A40828170471AB1838A0B438382E8
:1007600002E0838A8B438382704700002DE9FF47B4
:1007700005460E460024A14600BFA046B08900B140
:1007800000BF2C8A24F44054F08804432C82AC89A6
:1007900041F20C608443B088318908437189084371
:1007A0000443AC81AC8A24F44074B0890443AC8225
:1007B0006846FFF761FE2048854202D01F48854207
:1007C00002D1DDF80C9001E0DDF80890A88900F472
:1007D000004040B109EBC90000EB09103168490045
:1007E000B0FBF1F707E009EBC90000EB0910316835
:1007F0008900B0FBF1F76420B7FBF0F00401200999
:10080000642101FB1078A88900F4004040B1322037
:1008100000EBC800B0FBF1F000F00700044308E073
:10082000322000EB08106421B0FBF1F000F00F0063
:1008300004432C81BDE8FF870010014000140140F3
:1008400000BFFEE790B04FF4E130FFF737FF012221
:1008500080211A48FFF780FF012240211748FFF747
:100860007BFF01214805FFF7E7FD4FF00060019095
:100870001248001D0290124803904020049011205D
:100880000590002006904FF48060079000200890AB
:1008900009900A904FF480300B9000200C900320B8
:1008A0000D9000200E900F9001A90648FFF726FD3D
:1008B00001210448FFF717FD00BFFEE70044004098
:1008C00010000020A06002404FF04070E1EE100ADE
:1008D00070470000F4080008000000202400000019
:1008E000C401000818090008240000206406000064
:1008F000E0010008000000000102030401020304FB
:100900000607080948656C6C6F2045766572796F3B
:080910006E65210D0A000000D4
:0400000508000229C4
:00000001FF
