:020000040800F2
:1000000070060020290200089B03000893030008E3
:1000100097030008E30200081D0500080000000027
:10002000000000000000000000000000C103000804
:10003000E7020008000000009D030008B10400086A
:10004000430200084302000843020008430200087C
:10005000430200084302000843020008430200086C
:10006000430200084302000843020008430200085C
:10007000430200084302000843020008430200084C
:10008000430200084302000843020008430200083C
:10009000430200084302000843020008430200082C
:1000A000430200084302000843020008430200081C
:1000B000430200084302000843020008430200080C
:1000C00043020008430200084302000843020008FC
:1000D00043020008430200084302000843020008EC
:1000E00043020008430200084302000843020008DC
:1000F00043020008430200084302000843020008CC
:1001000043020008430200084302000843020008BB
:1001100043020008430200084302000843020008AB
:10012000430200084302000843020008430200089B
:10013000430200084302000843020008430200088B
:10014000430200084302000843020008430200087B
:10015000430200084302000843020008430200086B
:10016000430200084302000843020008430200085B
:10017000430200084302000843020008430200084B
:10018000430200084302000800F002F800F03CF8C7
:100190000AA090E8000C82448344AAF10107DA45E2
:1001A00001D100F031F8AFF2090EBAE80F0013F0F8
:1001B000010F18BFFB1A43F0010318473C0500006C
:1001C0005C050000103A24BF78C878C1FAD85207FD
:1001D00024BF30C830C144BF04680C6070470000C1
:1001E0000023002400250026103A28BF78C1FBD840
:1001F000520728BF30C148BF0B6070471FB500F0E1
:1002000075FA1FBD10B510BD00F031F81146FFF7AB
:10021000F5FF00F095F900F04FF803B4FFF7F2FF97
:1002200003BC00F057F80000094880470948004720
:10023000FEE7FEE7FEE7FEE7FEE7FEE7FEE7FEE796
:10024000FEE7FEE704480549054A064B70470000F3
:10025000B504000889010008700000207006002025
:10026000700200207002002070477047704775468A
:1002700000F02CF8AE4605006946534620F0070012
:10028000854618B020B5FFF7DDFFBDE820404FF0F0
:1002900000064FF000074FF000084FF0000B21F070
:1002A0000701AC46ACE8C009ACE8C009ACE8C0093D
:1002B000ACE8C0098D46704710B50446AFF3008026
:1002C0002046BDE81040FFF7A8BF00000048704777
:1002D0000C00002001491820ABBEFEE726000200FA
:1002E000704700BFFEE77047F0B50A4600210023C3
:1002F000002400BF3DE0012505FA01F3156805EA79
:1003000003049C4234D105684F000326BE40B54328
:10031000056015794E00B5400668354305601579CE
:10032000012D02D01579022D16D185684F000326C4
:10033000BE40B543856055794E00B540866835436B
:100340008560456801268E40B543456045689679CD
:100350008E40B6B235434560C5684F000326BE40A7
:10036000B543C560D5794E00B540C6683543C56014
:10037000491C1029BFD3F0BD0246002013690B4071
:100380000BB1012000E000207047418370470183DA
:10039000704700BFFEE700BFFEE7704770470000F0
:1003A00029B1064A12680243044B1A6004E0034A6A
:1003B00012688243014B1A607047000030380240D7
:1003C000704700000CB50020019000903448006890
:1003D00040F480303249086000BF3148006800F4C2
:1003E000003000900198401C0190009818B90198C5
:1003F000B0F5A04FF1D12A48006800F4003010B1E8
:100400000120009001E0002000900098012846D1D2
:1004100023484030006840F0805021494031086056
:100420002048006840F440401E4908601C480830DD
:1004300000681B49083108600846006840F4004025
:1004400008600846006840F4A05008601648091F7C
:100450000860081F006840F08070091F086000BF36
:100460000F48006800F000700028F9D040F20570D5
:100470000E4908600A480830006820F00300084967
:10048000083108600846006840F00200086000BFBC
:1004900003480830006800F00C000828F8D10CBDB3
:1004A000003802400070004008544007003C024001
:1004B0007047000010B51548006840F470001349FB
:1004C00008601348006840F00100114908600020EE
:1004D0000F49083108600E4800680E4908400C4971
:1004E00008600D48091D0860081F006820F480207E
:1004F000091F0860002006490C310860FFF762FF01
:100500004FF0006001498039086010BD88ED00E0BF
:1005100000380240FFFFF6FE1030002400BFFEE767
:1005200007E048F2084100BF0A1EA1F1010399B299
:10053000FAD1021EA0F1010398B2F2D17047000077
:1005400001210520FFF72CFF0120604908600020F1
:10055000087148710120C8715D48FFF7C5FE4FF46E
:1005600003505A4908600020087148710120C87181
:100570005848FFF7B9FE01210220FFF711FF2320A1
:1005800052490860012008710020887101204871DB
:100590000020C87123215048FFF7F9FE4B494E480F
:1005A000FFF7A2FE91E001214948FFF7E5FE4B4924
:1005B00008704FF400514748FFF7DEFE48490870C5
:1005C00040214448FFF7D8FE464908708021414841
:1005D000FFF7D2FE444908704048007848B14048CF
:1005E000007830B13F48007818B1084600780028FC
:1005F0006BD11420FFF794FF01213548FFF7BCFEB3
:10060000364908704FF400513248FFF7B5FE3449BF
:10061000087040212F48FFF7AFFE32490870802153
:100620002C48FFF7A9FE304908702C48007870B9B3
:1006300000BF01212648FFF79FFE0028F9D01420B3
:10064000FFF76EFF20212448FFF79FFE3DE024487E
:10065000007878B900BF4FF400511E48FFF78CFEB8
:100660000028F8D01420FFF75BFF01211A48FFF79C
:100670008CFE2AE01B48007870B900BF4021154865
:10068000FFF77AFE0028F9D01420FFF749FF022176
:100690001148FFF77AFE18E013480078A8B900BFA8
:1006A00080210C48FFF768FE0028F9D01420FFF7DE
:1006B00037FF20210848FFF76AFE01210648FFF7AF
:1006C00066FE02210448FFF762FE6CE7040000208A
:1006D0000000024000080240000402400000002028
:1006E0000100002002000020030000204FF04070B5
:1006F000E1EE100A70470000180700080000002013
:100700000C000000C4010008240700080C000020B1
:1007100064060000E0010008000000000000000086
:0407200000000000D5
:040000050800018965
:00000001FF
