:020000040800F2
:10000000D806002029020008A10400085F040008A7
:100010009D040008E3020008E70A00080000000051
:100020000000000000000000000000005D06000865
:100030002903000800000000310500084D070008F2
:10004000430200084302000843020008430200087C
:10005000430200084302000843020008430200086C
:10006000430200084302000843020008430200085C
:10007000430200084302000843020008430200084C
:10008000430200084302000843020008430200083C
:10009000430200084302000843020008430200082C
:1000A000430200084302000843020008430200081C
:1000B000430200084302000843020008430200080C
:1000C00043020008430200084302000843020008FC
:1000D0004302000843020008B90700084302000871
:1000E00043020008430200084302000843020008DC
:1000F00043020008430200084302000843020008CC
:1001000043020008430200084302000843020008BB
:1001100043020008430200084302000843020008AB
:10012000430200084302000843020008430200089B
:10013000430200084302000843020008430200088B
:10014000430200084302000843020008430200087B
:10015000430200084302000843020008430200086B
:10016000430200084302000843020008430200085B
:10017000430200084302000843020008430200084B
:10018000430200084302000800F002F800F03CF8C7
:100190000AA090E8000C82448344AAF10107DA45E2
:1001A00001D100F031F8AFF2090EBAE80F0013F0F8
:1001B000010F18BFFB1A43F001031847F00B0000B2
:1001C000100C0000103A24BF78C878C1FAD8520742
:1001D00024BF30C830C144BF04680C6070470000C1
:1001E0000023002400250026103A28BF78C1FBD840
:1001F000520728BF30C148BF0B6070471FB500F0E1
:10020000ABFD1FBD10B510BD00F031F81146FFF772
:10021000F5FF00F079FC00F04FF803B4FFF7F2FFB0
:1002200003BC00F057F80000094880470948004720
:10023000FEE7FEE7FEE7FEE7FEE7FEE7FEE7FEE796
:10024000FEE7FEE704480549054A064B70470000F3
:100250005107000889010008D8000020D8060020B6
:10026000D8020020D80200207047704770477546BA
:1002700000F02CF8AE4605006946534620F0070012
:10028000854618B020B5FFF7DDFFBDE820404FF0F0
:1002900000064FF000074FF000084FF0000B21F070
:1002A0000701AC46ACE8C009ACE8C009ACE8C0093D
:1002B000ACE8C0098D46704710B50446AFF3008026
:1002C0002046BDE81040FFF7A8BF00000048704777
:1002D0007400002001491820ABBEFEE72600020092
:1002E000704700BFFEE70000024600210CE00C480A
:1002F0000088814204DA0B48405C535C984201D08C
:1003000000207047481C81B2505C0028EFD104489F
:100310000088814201D00020F3E70120F1E70000CE
:1003200012000020240000207047000010B5232197
:10033000114800F092F81148007820B920210E48A9
:1003400000F089F80CE00D480078012804D1012163
:10035000094800F080F803E00221074800F07BF82C
:1003600006480078401C05490870084600780328B4
:1003700001DB0020087010BD0004024017000020BF
:10038000F0B50A4600210023002400BF3DE001250E
:1003900005FA01F3156805EA03049C4234D10568A7
:1003A0004F000326BE40B543056015794E00B540A9
:1003B0000668354305601579012D02D01579022DA7
:1003C00016D185684F000326BE40B5438560557938
:1003D0004E00B540866835438560456801268E40ED
:1003E000B5434560456896798E40B6B23543456061
:1003F000C5684F000326BE40B543C560D5794E00A1
:10040000B540C6683543C560491C1029BFD3F0BD4F
:10041000F0B5002300244D07ED0E02FA05F3CE10CF
:1004200000F1200555F826504E07F70E0F26BE4066
:10043000B543CF1000F1200646F82750CE1000F14A
:10044000200555F8265045EA0304CE1000F120059A
:1004500045F82640F0BD418370470183704700BFD7
:10046000FEE7000010B50121022000F063F8232010
:100470000849086001200871002088710120487136
:100480000020C8710448FFF77BFF23210248FFF7D3
:10049000E4FF10BD180000200004024000BFFEE78A
:1004A0007047000070B5002100230F22C4781CB3F0
:1004B000174C246804F4E064C4F5E064C4F3072135
:1004C000C1F10404E3B20A4144789C40E1B284786B
:1004D000144021430C07210E0E4C05786155047819
:1004E00004F01F050124AC4005786D11AD0005F145
:1004F000E025C5F8004109E0047804F01F05012457
:10050000AC40054D0678761145F8264070BD0000D8
:100510000CED00E000E400E080E100E0024901436E
:10052000024A1160704700000000FA050CED00E07F
:100530007047000029B1064A12680243044B1A6052
:1005400004E0034A12688243014B1A6070470000BE
:100550003038024029B1064A12680243044B1A603F
:1005600004E0034A12688243014B1A60704700009E
:1005700040380240F0B50021002200240225002668
:100580000223324F3F6807F00C0121B1042905D046
:10059000082937D105E02E4F076036E02D4F076060
:1005A00033E02A4F3F1F3F68C7F38056274F3F1F56
:1005B0003F6807F03F036EB1264FB7FBF3F7DFF854
:1005C0008CC0ACF1040CDCF800C0CCF3881C07FB39
:1005D0000CF40CE01E4FB7FBF3F7DFF870C0ACF182
:1005E000040CDCF800C0CCF3881C07FB0CF4174F9C
:1005F0003F1F3F68C7F301477F1C7D00B4FBF5F741
:10060000076002E0124F076000BF00BF0F4F3F6856
:1006100007F0F0010909104F7A5C0768D74047607E
:100620000A4F3F6807F4E051890A0B4F7A5C47682C
:10063000D7408760054F3F6807F46041490B064F7C
:100640007A5C4768D740C760F0BD000008380240B8
:100650000024F40000127A0000000020704700001F
:100660000CB50020019000903448006840F48030C0
:100670003249086000BF3148006800F40030009043
:100680000198401C0190009818B90198B0F5A04F4E
:10069000F1D12A48006800F4003010B10120009028
:1006A00001E0002000900098012846D12348403006
:1006B000006840F0805021494031086020480068BF
:1006C00040F440401E4908601C48083000681B493F
:1006D000083108600846006840F400400860084699
:1006E000006840F4A05008601648091F0860081F01
:1006F000006840F08070091F086000BF0F48006864
:1007000000F000700028F9D040F205700E49086032
:100710000A480830006820F00300084908310860E2
:100720000846006840F00200086000BF0348083037
:10073000006800F00C000828F8D10CBD0038024019
:100740000070004008544007003C02407047000021
:1007500010B51548006840F470001349086013484C
:10076000006840F001001149086000200F4908317D
:1007700008600E4800680E4908400C4908600D48A2
:10078000091D0860081F006820F48020091F086008
:10079000002006490C310860FFF762FF4FF000604F
:1007A00001498039086010BD88ED00E00038024042
:1007B000FFFFF6FE1030002410B540F225511E4810
:1007C00000F0CFF8002835D01B4800F083F9C4B200
:1007D0000D2C03D10120194908702BE00A2C12D1ED
:1007E0001648007878B11648007830B91548008866
:1007F000154908800120124908700020114908801D
:100800000E49087016E000200C4908700C4800786A
:1008100080B90C480088402809D20C480949098849
:10082000445408480088401C0649088002E0002023
:100830000449088010BD000000440040150000205D
:1008400014000020100000201200002024000020CE
:1008500010B501210846FFF76DFE01214804FFF79E
:1008600079FE0C201F4908600220087148710020A1
:1008700088710120C8711C48FFF782FD0722022100
:100880001948FFF7C5FD072203211748FFF7C0FDF0
:100890004FF4E1301549086000208880C880088145
:1008A00088810C204881124800F0AAF84FF4E060DB
:1008B000FFF734FE26200F490870012048700320FE
:1008C00088700120C8700846FFF7ECFD012240F255
:1008D0002551074800F06FF80121054800F028F87D
:1008E00010BD00001800002000000240640000203D
:1008F000004400402000002010B504460BE000BF7B
:1009000080210A4800F020F80028F9D02178074813
:1009100000F0E5F8641C20780028F0D100BF4021E9
:10092000024800F011F80028F9D010BD0044004042
:1009300021B1828942F40052828104E082894DF61D
:10094000FF731A408281704702460020B1F5007F94
:1009500000D100BF13880B400BB1012000E0002044
:10096000704770B50246002400230025002040F6A1
:100970006A16B14200D100BFC1F3421501F01F0356
:10098000012606FA03F3012D02D19689334006E0D1
:10099000022D02D1168A334001E0968A33400C12B0
:1009A000012606FA04F41688344013B10CB1012074
:1009B00000E0002070BDF0B50346002400260025AD
:1009C000002040F66A17B94200D100BF1846C1F3B3
:1009D000421401F01F06012707FA06F5012C01D188
:1009E0000C3004E0022C01D1103000E014301AB1B8
:1009F00007682F43076002E00768AF430760F0BD58
:100A00002DE9FF4705460E460024A14600BFA0463B
:100A1000B08900B100BF2C8A24F44054F08804430C
:100A20002C82AC8941F20C608443B0883189084340
:100A3000718908430443AC81AC8A24F44074B089C2
:100A40000443AC826846FFF795FD2048854202D0FA
:100A50001F48854202D1DDF80C9001E0DDF80890D6
:100A6000A88900F4004040B109EBC90000EB09106F
:100A700031684900B0FBF1F707E009EBC90000EB72
:100A8000091031688900B0FBF1F76420B7FBF0F082
:100A900004012009642101FB1078A88900F40040BA
:100AA00040B1322000EBC800B0FBF1F000F00700CD
:100AB000044308E0322000EB08106421B0FBF1F0A1
:100AC00000F00F0004432C81BDE8FF8700100140B7
:100AD0000014014001468888C0F308007047C1F344
:100AE00008028280704700BFFEE707E048F2084135
:100AF00000BF0A1EA1F1010399B2FAD1021EA0F1B2
:100B0000010398B2F2D17047FFF7ACFCFFF7A0FEEB
:100B10004AA0FFF7F1FE5048FFF7EEFE4FA0FFF7A7
:100B2000EBFE89E05548007800287DD054A0FFF7FF
:100B3000DBFB50B100205449087020215348FFF7D7
:100B40008AFC53A0FFF7D8FE6BE054A0FFF7CCFB64
:100B500050B100204C49087020214C48FFF77DFC23
:100B600051A0FFF7C9FE5CE052A0FFF7BDFB50B1FA
:100B700000204549087001214448FFF76CFC4FA054
:100B8000FFF7BAFE4DE050A0FFF7AEFB50B10020DA
:100B90003D49087001213D48FFF75FFC4DA0FFF77C
:100BA000ABFE3EE04EA0FFF79FFB50B10020364960
:100BB000087002213548FFF74EFC4BA0FFF79CFE62
:100BC0002FE04CA0FFF790FB50B100202E49087099
:100BD00002212E48FFF741FC49A0FFF78DFE20E0DF
:100BE0004AA0FFF781FB48B1012027490870002087
:100BF0004849087048A0FFF77FFE12E04AA0FFF7BF
:100C000073FB58B100202049087023211F48FFF7CB
:100C100024FC48A0FFF770FE03E005E049A0FFF7C1
:100C20006BFE0020154908701748007820B1FFF7C7
:100C30007DFBC820FFF759FF74E700005553415270
:100C40005432204C454420436F6E74726F6C2052B6
:100C500065616479210D0A00640D0008466C6F77A8
:100C6000204C45443A20464C4F575F4F4E2C20466F
:100C70004C4F575F4F46460D0A00000014000020FD
:100C80004C4544315F4F4E001600002000040240E6
:100C90004C454431204F4E0D0A0000004C45443174
:100CA0005F4F4646000000004C454431204F464609
:100CB0000D0A00004C4544325F4F4E004C45443213
:100CC000204F4E0D0A0000004C4544325F4F46460F
:100CD000000000004C454432204F46460D0A0000FB
:100CE0004C4544335F4F4E004C454433204F4E0D2E
:100CF0000A0000004C4544335F4F464600000000A8
:100D00004C454433204F46460D0A0000464C4F5791
:100D10005F4F4E0017000020464C4F57204C454473
:100D2000204F4E0D0A000000464C4F575F4F46467D
:100D300000000000464C4F57204C4544204F46468B
:100D40000D0A0000434F4D4D414E44204552524F35
:100D500052210D0A000000004FF04070E1EE100A31
:100D60007047000053696E676C65204C45443A201B
:100D70004C4544315F4F4E2C204C4544315F4F462B
:100D8000462C204C4544325F4F4E2C204C4544327B
:100D90005F4F46462C204C4544335F4F4E2C204C31
:100DA0004544335F4F46460D0A000000CC0D000855
:100DB0000000002024000000C4010008F00D00081D
:100DC00024000020B4060000E0010008000000003C
:100DD00001020304010203040607080900000000E1
:100DE0000000000000000000000000000000000003
:040000050800018965
:00000001FF
