:020000040800F2
:10000000F80500209D010008E5130008970B000883
:10001000E1130008CF070008571B0008000000008C
:100020000000000000000000000000002D16000885
:100030008909000800000000C11400081D1700080D
:10004000B7010008B7010008B7010008B7010008B0
:10005000B7010008B7010008B7010008B7010008A0
:10006000B7010008B7010008B7010008B701000890
:10007000B7010008B7010008B7010008B701000880
:10008000B7010008B7010008B7010008B701000870
:10009000B7010008B7010008B7010008B701000860
:1000A000B7010008B7010008B7010008B701000850
:1000B000B7010008B7010008B7010008B701000840
:1000C000B7010008B7010008B7010008B701000830
:1000D000B7010008B7010008D1190008B7010008EE
:1000E000B7010008B7010008B7010008B701000810
:1000F000B7010008B7010008B7010008B701000800
:10010000B7010008B7010008B7010008B7010008EF
:10011000B7010008B7010008B7010008B7010008DF
:10012000B7010008B7010008B7010008B7010008CF
:10013000B7010008B7010008B7010008B7010008BF
:10014000B7010008B7010008B7010008B7010008AF
:10015000B7010008B7010008B7010008B70100089F
:10016000B7010008B7010008B7010008B70100088F
:10017000B7010008B7010008B7010008B70100087F
:10018000B7010008B7010008DFF80CD000F018FA3A
:1001900000480047B1220008F805002006488047C3
:1001A00006480047FEE7FEE7FEE7FEE7FEE7FEE75C
:1001B000FEE7FEE7FEE7FEE72117000889010008D9
:1001C000D2B201E000F8012B491EFBD27047002299
:1001D000F6E710B513460A4604461946FFF7F0FF46
:1001E000204610BD2DE9FE4F804681EA0300C00F76
:1001F0000C46009021F0004123F00045B8EB0200CE
:10020000A94105D24046214690461C460B4602466F
:1002100023F00040104347D0270DC7F30A00C3F373
:100220000A510290401A019040286BDAC3F3130080
:1002300040F4801B0098924620B10023D2EB030AC1
:1002400063EB0B0B01985946C0F14002504600F099
:1002500028F906460D4650465946019A00F040F9E5
:1002600010EB08006141002487EA115284EAE77329
:100270001A4340D0009A62B3019A012A4FEA07520A
:1002800015DC001B61EB02014FF0004202EA07524D
:10029000CDE90042001C41F5801132462B4600F0AA
:1002A00040F903B0BDE8F08F40462146F9E7001B56
:1002B00061EB0201001C41F5801300185B4120181E
:1002C000A2F5001747EB030140EAD570B6196D415E
:1002D00011E06D084FEA360645EAC0754FEA07524D
:1002E000001B61EB0201001C41F5801149084FEA37
:1002F00030000019514132462B4603B0BDE8F04FA3
:1003000000F000B90098012240000023D0EB020267
:1003100063EBE073009821464FEAE074B8EB00000D
:1003200061EB0401E9E783F000435BE781F0004102
:1003300058E72DE9FE4F81EA030404F0004421F060
:10034000004100944FF0000B23F0004350EA0104F9
:100350005ED052EA03045BD0C3F30A54C1F30A55DA
:100360002C44A4F2F3340194A0FB0254C1F3130112
:1003700041F48011C3F3130343F4801301FB0244DF
:1003800000FB034E840A970A44EA815447EA8357E4
:10039000A4FB076802958D0A05FB07854FEA932C9D
:1003A00004FB0C542705029D4FEA065847EA16370E
:1003B000B5EB08056EEB070C870E920E47EA811726
:1003C00042EA8312A7FB0201B6EB0B0164EB0004C7
:1003D0002B0D43EA0C335E1844EB1C50DA465146B1
:1003E000E7FB0201C5F313044FEA0B3343EA14534E
:1003F0004FEA0432019C43EA0603A4F10C04029480
:10040000009CCDE900B400F08CF803B0BDE8F08F9B
:1004100000200146F9E70EB5C10F80EAE0700844FC
:10042000CA07002140F233438DE80E000A460B460E
:1004300000F077F803B000BD70B5C1F30A5201F0C7
:1004400000450024C1F3130140F2FF3341F4801151
:100450009A4201DA002070BD40F233439A42A2F280
:10046000334203DC524200F02BF800E090402C4372
:10047000F1D0404270BD30B50B460146002020222D
:10048000012409E021FA02F59D4205D303FA02F5A1
:10049000491B04FA02F52844151EA2F10102F1DC01
:1004A00030BD202A04DB203A00FA02F10020704718
:1004B0009140C2F1200320FA03F3194390407047A2
:1004C000202A04DB203A21FA02F00021704721FAA9
:1004D00002F3D040C2F12002914008431946704710
:1004E000202A06DBCB17203A41FA02F043EAE073F8
:1004F00006E041FA02F3D040C2F1200291400843E5
:100500001946704710B5141E73F1000408DA401C38
:1005100041F1000192185B411A4301D120F0010022
:1005200010BD2DE9F04D92469B4611B1B1FA81F212
:1005300002E0B0FA80F220329046FFF7B2FF0446A4
:100540000F4640EA0A0041EA0B0153465A46084367
:1005500013D0114653EA010019D0C8F140025046A9
:10056000FFF7AEFF05460E46504659464246FFF796
:1005700098FF084305D0012004E020463946BDE835
:10058000F08D0020054346EAE0762C4337430A9875
:100590006305E40AA0EB08000022FD0A44EA475480
:1005A0000A3002D500200146E9E70105101969412A
:1005B000DDE9084500196941BDE8F04DA2E70000FA
:1005C000064C074D06E0E06840F0010394E80700A0
:1005D00098471034AC42F6D3FFF7DAFDC02A000882
:1005E000E02A000870B58C1810F8015B15F00703BD
:1005F00001D110F8013B2A1106D110F8012B03E0BC
:1006000010F8016B01F8016B5B1EF9D12B0705D4C3
:100610000023521E0DD401F8013BFAE710F8013B0C
:10062000CB1A921C03E013F8015B01F8015B521E28
:10063000F9D5A142D8D3002070BDCA4302607047EB
:1006400021B1826842F00102826003E0826822F0F8
:1006500001028260704700000021084A1168084AC0
:100660001140D0E900231A4383681A43C3681A4330
:100670001143044AC2F804137047000004230140E8
:10068000E030FCFF002001400146C86C80B270479A
:100690000246002013680B400BB1012000E000204F
:1006A0007047000030B50246002000235068104C0F
:1006B00020400D790C6844EA05242043506090687E
:1006C0000C4C2040D1E903542C438D682C434D79C8
:1006D00044EA450420439060D06A20F470000C7D09
:1006E000641EE4B2234340EA0350D06230BD0000F0
:1006F000FFFEFFFCFDF7FFC0F0B504460D460020ED
:100700000021092D11DDE068A5F10A0606EB460778
:10071000072606FA07F18843A5F10A0606EB460606
:1007200003FA06F10843E0600CE0206905EB450799
:10073000072606FA07F1884305EB450603FA06F19A
:1007400008432061072A0FDA606B561E06EB860706
:100750001F2606FA07F18843561E06EB860605FAA1
:1007600006F10843606322E00D2A0FDA206BD61FE2
:1007700006EB86071F2606FA07F18843D61F06EB0D
:10078000860605FA06F10843206310E0E06AA2F14C
:100790000D0606EB86071F2606FA07F18843A2F12D
:1007A0000D0606EB860605FA06F10843E062F0BD89
:1007B000816841F0804181607047002101600171D2
:1007C00041718160C160016101210175704700BF05
:1007D000FEE7000010B50121102000F073FE00F0CC
:1007E0001BF84021014800F0D4F910BD0010024070
:1007F0001CB54020009000208DF804008DF8060004
:100800008DF8070001208DF805006946014800F0C9
:100810004AF91CBD001002401CB540200090012088
:100820008DF8040000208DF806008DF807000120E7
:100830008DF805006946024800F035F91CBD00003E
:100840000010024010B56421002000F081F800285B
:1008500002DA4FF0FF3010BD6421012000F078F87B
:10086000002802DA4FF0FF30F5E7282001F000FD04
:100870004021044800F082F9012800D1EBE7002074
:10088000E9E700000010024070B50024002500BF19
:1008900007E06006040EFFF7D5FF2043C4B2681CD2
:1008A000C5B2082DF5DB204670BD000010B504462A
:1008B00014B94FF0FF3010BDFFF7AEFF40212348C1
:1008C00000F067F94021214800F061F9122001F0A1
:1008D000C0FC40211D4800F05CF91E2001F0C8FC5E
:1008E000FFF786FFC821002000F032F8002802DA66
:1008F0004FF0FF30DFE76421012000F029F80028E5
:1009000002DA4FF0FF30D6E7502001F0B1FCFFF7DC
:10091000BBFF2070FFF7B8FF6070FFF7B5FFA07056
:10092000FFF7B2FFE070FFF7AFFF2071207861782A
:100930000844A1780844E17808442179884202D02B
:100940004FF0FF30B7E70020B5E70000001002408D
:1009500070B506460C46002504E0681CC5B20120AF
:1009600001F086FC4021074800F008F9B04201D0B0
:10097000A542F2D3A54202D34FF0FF3070BD002054
:10098000FCE70000001002407047000051B18200F7
:10099000A2F1C042126842F001038200A2F1C042FB
:1009A000136009E08200A2F1C0421268034B1A40B2
:1009B0008300A3F1C0431A6070470000FEFF0F00E0
:1009C000D0E901121143C26811430269114342691F
:1009D000114382691143C2691143026A1143426A99
:1009E0001143826A1143C26A1143026B11430268C8
:1009F0009200A2F1C0421160816808290BD1016800
:100A00008900A1F1C041096841F0400201688900F4
:100A1000A1F1C0410A60416B0968426B526841EA2A
:100A20000211426B926841EA0221426B928941EACB
:100A30000241426B128A41EA0251426B127D41EA45
:100A40000261426B926911430268521C9200A2F14A
:100A5000C0421160C16AB1F5804F1BD1816B09683A
:100A6000826B526841EA0211826B926841EA02216C
:100A7000826B128A41EA0251826B127D41EA026165
:100A8000826B9269114302689200A2F1C042C2F8DF
:100A9000041107E06FF0704201688900A1F1C041C4
:100AA000C1F804217047F0B50A4600210023002454
:100AB00000BF3DE0012505FA01F3156805EA0304CE
:100AC0009C4234D105684F000326BE40B543056003
:100AD00015794E00B5400668354305601579012D3E
:100AE00002D01579022D16D185684F000326BE402D
:100AF000B543856055794E00B540866835438560BD
:100B0000456801268E40B5434560456896798E401C
:100B1000B6B235434560C5684F000326BE40B543B5
:100B2000C560D5794E00B540C6683543C560491CDF
:100B30001029BFD3F0BDF0B5002300244D07ED0E02
:100B400002FA05F3CE1000F1200555F826504E07A5
:100B5000F70E0F26BE40B543CF1000F1200646F831
:100B60002750CE1000F1200555F8265045EA030421
:100B7000CE1000F1200545F82640F0BD02460020C9
:100B800013690B400BB1012000E000207047418346
:100B900070470183704700BFFEE7000010B50446B0
:100BA0002CB14FF480510548FFF7F1FF04E04FF4FA
:100BB00080510248FFF7EDFF10BD0000000C02401D
:100BC00000B597B00121084600F08CFC062001908A
:100BD00000200290062003900020049005900690CB
:100BE0000790089009900A9010200B9000200C901C
:100BF0000D900E900F9010904FF4805011900020A7
:100C000012901390149001A81590169008A8FFF761
:100C1000D7FE01210020FFF7B9FE17B000BD00008C
:100C200010B500222C23DC06238000BF02E0034B1A
:100C30001980521C8242FAD310BD000000000260ED
:100C40001CB50121182000F03DFC4CF6B37000905B
:100C500002208DF804008DF8050000208DF80600B4
:100C60008DF8070069464348FFF71DFF4FF6807077
:100C7000009069464048FFF716FF0C2200213D48CE
:100C8000FFF759FF0C2201213A48FFF754FF0C22CD
:100C900004213848FFF74FFF0C2205213548FFF7A4
:100CA0004AFF0C2207213348FFF745FF0C22082199
:100CB0003048FFF740FF0C2209212E48FFF73BFF89
:100CC0000C220A212B48FFF736FF0C220B21294862
:100CD000FFF731FF0C220E212648FFF72CFF0C22D4
:100CE0000F212448FFF727FF0C2207212248FFF796
:100CF00022FF0C2208212048FFF71DFF0C220921AA
:100D00001D48FFF718FF0C220A211B48FFF713FFAD
:100D10000C220B211848FFF70EFF0C221146164833
:100D2000FFF709FF0C220D211348FFF704FF0C22E7
:100D30000E211148FFF7FFFE0C220F210E48FFF78E
:100D4000FAFE4FF48050009001208DF8040000203E
:100D50008DF805008DF806008DF8070069460548F6
:100D6000FFF7A1FE0220009069460348FFF79BFEB3
:100D70001CBD0000000C02400010024010B50446EB
:100D8000072C00DD10BD16480470204604EBD0711E
:100D90004910A4EB410139B9F020124908804FF401
:100DA000A0701149088006E04FF4A0700D4908803A
:100DB000F0200D490880362001070880082040EA0D
:100DC00044100A4908800848038806480288002120
:100DD000084600F00DF82C20C106088000BFD1E7BE
:100DE000A4010020AA010020AC0100200000026044
:100DF00030B52A244FF0C0452C8004120F4D2C80B2
:100E0000C4B22C808418641EC4F30F242C80841870
:100E1000641EE4B22C802B2465072C800C12074D35
:100E20002C80CCB22C80CC18641EC4F30F242C80F0
:100E3000CC18641EE4B22C8030BD000000000260BB
:100E400010B501204FF0C0410880782001F001FA70
:100E500028204FF0C04108803A20088055200B49D7
:100E6000088011204FF0C0410880642001F0F1F9A2
:100E700029204FF0C0410880642001F0EAF92C20BD
:100E8000C1060880052001F0E4F910BD00000260F1
:100E900010B502210648FFF77AFE052001F0D9F9C6
:100EA00002210348FFF775FE052001F0D2F910BDBD
:100EB000001002402DE9F04106460F4614461D463B
:100EC0002B46224639463046FFF792FF04FB05F0D9
:100ED00002490988FFF7A4FEBDE8F081A8010020BF
:100EE00010B50446204600F0BBF8044803880448C7
:100EF000028800210846FFF7DDFF10BDB001002089
:100F0000AE0100202DE9F05F8046894617461C4659
:100F1000DDF828A00026B346A3B23A46494640462B
:100F2000FFF766FF2C20C106088007FB04F0C117FD
:100F300000EB5171C1F3CF0B002516E0002610E045
:100F40001AF8050080213141084020B10948008885
:100F50000949088003E00948008807490880701C97
:100F600086B2082EECDB681C85B25D45E6DBBDE889
:100F7000F09F0000A601002000000260A8010020F0
:100F80002DE9F84F04460F4691461D464FF0000AE2
:100F900000F034F8B0F8048000F030F8C68823E0A0
:100FA000287800F031F882466D1C12480088001B3A
:100FB000404502DA0024B81987B20F480088C01BE8
:100FC000B04200DA002733B2424639462046CDF817
:100FD00000A0FFF797FFB9F1000F03D104EB080061
:100FE00084B201E0A01984B228780028D8D1BDE8E5
:100FF000F88F0000AA010020AC0100200148006821
:1010000070470000A001002001460A48006880885F
:10101000084B1B68DB885843A1F1200300FB03F257
:10102000D01702EB5070034B1B681B6803EBE0000A
:1010300070470000A001002010B5FFF701FEFFF788
:10104000BFFDFFF725FF0120FFF7A8FDFFF7F8FE22
:1010500002480078FFF792FE10BD0000A4010020B6
:101060000149088070470000A8010020014908805C
:1010700070470000A6010020F8B504460D4616464C
:101080004FF6FF70FFF72CFF002318A2142108462B
:1010900000F074F800200223224614210090502012
:1010A00000F046F8002314A23221142000F066F864
:1010B000002002232A4632210090502000F038F808
:1010C000002311A25021142000F058F8002004231E
:1010D000324650210090084600F02AF800230DA265
:1010E0006E21142000F04AF8F8BD000054656D70C0
:1010F0003A2020202043000048756D693A202020C6
:1011000020255248000000004761733A202020202B
:1011100020200000546F7563682073637265656EEC
:1011200020746F2073746F7020616C61726D0000A9
:101130002DE9FE430746884615461C46DDF82890F3
:1011400000260EE00A20B5FBF0F100FB1150303014
:10115000611E891B0DF801000A20B5FBF0F5701C1B
:10116000C6B2A642EEDB00200DF804004B466A46EC
:101170004146384600F002F8BDE8FE832DE9F04113
:1011800006460F4614461D462846FFF76FFF2346C6
:10119000002239463046FFF7F3FEBDE8F08100003B
:1011A000F8B504460E4615464FF47840FFF798FE12
:1011B0004FF6FF7316A214210846FFF7DFFF4FF624
:1011C000FF7318A232211420FFF7D8FF4FF6FF70EB
:1011D00002232246322100905020FFF7A9FF4FF64C
:1011E000FF7313A250211420FFF7C8FF4FF6FF70C2
:1011F00004232A46502100900846FFF799FF4FF636
:10120000FF730EA26E211420FFF7B8FFF8BD000097
:101210002121214741532044414E4745522121215C
:101220000000000054656D703A202020204300002B
:101230004761733A2020202020200000546F7563FE
:10124000682073637265656E20746F2073746F70AD
:1012500020616C61726D0000F8B504460E461546BB
:101260004FF6E070FFF73CFE002314A2142108465D
:10127000FFF784FF002316A232211420FFF77EFF20
:10128000002002232246322100905020FFF750FF19
:10129000002312A250211420FFF770FF0020042326
:1012A0002A46502100900846FFF742FF00230EA275
:1012B0006E211420FFF762FFF8BD000054656D70C9
:1012C00065726174757265205761726E696E670030
:1012D00054656D703A202020204300004761733A26
:1012E0002020202020200000546F75636820736345
:1012F0007265656E20746F2073746F7020616C610D
:10130000726D000000B58BB00121080200F00AF9EF
:10131000002001904FF480300290002003904FF4A1
:101320007060049001A8FFF797F905A8FFF745FA48
:10133000002005908DF818008DF81900079008908E
:10134000099001208DF8280005A90748FFF7AAF9A0
:10135000022301220C210448FFF7CEF901210248A3
:10136000FFF76EF90BB000BD002001401CB5012154
:10137000042000F0A7F80420009003208DF804005A
:1013800000208DF8070069460148FFF78CFB1CBD63
:101390000008024010B5FFF7E9FFFFF7B3FF10BDEB
:1013A00010B564240D48FFF703FA08E0201EA4F1ED
:1013B000010401D0002010BD012000F04AFF0221ED
:1013C0000648FFF765F90128F0D102210348FFF72D
:1013D00034F90248FFF758F9EDE70000002001401A
:1013E00000BFFEE77047000070B5002100230F2208
:1013F000C4781CB3174C246804F4E064C4F5E064BA
:10140000C4F30721C1F10404E3B20A4144789C40CB
:10141000E1B28478144021430C07210E0E4C05786C
:101420006155047804F01F050124AC4005786D1166
:10143000AD0005F1E025C5F8004109E0047804F0AD
:101440001F050124AC40054D0678761145F826406D
:1014500070BD00000CED00E000E400E080E100E081
:1014600010B54FF4E171074800F005FA642000F070
:10147000F0FE0021034800F0FEF9642000F0E9FED0
:1014800010BD00000004004010B50021014800F02C
:10149000F2F910BD0004004010B5C821074800F063
:1014A000EAF94FF4FA7000F0D4FE0021034800F08E
:1014B000E2F94FF4FA7000F0CCFE10BD00040040D9
:1014C0007047000029B1064A12680243044B1A60B3
:1014D00004E0034A12688243014B1A60704700001F
:1014E0003038024029B1064A12680243044B1A60A0
:1014F00004E0034A12688243014B1A6070470000FF
:101500003838024029B1064A12680243044B1A6077
:1015100004E0034A12688243014B1A6070470000DE
:101520004038024029B1064A12680243044B1A604F
:1015300004E0034A12688243014B1A6070470000BE
:1015400044380240F0B50021002200240225002684
:101550000223324F3F6807F00C0121B1042905D066
:10156000082937D105E02E4F076036E02D4F076080
:1015700033E02A4F3F1F3F68C7F38056274F3F1F76
:101580003F6807F03F036EB1264FB7FBF3F7DFF874
:101590008CC0ACF1040CDCF800C0CCF3881C07FB59
:1015A0000CF40CE01E4FB7FBF3F7DFF870C0ACF1A2
:1015B000040CDCF800C0CCF3881C07FB0CF4174FBC
:1015C0003F1F3F68C7F301477F1C7D00B4FBF5F761
:1015D000076002E0124F076000BF00BF0F4F3F6877
:1015E00007F0F0010909104F7A5C0768D74047609F
:1015F0000A4F3F6807F4E051890A0B4F7A5C47684D
:10160000D7408760054F3F6807F46041490B064F9C
:101610007A5C4768D740C760F0BD000008380240D8
:101620000024F40000127A00B2010020704700008C
:101630000CB50020019000903448006840F48030E0
:101640003249086000BF3148006800F40030009063
:101650000198401C0190009818B90198B0F5A04F6E
:10166000F1D12A48006800F4003010B10120009048
:1016700001E0002000900098012846D12348403026
:10168000006840F0805021494031086020480068DF
:1016900040F440401E4908601C48083000681B495F
:1016A000083108600846006840F4004008600846B9
:1016B000006840F4A05008601648091F0860081F21
:1016C000006840F08070091F086000BF0F48006884
:1016D00000F000700028F9D040F205700E49086053
:1016E0000A480830006820F0030008490831086003
:1016F0000846006840F00200086000BF0348083058
:10170000006800F00C000828F8D10CBD0038024039
:101710000070004008544007003C02407047000041
:1017200010B51548006840F470001349086013486C
:10173000006840F001001149086000200F4908319D
:1017400008600E4800680E4908400C4908600D48C2
:10175000091D0860081F006820F48020091F086028
:10176000002006490C310860FFF762FF4FF000606F
:1017700001498039086010BD88ED00E00038024062
:10178000FFFFF6FE1030002421B1028842F08002F3
:10179000028004E002884FF67F731A40028070478F
:1017A00021B1028842F00102028004E002884FF673
:1017B000FE731A400280704770B500240022002397
:1017C000058C4FF6EF7635400584028C8388048BB8
:1017D00048F6FF752C404FF6FF452C400D884FF61C
:1017E000FF7606EA05252C434FF6DF752A408D89E2
:1017F00006EA05152A434D8806EA05152A43154DC4
:10180000A84202D0144DA8421DD14FF67F752A4040
:10181000CD894FF6FF7606EA05152A434FF6BF75C8
:101820002A408D8806EA05152A434FF6FF352B40DE
:101830004FF2FF752B400D8A06EA85052B434D8A32
:1018400006EA85052B43838004838D6885630284C3
:1018500070BD000000000140000401400A46002164
:10186000018B4FF2FF7319404FF6FF7303EA022317
:10187000194301837047816370470000002202888A
:10188000184B98420ED0184B98420BD0B0F1804FB5
:1018900008D0164B984205D0154B984202D0154BF4
:1018A000984204D14FF68F731A404B881A43124B5B
:1018B000984207D0114B984204D04FF6FF431A408C
:1018C0000B891A4302804B68C3620B880385054B62
:1018D000984202D0044B984201D18B7A03860123AF
:1018E0008382704700000140000401400004004072
:1018F00000080040000C00400010004000140040B0
:101900001CB500F02BF958B1142000F0A2FC00F037
:1019100025F928B1684600F02FFA08B901201CBD4E
:101920000020FCE710B588B0044601210846FFF707
:10193000C9FD01214804FFF7E5FD072202212248E5
:10194000FFF7F9F8072203211F48FFF7F4F80C20EE
:10195000069002208DF81C008DF81D0000208DF8E7
:101960001E0001208DF81F0006A91748FFF79BF8FD
:1019700002940020ADF80C00ADF80E00ADF8100098
:10198000ADF814000C20ADF8120002A90F4800F0C9
:101990006FF826208DF8040003208DF805008DF8DF
:1019A000060001208DF8070001A8FFF71DFD0122A8
:1019B00040F22551054800F036F80121034800F0B7
:1019C00019F808B010BD00000000024000440040BB
:1019D00010B500242021064800F018F838B104485A
:1019E00000F0B0F8C4B22146014800F0B0F810BDD4
:1019F0000044004021B1828942F40052828104E017
:101A000082894DF6FF731A4082817047024600209A
:101A1000B1F5007F00D100BF13880B400BB101204E
:101A200000E000207047F0B50346002400260025A2
:101A3000002040F66A17B94200D100BF1846C1F332
:101A4000421401F01F06012707FA06F5012C01D107
:101A50000C3004E0022C01D1103000E014301AB137
:101A600007682F43076002E00768AF430760F0BDD7
:101A70002DE9FF4705460E460024A14600BFA046BB
:101A8000B08900B100BF2C8A24F44054F08804438C
:101A90002C82AC8941F20C608443B08831890843C0
:101AA000718908430443AC81AC8A24F44074B08942
:101AB0000443AC826846FFF745FD2048854202D0CA
:101AC0001F48854202D1DDF80C9001E0DDF8089056
:101AD000A88900F4004040B109EBC90000EB0910EF
:101AE00031684900B0FBF1F707E009EBC90000EBF2
:101AF000091031688900B0FBF1F76420B7FBF0F002
:101B000004012009642101FB1078A88900F4004039
:101B100040B1322000EBC800B0FBF1F000F007004C
:101B2000044308E0322000EB08106421B0FBF1F020
:101B300000F00F0004432C81BDE8FF870010014036
:101B40000014014001468888C0F308007047C1F3C3
:101B500008028280704700BFFEE7000070B50025D4
:101B6000002410213848FFF709F804463748007868
:101B700020B101280DD0022833D127E024B901205B
:101B800032490870002503E0002030490870002524
:101B90002CE0A4B92E480068401C2D490860084676
:101BA0000068022806D90020086002202749087032
:101BB00001250AE0012025490870002505E00020E4
:101BC000234908602149087000250FE024B902204C
:101BD0001E490870012503E000201C4908700025FB
:101BE00004E0002019490870002500BF00BF012D46
:101BF00011D1184800F0C0F8002801DA284670BD5D
:101C0000144800F0FFF913480088124988800846FC
:101C10004088C88015E00F48B0F90400401C30B976
:101C20000C48B0F90400401C08B92846E7E7094809
:101C300000F0FEF94FF0FF300649088048808880A8
:101C4000C8802846DBE70000001002408C0100201D
:101C5000880100208E0100202DE9F04F8DB006464E
:101C600000250024A34600200B90282101A8FEF7A0
:101C7000AEFAA24600BF0BA90CA800F08BF9BDF884
:101C8000300001A921F81500BDF82C1006A820F895
:101C90001510681CC5B210213648FEF76FFF834649
:101CA000BBF1000F01D10A2DE5DB0A2D04DA4FF05C
:101CB000FF300DB0BDE8F08FBDF80470B846BDF838
:101CC0001890CA46BDF804000C90BDF818000B909F
:101CD00001241AE001A830F81400B84203D201A888
:101CE00030F8147007E001A830F81400404502D91C
:101CF00001A830F8148001A830F81400BDF83010A5
:101D0000084480B20C90601CC4B20A2CE2DB0124AF
:101D10001AE006A830F81400484503D206A830F8A7
:101D2000149007E006A830F81400504502D906A820
:101D300030F814A006A830F81400BDF82C100844A0
:101D400080B20B90601CC4B20A2CE2DBBDF83000FC
:101D5000C01BA0EB0800C00800B23080BDF82C000A
:101D6000A0EB0900A0EB0A00C00800B270800020C0
:101D70009FE700000010024010B52DED0A8B82B0E5
:101D800004466846FFF768FF002805DA4FF0FF3089
:101D900002B0BDEC0A8B10BDBDF90200FEF73BFBA3
:101DA00041EC1C0B5248006800EB4000514901EB2C
:101DB000001090ED021BB0EE410AF0EE610A53EC08
:101DC000102B51EC1C0BFEF7B4FA41EC1A0BBDF9C9
:101DD0000000FEF720FB41EC1C0B4548006800EBBF
:101DE0004000444901EB001090ED001BB0EE410AA9
:101DF000F0EE610A53EC102B51EC1C0BFEF799FA34
:101E000041EC1B0B53EC1A2BFEF7ECF941EC190BD0
:101E10003748006800EB4000364901EB001090EDB8
:101E2000041BB0EE410AF0EE610A53EC102B51ECAA
:101E3000190BFEF7D7F941EC180BFEF7FDFA00B2CB
:101E40002080BDF90200FEF7E6FA41EC1C0B2848A1
:101E5000006800EB4000274901EB001090ED081BE3
:101E6000B0EE410AF0EE610A53EC102B51EC1C0B62
:101E7000FEF75FFA41EC1A0BBDF90000FEF7CBFA52
:101E800041EC1C0B1A48006800EB4000194901EBBB
:101E9000001090ED061BB0EE410AF0EE610A53EC23
:101EA000102B51EC1C0BFEF744FA41EC1B0B53ECCE
:101EB0001A2BFEF797F941EC180B0D48006800EB60
:101EC00040000C4901EB001090ED0A1BB0EE410AF6
:101ED000F0EE610A53EC102B51EC180BFEF782F96F
:101EE00041EC190BFEF7A8FA00B2608000204FE722
:101EF00000000020080000201CB501211820FFF779
:101F0000E1FA012000908DF805008DF80400002012
:101F10008DF806008DF8070069461848FEF7C3FDE6
:101F20000420009069461548FEF7BDFD4FF40050AF
:101F3000009069461248FEF7B6FD08200090012087
:101F40008DF8050000208DF8040001208DF80700B1
:101F500069460A48FEF7A7FD1020009000208DF882
:101F6000040001208DF8070069460448FEF79BFD38
:101F70004FF400510248FEF70AFE1CBD001002405B
:101F8000000C024010B50446204600F065F800F051
:101F900011F810BD70B504460D469020FFF7F2FF12
:101FA0002080012000F064F9D020FFF7EBFF2880AB
:101FB00070BD000070B5002504211148FEF7E7FD53
:101FC00001210F48FEF7E5FD002414E001210C4833
:101FD000FEF7DDFD08210A48FEF7D0FD0646C4F1F4
:101FE0000B0006FA00F0284385B201210448FEF7F1
:101FF000D0FD601CC4B20C2CE8DB284670BD00008C
:102000000010024010B50446B4F90220B4F90010E3
:1020100001A000F053F810BD546F756368446F77EA
:102020006E2C783A25642C793A25640D0A0000005C
:1020300010B50446B4F90220B4F9001001A000F074
:102040003DF810BD546F75636855702C783A25645F
:102050002C793A25640D0A0070B505460024042148
:102060001548FEF794FD01211348FEF790FD00BFCF
:102070001FE0C4F1070045FA00F000F0010020B1B4
:1020800004210D48FEF785FD03E004210A48FEF710
:102090007EFD052000F0ECF801210748FEF779FDF0
:1020A000052000F0E5F801210348FEF770FD601CF3
:1020B000C4B2082CDDDB70BD001002400FB4054B2C
:1020C00010B503A9044A029800F018F810BC5DF896
:1020D00014FB00008D220008D401002002E008C893
:1020E000121F08C1002AFAD170477047002001E092
:1020F00001C1121F002AFBD1704700002DE9FF4FDC
:1021000089B09B460446002506E025280BD05A4698
:102110000B999047641C6D1C20780028F5D10DB0F8
:102120002846BDE8F08F0027B8460122474900E065
:10213000074314F8013F203B02FA03F00842F7D1AD
:1021400020782E2819D114F8010F47F004072A2807
:102150000ED06FF02F022078A0F1300109290CD8A1
:1021600008EB880102EB410100EB0108641CF2E777
:102170000A98641C50F8048B0A9020780028CED06E
:10218000642808D0692806D075281ED05A460B99B5
:1021900090476D1C58E00A994FF00A0901C90A914D
:1021A000002802DA40422D2102E0390504D52B2116
:1021B0008DF82010012103E0F90704D02021F7E772
:1021C0008A4608AE0DE00021FAE70A994FF00A09A5
:1021D00001C90A91F7E74946FEF74DF9303106F893
:1021E000011D0028F7D1ADEB060000F120097807AA
:1021F00001D44FF00108C84502DDA8EB090000E05A
:1022000000208046002706E008A85A46C05D0B99CA
:1022100090476D1C7F1C5745F6DB04E030205A4682
:102220000B9990476D1CB8F10001A8F10108F5DC8D
:1022300005E016F8010B5A460B9990476D1CB9F151
:102240000001A9F10109F4DC641C65E7092801001B
:10225000704707E048F2084100BF0A1EA1F10103E0
:1022600099B2FAD1021EA0F1010398B2F2D17047DF
:1022700006E01F2100BF0A1EA1F1010399B2FAD1A5
:10228000021EA0F1010398B2F3D1704770B5044665
:102290000D46E1B20548FFF75AFC00BF8021034814
:1022A000FFF7B4FB0028F9D0204670BD0044004081
:1022B0001FB5FFF7CDFF4FF4E130FFF733FB5FA011
:1022C000FFF7FCFEFEF786FAFFF764F8FFF714FE4F
:1022D000FEF7B2FE01210220FFF714F901210220CE
:1022E000FFF7F0F8022205215A48FEF724FC2020CF
:1022F0005949086002200871032048710020887144
:102300000120C8715348FEF7CEFB54205349088082
:102310000020488040F2F3104860002008815048B7
:10232000FFF7ACFA60204F49088001204880022066
:1023300088814B48FFF740FA08214948FFF78EFA99
:1023400001214748FFF720FA01214548FFF728FA05
:10235000002211461046FEF78FFE4FF47A70FFF709
:1023600078FF69E0FFF7CCFA012804D13E490870F4
:102370003EA0FFF7A3FE02A8FEF798FA0546FFF776
:102380000FF804466DB99DF80900CDE900049DF8E9
:1023900008309DF80B209DF80A103CA0FFF78EFE38
:1023A00002E045A0FFF78AFEB4F5487F0FDD00206C
:1023B0002D4908709DF808109DF80A002246FEF786
:1023C000EFFE2948007828BBFFF74AF822E09DF885
:1023D0000A001C2812DDB4F5967F0FDD002022498B
:1023E00008709DF808109DF80A002246FEF734FF99
:1023F0001D48007870B9FFF74FF80BE000201A492C
:1024000008709DF808109DF80A002246FEF734FE79
:10241000FFF73AF814480078012808D19DF8081011
:102420009DF80A002246FEF727FEFFF72DF84FF42D
:102430007A70FFF70EFF00BF94E70000CAD2C4DA3B
:10244000BBB7BEB3B0B2B7C0CFB5CDB3C6F4B6AFAD
:102450000D0A000000040240C8010020D80100203D
:1024600000040040E4010020D0010020B4A5C3FE18
:10247000C6C1C4BBA3ACCAD6B6AFC6C1B1CEB1A8A3
:10248000BEAFB5C6B9E20D0A00000000CEC2B6C8A4
:102490003A25642E2564A1E620CAAAB6C83A256466
:1024A0002E25642525524820C6F8CCE5C5A8B6C817
:1024B0003A25640D0A0000004448543131CEC2CAA6
:1024C000AAB6C8B2C9BCAFCAA7B0DC0D0A000000EA
:1024D00000000000000000000000000000000000FC
:1024E0000000001818181818180800081800000034
:1024F000000000342424240000000000000000003C
:102500000000000016247F2424247E2424000000E0
:10251000000000083E6848681C1612127C1010006B
:1025200000000061D296740810162949C600000008
:10253000000000003C646438724ACE467F00000010
:10254000000000181818180000000000000000002B
:1025500000000004081810303030301010180C043F
:10256000000000201008080C0404040C08181020B7
:10257000000000080A341C6A080000000000000087
:102580000000000000001818187F1818180000003C
:1025900000000000000000000000001818083000D3
:1025A0000000000000000000003C000000000000EF
:1025B00000000000000000000000001818000000EB
:1025C0000000000206040C08081010202040000043
:1025D000000000003C6642475B7342663C0000001E
:1025E0000000000018784808080808087E0000006D
:1025F000000000003C460606040810207E00000093
:10260000000000007C0606043C0202067C0000007C
:10261000000000000C1C14246444FF0404000000AB
:10262000000000007E6060607E0202067C00000008
:10263000000000001E306048764242623C0000000C
:10264000000000007E0206040C0818103000000094
:10265000000000003C6242361C6642423C00000022
:10266000000000003C664242661A02047800000046
:1026700000000000000018180000001818000000FA
:1026800000000000000018180000001818083000B2
:1026900000000000000004183060100C060000006C
:1026A00000000000000000007E007E00000000002E
:1026B000000000000000301804060C10200000008C
:1026C000000000301C060606181000101000000064
:1026D0000000001C224141DDB5A5A5AF94C0403CDF
:1026E00000000000181C342426627E43C100000054
:1026F000000000007C4642467C4242427C000000D2
:10270000000000001E204040404040603E000000AD
:10271000000000007C4642434343424678000000EC
:10272000000000007E6060607E6060607E000000EF
:10273000000000007E6060607E60606060000000FD
:10274000000000001E604040CE4242623E00000099
:1027500000000000424242427E42424242000000EB
:10276000000000007E181818181818187E000000C5
:10277000000000007C040404040404447800000009
:10278000000000004244485070584C444200000091
:102790000000000020202020202020203E000000FB
:1027A000000000006266675F5B5BC1C1C1000000A2
:1027B00000000000626272525A4A4E464600000013
:1027C000000000003C6243C3C3C343623C000000FE
:1027D000000000007C464242467840404000000035
:1027E000000000003C6243C3C3C343623C180F00B7
:1027F000000000007C6662667C6C6466620000001B
:10280000000000003E6040601C0602027C000000E8
:10281000000000007F181818181818181800000079
:102820000000000042424242424242623C0000003C
:1028300000000000C14342622624341C180000003E
:1028400000000000C1C141495B5B76666600000084
:102850000000000043663418181C2466C300000002
:1028600000000000C14266341C181818180000004F
:10287000000000007E02040C181020607E000000A2
:102880000000001C10101010101010101010101C60
:10289000000000402020101008080C040602000070
:1028A0000000003C0C0C0C0C0C0C0C0C0C0C0C3C2C
:1028B00000000000181C246200000000000000005E
:1028C000000000000000000000000000000000FF09
:1028D00000000020100000000000000000000000C8
:1028E0000000000000003C06023E42467A00000064
:1028F0000000004040405C62424242427C000000D6
:102900000000000000001E20604060203E0000002B
:102910000000000202023E62424242663A000000AB
:102920000000000000003C62427E40603E0000006B
:102930000000000F1810107E101010101000000082
:102940000000000000003F66426658403E43423CA3
:102950000000004040405C624242424242000000AF
:102960000000001818007808080808087E00000019
:10297000000000040C007C040404040404040C782B
:10298000000000606060626C787068646200000043
:102990000000007808080808080808087E00000001
:1029A000000000000000764B4B4B4B4B4B000000EF
:1029B0000000000000005C6242424242420000000F
:1029C0000000000000003C62424342623C00000004
:1029D0000000000000005C62424242427C404040F5
:1029E0000000000000003E62424242663A020202DB
:1029F0000000000000006E72636060606000000014
:102A00000000000000003E20203C06027C00000088
:102A1000000000001010FE10101010101E0000002A
:102A20000000000000004242424242663A000000BC
:102A30000000000000004342662434181800000023
:102A4000000000000000C1C15B5A5E666600000025
:102A500000000000000062261C181C266200000016
:102A600000000000000043426624341C181830E0C7
:102A70000000000000007E060C1810207E00000000
:102A80000000000E18101010307010101010180EEA
:102A900000000808080808080808080808080808C6
:102AA00000000030180808080C0E08080808183044
:102AB0000000000000000000714B06000000000054
:102AC000E02A000800000020D8010000E40500080A
:102AD0008C2C0008D801002020040000EC20000805
:102AE0008100FF00E31A9FC9FE797ABFF33D2311ED
:102AF0001AC1B2BFBE2EC37FBA857140809C3061BF
:102B0000342BB33F8448861C5BCF603F07793D98E8
:102B1000142F1AC090DB2F9FAC18B63F6FF607CA70
:102B20006DFB5E3FA0DFF76F5EAC29C0F9A1D288D4
:102B3000997D6EBF74081C0934D8B0BF42E90B21DF
:102B4000E7D66F4071218FE046CA663FF511F8C3A2
:102B5000CF7FAF3F842C0B26FE3027C0BC1FB75F52
:102B60003E59B53F64247B849A21753F8BFA2477C4
:102B7000D84C2FC067800BB265F9B63F2C616D8CC5
:102B80009DF032BF1E51A1BAB99C34C03F1C2444F1
:102B9000F98256BF7DCA3159DC7FB03FCAE2FE23BD
:102BA000D30D30C05D8940F50F22493FF5BBB035EC
:102BB0005B79B1BFC652245F895C6F4004E3E0D209
:102BC00031E7B5BFE527D53E1D8F29BFACADD85F36
:102BD000F6EB7440D53F8864C8B1B5BFE7340BB499
:102BE0003BA46083083F0C5707409C327440C15897
:102BF000DFC0E44661BFF31E679AB0FDB0BFA471A9
:102C0000A8DFC54F7040B55208E412475EBF95F289
:102C10005A09DD25B13F38D906EE409D29C0D9D0EB
:102C2000CDFE40B9B5BFFF092E56D4604ABFBD34B2
:102C3000458053D67440C503CAA65CE1B5BF704455
:102C4000F7AC6BB44CBFA3772AE05EE07440F62388
:102C5000456458C56BBF36CD3B4ED191B03F52B79E
:102C6000B3AF3CD818C05AFF012113D02413080871
:102C700012101398013B20021A12F02B400104415C
:0C2C80002D0102030404051606070809D4
:040000050800019D51
:00000001FF
