:020000040800F2
:10000000680600202902000829060008E305000808
:1000100025060008E1040008E907000800000000C8
:100020000000000000000000000000008D06000835
:10003000E5040008000000002B0600087D0700080A
:10004000430200084302000843020008430200087C
:10005000430200084302000843020008430200086C
:10006000430200084302000843020008430200085C
:10007000430200084302000843020008430200084C
:10008000430200084302000843020008430200083C
:10009000430200084302000843020008430200082C
:1000A000430200084302000843020008430200081C
:1000B000430200084302000843020008430200080C
:1000C00043020008430200084302000843020008FC
:1000D00043020008430200084302000843020008EC
:1000E00043020008430200084302000843020008DC
:1000F00043020008430200084302000843020008CC
:1001000043020008430200084302000843020008BB
:1001100043020008430200084302000843020008AB
:10012000430200084302000843020008430200089B
:10013000430200084302000843020008430200088B
:10014000430200084302000843020008430200087B
:10015000430200084302000843020008430200086B
:10016000430200084302000843020008430200085B
:10017000430200084302000843020008430200084B
:10018000430200084302000800F002F800F03CF8C7
:100190000AA090E8000C82448344AAF10107DA45E2
:1001A00001D100F031F8AFF2090EBAE80F0013F0F8
:1001B000010F18BFFB1A43F001031847A8060000FF
:1001C000C8060000103A24BF78C878C1FAD8520790
:1001D00024BF30C830C144BF04680C6070470000C1
:1001E0000023002400250026103A28BF78C1FBD840
:1001F000520728BF30C148BF0B6070471FB500F0E1
:100200002BFB1FBD10B510BD00F031F81146FFF7F4
:10021000F5FF00F0FBFA00F04FF803B4FFF7F2FF30
:1002200003BC00F057F80000094880470948004720
:10023000FEE7FEE7FEE7FEE7FEE7FEE7FEE7FEE796
:10024000FEE7FEE704480549054A064B70470000F3
:100250008107000889010008680000206806002066
:10026000680200206802002070477047704775469A
:1002700000F02CF8AE4605006946534620F0070012
:10028000854618B020B5FFF7DDFFBDE820404FF0F0
:1002900000064FF000074FF000084FF0000B21F070
:1002A0000701AC46ACE8C009ACE8C009ACE8C0093D
:1002B000ACE8C0098D46704710B50446AFF3008026
:1002C0002046BDE81040FFF7A8BF00000048704777
:1002D0000400002001491820ABBEFEE72600020002
:1002E000704721B1826842F00102826003E08268B7
:1002F00022F00102826070470021084A1168084A12
:100300001140D0E900231A4383681A43C3681A4393
:100310001143044AC2F8041370470000042301404B
:10032000E030FCFF002001400146C86C80B27047FD
:100330000246002013680B400BB1012000E00020B2
:100340007047000030B50246002000235068104C72
:1003500020400D790C6844EA0524204350609068E1
:100360000C4C2040D1E903542C438D682C434D792B
:1003700044EA450420439060D06A20F470000C7D6C
:10038000641EE4B2234340EA0350D06230BD000053
:10039000FFFEFFFCFDF7FFC0F0B504460D46002050
:1003A0000021092D11DDE068A5F10A0606EB4607DC
:1003B000072606FA07F18843A5F10A0606EB46066A
:1003C00003FA06F10843E0600CE0206905EB4507FD
:1003D000072606FA07F1884305EB450603FA06F1FE
:1003E00008432061072A0FDA606B561E06EB86076A
:1003F0001F2606FA07F18843561E06EB860605FA05
:1004000006F10843606322E00D2A0FDA206BD61F45
:1004100006EB86071F2606FA07F18843D61F06EB70
:10042000860605FA06F10843206310E0E06AA2F1AF
:100430000D0606EB86071F2606FA07F18843A2F190
:100440000D0606EB860605FA06F10843E062F0BDEC
:10045000816841F0804181607047000000B58DB037
:100460000121042000F0E2F80121080200F0EEF87A
:1004700002200B9003208DF8300000208DF833000F
:100480000BA9154800F02FF80121080200F0EEF842
:1004900000214FF4807000F0E9F8002007900A90E6
:1004A00009904FF40030089007A8FFF725FF0020BF
:1004B00001908DF808008DF8090003900590012047
:1004C0008DF8180001A90548FFF73CFF01210348FA
:1004D000FFF707FF0DB000BD0008024000200140FB
:1004E00000BFFEE77047F0B50A4600210023002454
:1004F00000BF3DE0012505FA01F3156805EA030494
:100500009C4234D105684F000326BE40B5430560C8
:1005100015794E00B5400668354305601579012D03
:1005200002D01579022D16D185684F000326BE40F2
:10053000B543856055794E00B54086683543856082
:10054000456801268E40B5434560456896798E40E2
:10055000B6B235434560C5684F000326BE40B5437B
:10056000C560D5794E00B540C6683543C560491CA5
:100570001029BFD3F0BD0183704742694A404261F0
:100580007047000010B504460723012221460848A1
:10059000FFF702FF0648FFF75BFF00BF0221044898
:1005A000FFF7C6FE0028F9D00148FFF7BDFE10BDD9
:1005B000002001402DE9F04107460C4600250026A9
:1005C00008E03846FFF7DEFF0544052000F00EF98D
:1005D000701CC6B2A642F4DBB5FBF4F080B2BDE8F5
:1005E000F08100BFFEE700001CB50121022000F0F1
:1005F0001DF82020009001208DF8040003208DF8C4
:10060000050000208DF8060001208DF807006946DE
:100610000348FFF768FF20210148FFF7ACFF1CBD2E
:100620000004024000BFFEE77047704729B1064A48
:1006300012680243044B1A6004E0034A12688243C2
:10064000014B1A60704700003038024029B1064A59
:1006500012680243044B1A6004E0034A12688243A2
:10066000014B1A60704700004438024029B1064A25
:1006700012680243044B1A6004E0034A1268824382
:10068000014B1A6070470000243802407047000098
:100690000CB50020019000903448006840F4803090
:1006A0003249086000BF3148006800F40030009013
:1006B0000198401C0190009818B90198B0F5A04F1E
:1006C000F1D12A48006800F4003010B101200090F8
:1006D00001E0002000900098012846D123484030D6
:1006E000006840F08050214940310860204800688F
:1006F00040F440401E4908601C48083000681B490F
:10070000083108600846006840F400400860084668
:10071000006840F4A05008601648091F0860081FD0
:10072000006840F08070091F086000BF0F48006833
:1007300000F000700028F9D040F205700E49086002
:100740000A480830006820F00300084908310860B2
:100750000846006840F00200086000BF0348083007
:10076000006800F00C000828F8D10CBD00380240E9
:100770000070004008544007003C024070470000F1
:1007800010B51548006840F470001349086013481C
:10079000006840F001001149086000200F4908314D
:1007A00008600E4800680E4908400C4908600D4872
:1007B000091D0860081F006820F48020091F0860D8
:1007C000002006490C310860FFF762FF4FF000601F
:1007D00001498039086010BD88ED00E00038024012
:1007E000FFFFF6FE1030002400BFFEE707E048F2EE
:1007F000084100BF0A1EA1F1010399B2FAD1021EFD
:10080000A0F1010398B2F2D170470000FFF7ECFEAF
:10081000FFF724FE19E00A210B20FFF7CBFE0B495E
:1008200008800846008840F26C71484340F6FF712A
:10083000B0FBF1F064300649088020210548FFF73D
:100840009CFE03480088FFF7D1FFE4E7000000208A
:1008500002000020000402404FF04070E1EE100A58
:100860007047000084080008000000200400000019
:10087000C401000888080008040000206406000085
:08088000E00100080000640023
:040000050800018965
:00000001FF
