:020000040800F2
:10000000180600209D010008F10800087D06000880
:10001000ED080008A1050008270E000800000000F8
:10002000000000000000000000000000990A000825
:10003000A5050008000000006D090008890B0008F4
:10004000B7010008B7010008B7010008B7010008B0
:10005000B7010008B7010008B7010008B7010008A0
:10006000B7010008B7010008B7010008B701000890
:10007000B7010008B7010008B7010008B701000880
:10008000B7010008B7010008B7010008B701000870
:10009000B7010008B7010008B7010008B701000860
:1000A000B7010008B7010008B7010008B701000850
:1000B000B7010008B7010008B7010008B701000840
:1000C000B7010008B7010008B7010008B701000830
:1000D000B7010008B7010008A10C0008B70100082B
:1000E000B7010008B7010008B7010008B701000810
:1000F000B7010008B7010008B7010008B701000800
:10010000B7010008B7010008B7010008B7010008EF
:10011000B7010008B7010008B7010008B7010008DF
:10012000B7010008B7010008B7010008B7010008CF
:10013000B7010008B7010008B7010008B7010008BF
:10014000B7010008B7010008B7010008B7010008AF
:10015000B7010008B7010008B7010008B70100089F
:10016000B7010008B7010008B7010008B70100088F
:10017000B7010008B7010008B7010008B70100087F
:10018000B7010008B7010008DFF80CD000F04AF80A
:10019000004800479D1300081806002006488047C5
:1001A00006480047FEE7FEE7FEE7FEE7FEE7FEE75C
:1001B000FEE7FEE7FEE7FEE78D0B00088901000879
:1001C0002DE9F05F0546002092469B46884606468C
:1001D000814640241BE0284641464746224600F01F
:1001E00042F853465A46C01A914110D31146184658
:1001F000224600F029F82D1A67EB01084F462246E7
:100200000120002100F020F817EB00094E41201ECC
:10021000A4F10104DFDC484631462A464346BDE8E6
:10022000F09F0000064C074D06E0E06840F0010337
:1002300094E8070098471034AC42F6D3FFF7A8FFC4
:1002400090140008B0140008202A04DB203A00FAB9
:1002500002F1002070479140C2F1200320FA03F31D
:10026000194390407047202A04DB203A21FA02F01B
:100270000021704721FA02F3D040C2F120029140E0
:10028000084319467047000070B505460E461446EF
:1002900000214FF4003000F06BF910B14FF0FF3047
:1002A00070BD01212E4800F047FA2E4800F048F9B1
:1002B00010B14FF0FF30F3E72B48017800222848B7
:1002C00000F00AFB294800F03BF910B14FF0FF3075
:1002D000E6E73146224800F007FB2448801C00F086
:1002E0002FF910B14FF0FF30DAE701211C4800F080
:1002F00023FA1C4800F024F910B14FF0FF30CFE78B
:10030000194801780122164800F0E6FA1548401C09
:1003100000F016F910B14FF0FF30C1E718E0012CE2
:1003200007D100210E4800F0ABF901210C4800F084
:100330000FFA0C483F3000F003F910B14FF0FF30D6
:10034000AEE7074800F0C4FA28706D1C601E84B246
:10035000002CE4D10121024800F092F900209FE72F
:10036000005400400100030000000020820007004C
:100370002DE9F04707460D4614464FF000080026C9
:10038000B146B246C5F58070A04201DAC5F5807469
:100390002846E91705EB5171C910A5EBC10101F021
:1003A000FF08C8F10800C6B2A64200DDE6B2B8F107
:1003B000000F09D032462946384600F035F8A81912
:1003C000C5B23744A01B84B22046E11704EB51713B
:1003D000C1F3C709E11704EB5171C910A4EBC101C6
:1003E00001F0FF0A0CE008222946384600F01CF80C
:1003F00005F10800C5B20837A9F1010000F0FF09B6
:10040000B9F1000FEFDCBAF1000F04DD52462946C6
:10041000384600F009F8BDE8F08710B500F064F93F
:1004200000F034FA10BD000070B504460E461546C3
:1004300000214FF4003000F09BF810B14FF0FF3076
:1004400070BD01211E4800F077F91E4800F078F8D1
:1004500010B14FF0FF30F3E71B4801780022184835
:1004600000F03AFA194800F06BF810B14FF0FF3085
:10047000E6E73146124800F037FA1448801C00F0D5
:100480005FF810B14FF0FF30DAE70CE021780C484C
:1004900000F02AFA641C0D48801C00F051F810B1DD
:1004A0004FF0FF30CCE7281EA5F10101CDB2EDD110
:1004B0000121034800F04CF900F00AF80020BFE7E2
:1004C00000540040010003000000002082000700EB
:1004D00008B56420009000BF0098411E009100B94B
:1004E00008BD012000F038FF0121104800F024F978
:1004F0000F4800F025F800B10BE00E48017800220B
:100500000A4800F0E9F90C4800F01AF800B901E0D7
:1005100000BFE1E700BF0949044800F0D2F801211B
:10052000024800F015F900BFDAE70000005400406F
:1005300001000300000000208200070000040010FA
:1005400038B504464FF48030009006E00098411E14
:10055000009110B94FF0FF3038BD2146034800F03C
:100560009BF80028F2D00020F6E70000005400407D
:1005700038B504460D464FF48010009006E0009810
:10058000411E009110B94FF0FF3038BD214603489D
:1005900000F0EAF8A842F2D10020F6E7005400404B
:1005A00000BFFEE77047F0B50A4600210023002493
:1005B00000BF3DE0012505FA01F3156805EA0304D3
:1005C0009C4234D105684F000326BE40B543056008
:1005D00015794E00B5400668354305601579012D43
:1005E00002D01579022D16D185684F000326BE4032
:1005F000B543856055794E00B540866835438560C2
:10060000456801268E40B5434560456896798E4021
:10061000B6B235434560C5684F000326BE40B543BA
:10062000C560D5794E00B540C6683543C560491CE4
:100630001029BFD3F0BDF0B5002300244D07ED0E07
:1006400002FA05F3CE1000F1200555F826504E07AA
:10065000F70E0F26BE40B543CF1000F1200646F836
:100660002750CE1000F1200555F8265045EA030426
:10067000CE1000F1200545F82640F0BD00BFFEE792
:1006800021B1028842F48062028004E002884FF6C1
:10069000FF331A400280704770B5024600240025DF
:1006A00000230020958A138B1B0445EA030626F0DD
:1006B0007F4404EA01068E4201D1012000E00020BF
:1006C00070BD002221F07F42D3438382704721B165
:1006D000028842F00102028004E002884FF6FE73B5
:1006E0001A400280704700001CB50121022000F072
:1006F0003FF90121480500F04BF9C020009002208D
:100700008DF804008DF8050001208DF8060000200A
:100710008DF8070069460748FFF745FF04220621C8
:100720000448FFF788FF042207210248FFF783FFF0
:100730001CBD00000004024021B1028842F4807216
:10074000028004E002884FF6FF631A40028070477F
:1007500021B1028842F40072028004E002884FF660
:10076000FF531A40028070470CB502460020002358
:100770000193009300920B0F019321F07F41019BA5
:100780001BB1009B1433009303E0090C009B18334A
:100790000093009B1B680B400BB1012000E0002080
:1007A0000CBD00002DE9FF4704460D460026B1466A
:1007B0000427DFF8CC80A6884FF6C0700640684654
:1007C00000F0F6F8DDF808802E48B8FBF0F01FFACC
:1007D00080F946EA0906A68020884FF6FE71084097
:1007E000208000262849286888420CD828684000C4
:1007F000B8FBF0F087B2042F00DA04273E4309F17A
:100800000100208427E0E8884BF6FF71884206D17A
:10081000286800EB4000B8FBF0F087B209E02868D8
:1008200000EBC00101EB0010B8FBF0F087B247F419
:100830008047C7F30B0008B947F0010747F40040B1
:1008400006434FF4967009FB00F04FF47A7190FB69
:10085000F1F0401C2084A683208840F00100208015
:1008600026884FF6F5300640A88869890843064374
:100870002680A889298908432081BDE8FF870000D8
:1008800000127A0040420F00A08601001FB5002030
:10089000ADF804004BF6FF70ADF806004FF4806031
:1008A000ADF80A000001ADF80C0007480090694659
:1008B0000648FFF777FF01210448FFF708FF0121F1
:1008C0000248FFF7DDFE1FBDA08601000054004076
:1008D0000146088AC0B2704712B141F0010101E03F
:1008E00001F0FE01018270470182704700BFFEE700
:1008F0007047000070B5002100230F22C4781CB39C
:10090000174C246804F4E064C4F5E064C4F30721E0
:10091000C1F10404E3B20A4144789C40E1B2847816
:10092000144021430C07210E0E4C057861550478C4
:1009300004F01F050124AC4005786D11AD0005F1F0
:10094000E025C5F8004109E0047804F01F05012402
:10095000AC40054D0678761145F8264070BD000084
:100960000CED00E000E400E080E100E070470000F2
:1009700029B1064A12680243044B1A6004E0034A94
:1009800012688243014B1A60704700003038024001
:1009900029B1064A12680243044B1A6004E0034A74
:1009A00012688243014B1A607047000040380240D1
:1009B000F0B5002100220024022500260223324F38
:1009C0003F6807F00C0121B1042905D0082937D16F
:1009D00005E02E4F076036E02D4F076033E02A4FC9
:1009E0003F1F3F68C7F38056274F3F1F3F6807F000
:1009F0003F036EB1264FB7FBF3F7DFF88CC0ACF1C5
:100A0000040CDCF800C0CCF3881C07FB0CF40CE0F1
:100A10001E4FB7FBF3F7DFF870C0ACF1040CDCF845
:100A200000C0CCF3881C07FB0CF4174F3F1F3F6836
:100A3000C7F301477F1C7D00B4FBF5F7076002E0B8
:100A4000124F076000BF00BF0F4F3F6807F0F00173
:100A50000909104F7A5C0768D74047600A4F3F6822
:100A600007F4E051890A0B4F7A5C4768D7408760EA
:100A7000054F3F6807F46041490B064F7A5C4768B1
:100A8000D740C760F0BD0000083802400024F400E1
:100A900000127A0002000020704700000CB5002010
:100AA000019000903448006840F48030324908607A
:100AB00000BF3148006800F4003000900198401CED
:100AC0000190009818B90198B0F5A04FF1D12A48CB
:100AD000006800F4003010B10120009001E0002017
:100AE00000900098012846D123484030006840F02B
:100AF00080502149403108602048006840F440405F
:100B00001E4908601C48083000681B49083108600D
:100B10000846006840F4004008600846006840F459
:100B2000A05008601648091F0860081F006840F0C0
:100B30008070091F086000BF0F48006800F0007057
:100B40000028F9D040F205700E4908600A480830C4
:100B5000006820F003000849083108600846006872
:100B600040F00200086000BF03480830006800F051
:100B70000C000828F8D10CBD00380240007000407D
:100B800008544007003C02407047000010B515486B
:100B9000006840F47000134908601348006840F092
:100BA00001001149086000200F49083108600E4813
:100BB00000680E4908400C4908600D48091D08608E
:100BC000081F006820F48020091F086000200649E3
:100BD0000C310860FFF762FF4FF000600149803977
:100BE000086010BD88ED00E000380240FFFFF6FE0F
:100BF0001030002410B588B0044601210846FFF7E4
:100C0000B7FE01214804FFF7C3FE07220221224854
:100C1000FFF711FD072203211F48FFF70CFD0C20F1
:100C2000069002208DF81C008DF81D0000208DF824
:100C30001E0001208DF81F0006A91748FFF7B3FC1E
:100C400002940020ADF80C00ADF80E00ADF81000D5
:100C5000ADF814000C20ADF8120002A90F4800F006
:100C60006FF826208DF8040003208DF805008DF81C
:100C7000060001208DF8070001A8FFF73BFE0122C6
:100C800040F22551054800F036F80121034800F0F4
:100C900019F808B010BD00000000024000440040F8
:100CA00010B500242021064800F018F838B1044897
:100CB00000F0B0F8C4B22146014800F0B0F810BD11
:100CC0000044004021B1828942F40052828104E054
:100CD00082894DF6FF731A408281704702460020D8
:100CE000B1F5007F00D100BF13880B400BB101208C
:100CF00000E000207047F0B50346002400260025E0
:100D0000002040F66A17B94200D100BF1846C1F36F
:100D1000421401F01F06012707FA06F5012C01D144
:100D20000C3004E0022C01D1103000E014301AB174
:100D300007682F43076002E00768AF430760F0BD14
:100D40002DE9FF4705460E460024A14600BFA046F8
:100D5000B08900B100BF2C8A24F44054F0880443C9
:100D60002C82AC8941F20C608443B08831890843FD
:100D7000718908430443AC81AC8A24F44074B0897F
:100D80000443AC826846FFF713FE2048854202D038
:100D90001F48854202D1DDF80C9001E0DDF8089093
:100DA000A88900F4004040B109EBC90000EB09102C
:100DB00031684900B0FBF1F707E009EBC90000EB2F
:100DC000091031688900B0FBF1F76420B7FBF0F03F
:100DD00004012009642101FB1078A88900F4004077
:100DE00040B1322000EBC800B0FBF1F000F007008A
:100DF000044308E0322000EB08106421B0FBF1F05E
:100E000000F00F0004432C81BDE8FF870010014073
:100E10000014014001468888C0F308007047C1F300
:100E200008028280704700BFFEE700000FB4054B48
:100E300010B503A9044A029800F018F810BC5DF838
:100E400014FB0000791300081400002002E008C819
:100E5000121F08C1002AFAD170477047002001E034
:100E600001C1121F002AFBD1704700002DE9FF4F7E
:100E70008DB00F460546002606E025280BD0DDE99B
:100E80000F1290476D1C761C28780028F5D111B000
:100E90003046BDE8F08F0024A246A1460122EC496D
:100EA00000E0044315F8013F203B02FA03F008423A
:100EB000F7D128782A2810D06FF02F022878A0F1D7
:100EC0003001092914D80AEB8A0102EB410144F0F0
:100ED000020400EB010A6D1CF0E701CF5FEA000A93
:100EE00003D544F40054CAF1000A44F002046D1C16
:100EF00028782E2817D115F8010F44F004042A2869
:100F00000ED06FF02F022878A0F1300109290AD8FD
:100F100009EB890102EB410100EB01096D1CF2E7CD
:100F200057F8049B6D1C28786C280FD006DC4C28E1
:100F300017D068280DD06A2814D104E0742810D086
:100F40007A280FD10DE044F400140AE044F4801430
:100F500001E044F440146978814202D104F5801420
:100F60006D1C6D1C2A786E2A1FD00CDC632A31D0D0
:100F700004DC002A8BD0582A11D1A3E0642A68D05F
:100F8000692A0CD165E0732A2ED004DC6F2A73D055
:100F9000702A04D19BE0752A6FD0782A6ED0104653
:100FA000DDE90F129047761C50E1C4F3025002288D
:100FB00006D0032809D0042801CF09D0066045E1F6
:100FC00001CFF117C0E9006140E101CF06803DE1AA
:100FD00006703BE117F8040B8DF8000000208DF837
:100FE0000100EB46012003E057F804BB4FF0FF304F
:100FF00061074FF0000102D40DE008F101018846BD
:1010000049450FDA8045F8DB1BF808100029F4D1B8
:1010100008E008F1010188468142FADB1BF808105C
:101020000029F6D1DDE90F23AAEB0800814621460D
:1010300000F036F9304400EB080604E0DDE90F1259
:101040001BF8010B9047B8F10108F7D2214648463A
:10105000F7E00A21C4F302534FF0000B0891022B72
:1010600004D001CFC117032B09D00AE0FF1D27F0E0
:101070000707F7E8020108E032E01FE020E000B2D5
:10108000C117042B01D140B2C117031E71F1000337
:1010900007DA4FF0000CD0EB0C006CEB01012D23B4
:1010A00002E0230504D52B238DF82430012303E02F
:1010B000E30701D02023F7E7984658E00A2110E023
:1010C00010210EE010204FF0000B08900CE01021D2
:1010D0004FF0000B44F004044FF00809089103E0BE
:1010E00008214FF0000B0891C4F30253022B04D0E7
:1010F00001CF0021032B06D006E0FF1D27F00707D4
:10110000F7E8020103E080B2042B00D1C0B24FF037
:10111000000823072BD5702A07D0DDF820C08CF0FB
:10112000100C5CEA0B0C05D00EE040238DF8243047
:10113000012308E050EA010306D030238DF8243063
:101140008DF8252002239846DDF820C08CF0080C8D
:101150005CEA0B0C0BD150EA010301D1630706D501
:1011600030238DF824304FF00108A9F10109582AE5
:1011700004D038A20B9208AA0A920BE03AA2F9E72F
:101180005B46089AFFF71CF80B9B9B5C0A9A521E61
:101190000A92137050EA0102F2D10A98ADEB0000F6
:1011A00000F1200B600702D524F4803401E04FF0F9
:1011B0000109D94502DDA9EB0B0000E0002000EB9E
:1011C0000B0141440890AAEB010AE00306D4DDE9D3
:1011D0000F232146504600F063F806444FF0000903
:1011E00008E009A911F80900DDE90F12904709F19B
:1011F0000109761CC145F4DBE0030CD5DDE90F23C2
:101200002146504600F04CF8064404E0DDE90F1298
:1012100030209047761C0899481E08900029F5DC7C
:1012200008E00A980A990078491C0A91DDE90F1232
:101230009047761CBBF10001ABF1010BF1DC2146BC
:101240005046DDE90F2300F019F806446D1C1BE63B
:10125000092801003031323334353637383961628C
:101260006364656600000000303132333435363750
:101270003839414243444546000000002DE9F04121
:10128000044600251E461746880404D405E0394666
:101290002020B0476D1C641EF9D52846BDE8F081BA
:1012A0002DE9F041044600251E469046C80301D5AD
:1012B000302700E02027880404D505E04146384661
:1012C000B0476D1C641EF9D52846BDE8F0810000CA
:1012D00010B5002400BF1BE01348005D1349095DF1
:1012E000884208D01048015D11A0FFF79FFD12A0B1
:1012F000FFF79CFD0EE00C48015D0DA0FFF796FD89
:1013000004F00F000F2802D10FA0FFF78FFD641C1F
:10131000FF2CE1D900BF0CA0FFF788FDFF2C02D9FC
:101320000AA0FFF783FD10BD18000020180100205F
:1013300030782530325820006E6F7420636F7272DF
:101340006563740D0A0000000D0A000054455354F3
:10135000204F4B0D0A00000007E048F2084100BF93
:101360000A1EA1F1010399B2FAD1021EA0F10103F4
:1013700098B2F2D17047000070B504460D46E1B254
:101380000548FFF74CFD00BF80210348FFF7A6FC8E
:101390000028F9D0204670BD004400404FF4E130F1
:1013A000FFF728FCFFF739F810A0FFF73FFD14A066
:1013B000FFF73CFD00F04AF84FF48072002114481A
:1013C000FEF7D6FF13A0FFF731FD17A0FFF72EFDA4
:1013D0004FF4807200211848FEF756FFFFF778FFA0
:1013E00016A0FFF723FD00BFFEE700004154323492
:1013F00043303220496E6974204F4B0D0A000000C3
:10140000444154412057726974696E673A0D0A006D
:101410001801002044415441205772697465204FDF
:101420004B3A0D0A000000004441544120526561CE
:1014300064696E673A0D0A00180000204441544167
:101440002052656164204F4B3A0D0A0010B500240C
:1014500000BF0EE00A490C550846015D09A0FFF7E0
:10146000E5FC04F00F000F2802D108A0FFF7DEFC16
:10147000641CFF2CEED905A0FFF7D8FC10BD0000BE
:101480001801002030782530325820000D0A000065
:10149000B014000800000020180000004C0E0008E6
:1014A000C814000818000020000600005C0E0008A8
:1014B000A00000000000010203040102030406076B
:0814C000080900000000000013
:040000050800019D51
:00000001FF
