:020000040800F2
:10000000180600209D010008730300086B03000818
:100010006F0300088702000837090008000000008D
:10002000000000000000000000000000A90500081A
:100030008B02000800000000ED030008990600088C
:10004000B7010008B7010008B7010008B7010008B0
:10005000B7010008B7010008B7010008B7010008A0
:10006000B7010008B7010008B7010008B701000890
:10007000B7010008B7010008B7010008B701000880
:10008000B7010008B7010008B7010008B701000870
:10009000B7010008B7010008B7010008B701000860
:1000A000B7010008B7010008B7010008B701000850
:1000B000B7010008B7010008B7010008B701000840
:1000C000B7010008B7010008B7010008B701000830
:1000D000B7010008B7010008B1070008B701000820
:1000E000B7010008B7010008B7010008B701000810
:1000F000B7010008B7010008B7010008B701000800
:10010000B7010008B7010008B7010008B7010008EF
:10011000B7010008B7010008B7010008B7010008DF
:10012000B7010008B7010008B7010008B7010008CF
:10013000B7010008B7010008B7010008B7010008BF
:10014000B7010008B7010008B7010008B7010008AF
:10015000B7010008B7010008B7010008B70100089F
:10016000B7010008B7010008B7010008B70100088F
:10017000B7010008B7010008B7010008B70100087F
:10018000B7010008B7010008DFF80CD000F04AF80A
:10019000004800470512000818060020064880475E
:1001A00006480047FEE7FEE7FEE7FEE7FEE7FEE75C
:1001B000FEE7FEE7FEE7FEE79D060008890100086E
:1001C0002DE9F05F0546002092469B46884606468C
:1001D000814640241BE0284641464746224600F01F
:1001E00042F853465A46C01A914110D31146184658
:1001F000224600F029F82D1A67EB01084F462246E7
:100200000120002100F020F817EB00094E41201ECC
:10021000A4F10104DFDC484631462A464346BDE8E6
:10022000F09F0000064C074D06E0E06840F0010337
:1002300094E8070098471034AC42F6D3FFF7A8FFC4
:100240005013000870130008202A04DB203A00FA3B
:1002500002F1002070479140C2F1200320FA03F31D
:10026000194390407047202A04DB203A21FA02F01B
:100270000021704721FA02F3D040C2F120029140E0
:1002800008431946704700BFFEE77047F0B50A46BD
:1002900000210023002400BF3DE0012505FA01F301
:1002A000156805EA03049C4234D105684F00032613
:1002B000BE40B543056015794E00B540066835432C
:1002C00005601579012D02D01579022D16D18568AA
:1002D0004F000326BE40B543856055794E00B540BA
:1002E000866835438560456801268E40B543456084
:1002F000456896798E40B6B235434560C5684F0073
:100300000326BE40B543C560D5794E00B540C668EA
:100310003543C560491C1029BFD3F0BDF0B500239B
:1003200000244D07ED0E02FA05F3CE1000F1200572
:1003300055F826504E07F70E0F26BE40B543CF1096
:1003400000F1200646F82750CE1000F1200555F8A0
:10035000265045EA0304CE1000F1200545F826405A
:10036000F0BD418370470183704700BFFEE700BFC7
:10037000FEE7704770B5002100230F22C4781CB33C
:10038000174C246804F4E064C4F5E064C4F3072166
:10039000C1F10404E3B20A4144789C40E1B284789C
:1003A000144021430C07210E0E4C0578615504784A
:1003B00004F01F050124AC4005786D11AD0005F176
:1003C000E025C5F8004109E0047804F01F05012488
:1003D000AC40054D0678761145F8264070BD00000A
:1003E0000CED00E000E400E080E100E07047000078
:1003F00029B1064A12680243044B1A6004E0034A1A
:1004000012688243014B1A60704700003038024086
:1004100029B1064A12680243044B1A6004E0034AF9
:1004200012688243014B1A60704700004038024056
:1004300029B1064A12680243044B1A6004E0034AD9
:1004400012688243014B1A60704700004438024032
:10045000F0B5002100220024022500260223324F9D
:100460003F6807F00C0121B1042905D0082937D1D4
:1004700005E02E4F076036E02D4F076033E02A4F2E
:100480003F1F3F68C7F38056274F3F1F3F6807F065
:100490003F036EB1264FB7FBF3F7DFF88CC0ACF12A
:1004A000040CDCF800C0CCF3881C07FB0CF40CE057
:1004B0001E4FB7FBF3F7DFF870C0ACF1040CDCF8AB
:1004C00000C0CCF3881C07FB0CF4174F3F1F3F689C
:1004D000C7F301477F1C7D00B4FBF5F7076002E01E
:1004E000124F076000BF00BF0F4F3F6807F0F001D9
:1004F0000909104F7A5C0768D74047600A4F3F6888
:1005000007F4E051890A0B4F7A5C4768D74087604F
:10051000054F3F6807F46041490B064F7A5C476816
:10052000D740C760F0BD0000083802400024F40046
:1005300000127A000000002021B1028842F040023F
:10054000028004E002884FF6BF731A4002807047B1
:100550000246002013890B400BB1012000E000206F
:1005600070470146888970478181704710B5002225
:10057000028802F441520B884C8823438C88234321
:10058000CC8823430C8923434C8923438C89234300
:10059000CC8923431A430280838B4FF2FF7423409C
:1005A00083830B8A038210BD704700000CB50020C6
:1005B000019000903448006840F48030324908606F
:1005C00000BF3148006800F4003000900198401CE2
:1005D0000190009818B90198B0F5A04FF1D12A48C0
:1005E000006800F4003010B10120009001E000200C
:1005F00000900098012846D123484030006840F020
:1006000080502149403108602048006840F4404053
:100610001E4908601C48083000681B490831086002
:100620000846006840F4004008600846006840F44E
:10063000A05008601648091F0860081F006840F0B5
:100640008070091F086000BF0F48006800F000704C
:100650000028F9D040F205700E4908600A480830B9
:10066000006820F003000849083108600846006867
:1006700040F00200086000BF03480830006800F046
:100680000C000828F8D10CBD003802400070004072
:1006900008544007003C02407047000010B5154860
:1006A000006840F47000134908601348006840F087
:1006B00001001149086000200F49083108600E4808
:1006C00000680E4908400C4908600D48091D086083
:1006D000081F006820F48020091F086000200649D8
:1006E0000C310860FFF762FF4FF00060014980396C
:1006F000086010BD88ED00E000380240FFFFF6FE04
:100700001030002410B588B0044601210846FFF7D8
:100710006FFE01214804FFF77BFE072202212248D9
:10072000FFF7FCFD072203211F48FFF7F7FD0C2010
:10073000069002208DF81C008DF81D0000208DF819
:100740001E0001208DF81F0006A91748FFF79EFD27
:1007500002940020ADF80C00ADF80E00ADF81000CA
:10076000ADF814000C20ADF8120002A90F4800F0FB
:100770006FF826208DF8040003208DF805008DF811
:10078000060001208DF8070001A8FFF7F3FD012204
:1007900040F22551054800F036F80121034800F0E9
:1007A00019F808B010BD00000000024000440040ED
:1007B00010B500242021064800F018F838B104488C
:1007C00000F0B0F8C4B22146014800F0B0F810BD06
:1007D0000044004021B1828942F40052828104E049
:1007E00082894DF6FF731A408281704702460020CD
:1007F000B1F5007F00D100BF13880B400BB1012081
:1008000000E000207047F0B50346002400260025D4
:10081000002040F66A17B94200D100BF1846C1F364
:10082000421401F01F06012707FA06F5012C01D139
:100830000C3004E0022C01D1103000E014301AB169
:1008400007682F43076002E00768AF430760F0BD09
:100850002DE9FF4705460E460024A14600BFA046ED
:10086000B08900B100BF2C8A24F44054F0880443BE
:100870002C82AC8941F20C608443B08831890843F2
:10088000718908430443AC81AC8A24F44074B08974
:100890000443AC826846FFF7DBFD2048854202D066
:1008A0001F48854202D1DDF80C9001E0DDF8089088
:1008B000A88900F4004040B109EBC90000EB091021
:1008C00031684900B0FBF1F707E009EBC90000EB24
:1008D000091031688900B0FBF1F76420B7FBF0F034
:1008E00004012009642101FB1078A88900F400406C
:1008F00040B1322000EBC800B0FBF1F000F007007F
:10090000044308E0322000EB08106421B0FBF1F052
:1009100000F00F0004432C81BDE8FF870010014068
:100920000014014001468888C0F308007047C1F3F5
:1009300008028280704700BFFEE7000070B50546E0
:100940000C46164601211048FFF70BFD032000F06E
:100950004BF9C4F3074000F047F9C4F3072000F057
:1009600043F9E0B200F040F904E0FF2000F03CF968
:1009700028706D1C301EA6F101018EB2F5D1012147
:100980000148FFF7F0FC70BD000802402DE9F04778
:1009900007460E4614464FF00008C146C2460025E1
:1009A00006F0FF0ACAF10000C5B2A54200DDE5B2BB
:1009B000BAF1000F08D02A463146384600F08EF8CA
:1009C0002E442F44601B84B22046E11704EB1161D2
:1009D000C1F30728E11704EB11610912A4EB01210F
:1009E00001F0FF090DE04FF480723146384600F007
:1009F00075F806F5807607F58077A8F1010000F01C
:100A0000FF08B8F1000FEEDCB9F1000F04D04A4640
:100A10003146384600F062F8BDE8F08700B587B08F
:100A200001210520FFF7E4FC01210803FFF700FD89
:100A3000E020009002208DF805008DF804000020D1
:100A40008DF806008DF8070069462148FFF71EFC67
:100A5000012000908DF8040069461E48FFF716FC3F
:100A6000052211461A48FFF759FC052206211848AD
:100A7000FFF754FC052207211548FFF74FFC012121
:100A80001448FFF770FC0020ADF808004FF48270A6
:100A9000ADF80A000020ADF80C000220ADF80E0001
:100AA0000120ADF810004002ADF812000020ADF8B2
:100AB0001400ADF816000720ADF8180002A906488A
:100AC000FFF754FD01210448FFF736FD07B000BDD4
:100AD00000000240000802400030014070B50546A9
:100AE0000C46164600F0D6F801211548FFF739FCF0
:100AF000022000F079F8C4F3074000F075F8C4F361
:100B0000072000F071F8E0B200F06EF8B6F5807FD3
:100B100004DD4FF480760BA000F0CCF803E02878D9
:100B200000F062F86D1C301EA6F101018EB2F6D104
:100B300001210348FFF717FC00F072F870BD0000B8
:100B4000000802405732355158585F506167655769
:100B50007269746520746F6F206C61726765210023
:100B60002DE9F041002701210E48FFF7FAFB9F20F5
:100B700000F03AF8FF2000F037F80546FF2000F0BB
:100B800033F80646FF2000F02FF8074601210548FC
:100B9000FFF7E9FB280440EA062040EA0704204664
:100BA000BDE8F0810008024010B5044600F072F87C
:100BB00001210C48FFF7D5FB202000F015F8C4F305
:100BC000074000F011F8C4F3072000F00DF8E0B280
:100BD00000F00AF801210348FFF7C5FB00F020F8F8
:100BE00010BD00000008024010B50446012102209B
:100BF00000F038F808B1002010BD21460748FFF783
:100C0000B3FC0121084600F02DF808B10020F3E7FD
:100C10000248FFF7A6FCC0B2EEE70000003001403A
:100C200038B500244FF48010009001210C48FFF7E4
:100C300098FB0520FFF7D8FF00BFFF20FFF7D4FF88
:100C400004460098411E009100B903E004F0010041
:100C50000028F2D100BF01210148FFF784FB38BD15
:100C60000008024038B504460D464FF4801000904D
:100C700006E00098411E009110B94FF0FF3038BDDA
:100C8000A1B20348FFF764FCA842F2D10020F6E7C6
:100C90000030014010B501210548FFF762FB062036
:100CA000FFF7A2FF01210248FFF75DFB10BD000026
:100CB000000802400FB4054B10B503A9044A02987E
:100CC00000F018F810BC5DF814FB0000E1110008FA
:100CD0001000002002E008C8121F08C1002AFAD143
:100CE00070477047002001E001C1121F002AFBD1AC
:100CF000704700002DE9FF4F8DB00F4605460026D6
:100D000006E025280BD0DDE90F1290476D1C761CFC
:100D100028780028F5D111B03046BDE8F08F0024C6
:100D2000A246A1460122EC4900E0044315F8013F28
:100D3000203B02FA03F00842F7D128782A2810D085
:100D40006FF02F022878A0F13001092914D80AEB9E
:100D50008A0102EB410144F0020400EB010A6D1C20
:100D6000F0E701CF5FEA000A03D544F40054CAF16A
:100D7000000A44F002046D1C28782E2817D115F8BB
:100D8000010F44F004042A280ED06FF02F022878B7
:100D9000A0F1300109290AD809EB890102EB4101D0
:100DA00000EB01096D1CF2E757F8049B6D1C2878D5
:100DB0006C280FD006DC4C2817D068280DD06A2884
:100DC00014D104E0742810D07A280FD10DE044F437
:100DD00000140AE044F4801401E044F440146978FB
:100DE000814202D104F580146D1C6D1C2A786E2A94
:100DF0001FD00CDC632A31D004DC002A8BD0582AA7
:100E000011D1A3E0642A68D0692A0CD165E0732A65
:100E10002ED004DC6F2A73D0702A04D19BE0752A8F
:100E20006FD0782A6ED01046DDE90F129047761CFD
:100E300050E1C4F30250022806D0032809D0042848
:100E400001CF09D0066045E101CFF117C0E900618B
:100E500040E101CF06803DE106703BE117F8040B4D
:100E60008DF8000000208DF80100EB46012003E022
:100E700057F804BB4FF0FF3061074FF0000102D478
:100E80000DE008F10101884649450FDA8045F8DB9D
:100E90001BF808100029F4D108E008F10101884688
:100EA0008142FADB1BF808100029F6D1DDE90F2397
:100EB000AAEB08008146214600F036F9304400EBE9
:100EC000080604E0DDE90F121BF8010B9047B8F1AA
:100ED0000108F7D221464846F7E00A21C4F302533D
:100EE0004FF0000B0891022B04D001CFC117032B48
:100EF00009D00AE0FF1D27F00707F7E8020108E024
:100F000032E01FE020E000B2C117042B01D140B253
:100F1000C117031E71F1000307DA4FF0000CD0EB8C
:100F20000C006CEB01012D2302E0230504D52B23DB
:100F30008DF82430012303E0E30701D02023F7E7F5
:100F4000984658E00A2110E010210EE010204FF0E2
:100F5000000B08900CE010214FF0000B44F004044B
:100F60004FF00809089103E008214FF0000B0891A9
:100F7000C4F30253022B04D001CF0021032B06D06F
:100F800006E0FF1D27F00707F7E8020103E080B243
:100F9000042B00D1C0B24FF0000823072BD5702AD4
:100FA00007D0DDF820C08CF0100C5CEA0B0C05D0EB
:100FB0000EE040238DF82430012308E050EA0103BD
:100FC00006D030238DF824308DF825200223984652
:100FD000DDF820C08CF0080C5CEA0B0C0BD150EA59
:100FE000010301D1630706D530238DF824304FF07B
:100FF0000108A9F10109582A04D038A20B9208AAC5
:101000000A920BE03AA2F9E75B46089AFFF7D8F894
:101010000B9B9B5C0A9A521E0A92137050EA0102C3
:10102000F2D10A98ADEB000000F1200B600702D569
:1010300024F4803401E04FF00109D94502DDA9EB29
:101040000B0000E0002000EB0B0141440890AAEBEC
:10105000010AE00306D4DDE90F232146504600F0E3
:1010600063F806444FF0000908E009A911F80900E7
:10107000DDE90F12904709F10109761CC145F4DB47
:10108000E0030CD5DDE90F232146504600F04CF873
:10109000064404E0DDE90F1230209047761C0899E1
:1010A000481E08900029F5DC08E00A980A990078A3
:1010B000491C0A91DDE90F129047761CBBF1000133
:1010C000ABF1010BF1DC21465046DDE90F2300F0C6
:1010D00019F806446D1C1BE6092801003031323333
:1010E0003435363738396162636465660000000064
:1010F000303132333435363738394142434445464E
:10110000000000002DE9F041044600251E46174668
:10111000880404D405E039462020B0476D1C641EC5
:10112000F9D52846BDE8F0812DE9F04104460025B7
:101130001E469046C80301D5302700E020278804CA
:1011400004D505E041463846B0476D1C641EF9D50C
:101150002846BDE8F081000010B5002400BF1BE068
:101160001348005D1349095D884208D01048015DAD
:1011700011A0FFF79FFD12A0FFF79CFD0EE00C48A9
:10118000015D0DA0FFF796FD04F00F000F2802D1BE
:101190000FA0FFF78FFD641CFF2CE1D900BF0CA04E
:1011A000FFF788FDFF2C02D90AA0FFF783FD10BDD1
:1011B000140000201401002030782530325820001F
:1011C0006E6F7420636F72726563740D0A000000A5
:1011D0000D0A000054455354204F4B0D0A000000E7
:1011E00070B504460D46E1B20548FFF7A0FB00BF0D
:1011F00080210348FFF7FAFA0028F9D0204670BD95
:101200000044004000244FF4E130FFF77BFAFFF781
:1012100005FC19A0FFF74EFDFFF7A2FC044614B928
:101220001AA0FFF747FD21461CA0FFF743FD002051
:10123000FFF7BAFC1DA0FFF73DFD21A0FFF73AFD27
:1012400000F064F84FF4807200212148FFF79EFB04
:1012500020A0FFF72FFD24A0FFF72CFD4FF4807294
:1012600000212548FFF76AFBFFF776FF23A0FFF771
:1012700021FD00BFFEE70000573235515858204984
:101280006E6974204F4B0D0A0000000052656164C6
:101290004964204552524F520D0A00005265616464
:1012A00049443A5B25585D0D0A000000536563749C
:1012B0006F724572617365204F4B0D0A000000008C
:1012C000444154412057726974696E673A0D0A00AF
:1012D0001401002044415441205772697465204F25
:1012E0004B3A0D0A00000000444154412052656110
:1012F00064696E673A0D0A001400002044415441AD
:101300002052656164204F4B3A0D0A0010B500244D
:1013100000BF0EE00A490C550846015D09A0FFF721
:10132000C9FC04F00F000F2802D108A0FFF7C2FC8F
:10133000641CFF2CEED905A0FFF7BCFC10BD00001B
:101340001401002030782530325820000D0A0000AA
:10135000701300080000002014000000D40C0008E6
:10136000841300081400002004060000E40C0008A8
:10137000000000000102030401020304060708093B
:041380000000000069
:040000050800019D51
:00000001FF
