:020000040800F2
:100000009006002029020008D9030008D103000847
:10001000D5030008E3020008F10600080000000014
:100020000000000000000000000000001D040008A7
:10003000E702000800000000DB0300080D050008CF
:10004000430200084302000843020008430200087C
:10005000430200084302000843020008430200086C
:10006000430200084302000843020008430200085C
:10007000430200084302000843020008430200084C
:10008000430200084302000843020008430200083C
:10009000430200084302000843020008430200082C
:1000A000430200084302000843020008430200081C
:1000B000430200084302000843020008430200080C
:1000C00043020008430200084302000843020008FC
:1000D00043020008430200084302000843020008EC
:1000E00043020008430200084302000843020008DC
:1000F00043020008430200084302000843020008CC
:1001000043020008430200084302000843020008BB
:1001100043020008430200084302000843020008AB
:10012000430200084302000843020008430200089B
:10013000430200084302000843020008430200088B
:10014000430200084302000843020008430200087B
:10015000430200084302000843020008430200086B
:10016000430200084302000843020008430200085B
:10017000430200084302000843020008430200084B
:10018000430200084302000800F002F800F03CF8C7
:100190000AA090E8000C82448344AAF10107DA45E2
:1001A00001D100F031F8AFF2090EBAE80F0013F0F8
:1001B000010F18BFFB1A43F001031847D0060000D7
:1001C000F0060000103A24BF78C878C1FAD8520768
:1001D00024BF30C830C144BF04680C6070470000C1
:1001E0000023002400250026103A28BF78C1FBD840
:1001F000520728BF30C148BF0B6070471FB500F0E1
:100200003FFB1FBD10B510BD00F031F81146FFF7E0
:10021000F5FF00F07FFA00F04FF803B4FFF7F2FFAC
:1002200003BC00F057F80000094880470948004720
:10023000FEE7FEE7FEE7FEE7FEE7FEE7FEE7FEE796
:10024000FEE7FEE704480549054A064B70470000F3
:100250001105000889010008900000209006002088
:10026000900200209002002070477047704775464A
:1002700000F02CF8AE4605006946534620F0070012
:10028000854618B020B5FFF7DDFFBDE820404FF0F0
:1002900000064FF000074FF000084FF0000B21F070
:1002A0000701AC46ACE8C009ACE8C009ACE8C0093D
:1002B000ACE8C0098D46704710B50446AFF3008026
:1002C0002046BDE81040FFF7A8BF00000048704777
:1002D0002C00002001491820ABBEFEE726000200DA
:1002E000704700BFFEE77047F0B50A4600210023C3
:1002F000002400BF3DE0012505FA01F3156805EA79
:1003000003049C4234D105684F000326BE40B54328
:10031000056015794E00B5400668354305601579CE
:10032000012D02D01579022D16D185684F000326C4
:10033000BE40B543856055794E00B540866835436B
:100340008560456801268E40B543456045689679CD
:100350008E40B6B235434560C5684F000326BE40A7
:10036000B543C560D5794E00B540C6683543C56014
:10037000491C1029BFD3F0BDF0B5002300244D0760
:10038000ED0E02FA05F3CE1000F1200555F82650C7
:100390004E07F70E0F26BE40B543CF1000F12006E2
:1003A00046F82750CE1000F1200555F8265045EAB2
:1003B0000304CE1000F1200545F82640F0BD0246AA
:1003C000002013690B400BB1012000E000207047B2
:1003D00000BFFEE700BFFEE77047704729B1064A3D
:1003E00012680243044B1A6004E0034A1268824315
:1003F000014B1A60704700003038024029B1064AAC
:1004000012680243044B1A6004E0034A12688243F4
:10041000014B1A60704700004038024070470000EE
:100420000CB50020019000903448006840F4803002
:100430003249086000BF3148006800F40030009085
:100440000198401C0190009818B90198B0F5A04F90
:10045000F1D12A48006800F4003010B1012000906A
:1004600001E0002000900098012846D12348403048
:10047000006840F080502149403108602048006801
:1004800040F440401E4908601C48083000681B4981
:10049000083108600846006840F4004008600846DB
:1004A000006840F4A05008601648091F0860081F43
:1004B000006840F08070091F086000BF0F480068A6
:1004C00000F000700028F9D040F205700E49086075
:1004D0000A480830006820F0030008490831086025
:1004E0000846006840F00200086000BF034808307A
:1004F000006800F00C000828F8D10CBD003802405C
:100500000070004008544007003C02407047000063
:1005100010B51548006840F470001349086013488E
:10052000006840F001001149086000200F490831BF
:1005300008600E4800680E4908400C4908600D48E4
:10054000091D0860081F006820F48020091F08604A
:10055000002006490C310860FFF762FF4FF0006091
:1005600001498039086010BD88ED00E00038024084
:10057000FFFFF6FE1030002421B1028842F0800215
:10058000028004E002884FF67F731A4002807047B1
:1005900021B1028842F00102028004E002884FF695
:1005A000FE731A400280704770B5002400220023B9
:1005B000058C4FF6EF7635400584028C8388048BDA
:1005C00048F6FF752C404FF6FF452C400D884FF63E
:1005D000FF7606EA05252C434FF6DF752A408D8904
:1005E00006EA05152A434D8806EA05152A43154DE6
:1005F000A84202D0144DA8421DD14FF67F752A4063
:10060000CD894FF6FF7606EA05152A434FF6BF75EA
:100610002A408D8806EA05152A434FF6FF352B4000
:100620004FF2FF752B400D8A06EA85052B434D8A54
:1006300006EA85052B43838004838D6885630284E5
:1006400070BD000000000140000401400A46002186
:10065000018B4FF2FF7319404FF6FF7303EA022339
:1006600019430183704781637047000000220288AC
:10067000184B98420ED0184B98420BD0B0F1804FD7
:1006800008D0164B984205D0154B984202D0154B16
:10069000984204D14FF68F731A404B881A43124B7D
:1006A000984207D0114B984204D04FF6FF431A40AE
:1006B0000B891A4302804B68C3620B880385054B84
:1006C000984202D0044B984201D18B7A03860123D1
:1006D0008382704700000140000401400004004094
:1006E00000080040000C00400010004000140040D2
:1006F00000BFFEE707E048F2084100BF0A1EA1F173
:10070000010399B2FAD1021EA0F1010398B2F2D10D
:100710007047000001210520FFF760FE01205049CD
:1007200008600020087148710120C8714D48FFF72A
:10073000DBFD4FF400504A49086000200871487101
:100740000120C8714848FFF7CFFD01210220FFF7C3
:1007500055FE01210220FFF741FE022205214348F8
:10076000FFF70AFE20203E4908600220087103209E
:100770004871002088710120C8713C48FFF7B4FD22
:1007800054203B4908800020488040F2F310486024
:10079000002008813748FFF769FF6020364908804C
:1007A00001204880022088813248FFF7FDFE0821A1
:1007B0003048FFF74BFF01212E48FFF7DDFE0121F6
:1007C0002C48FFF7E5FE40F2F3112A48FFF74BFFF4
:1007D0004FF4FA70FFF78EFF4FF496712548FFF73C
:1007E00042FF4FF4FA70FFF785FF64212148FFF7BD
:1007F0003AFF4FF4FA70FFF77DFF00211D48FFF725
:1008000032FF2BE001211748FFF7D9FD78B91B48CB
:100810000088B0F5FA7F1EDA18480088401C174996
:100820000880084601881348FFF71DFF13E04FF4C6
:1008300000510D48FFF7C3FD68B910480088002833
:1008400009DD0E480088401E0C49088008460188D2
:100850000848FFF708FF1420FFF74CFFD2E700001D
:100860000400002000000240000802400004024092
:100870000C000020000400401800002000000020B0
:100880004FF04070E1EE100A70470000AC0800081D
:10089000000000200C000000C4010008B808000897
:1008A0000C00002084060000E001000800000000A9
:0808B000000000000000000040
:040000050800018965
:00000001FF
