:020000040800F2
:10000000F00700209D010008851000087D10000801
:1000100081100008530E0008A71600080000000019
:100020000000000000000000000000002D12000889
:10003000570E000800000000011100081D13000801
:10004000B7010008B7010008B7010008B7010008B0
:10005000B7010008B7010008B7010008B7010008A0
:10006000B7010008B7010008B7010008B701000890
:10007000B7010008B7010008B7010008B701000880
:10008000B7010008B7010008B7010008B701000870
:10009000B7010008B7010008B7010008B701000860
:1000A000B7010008B7010008B7010008B701000850
:1000B000B7010008B7010008B7010008B701000840
:1000C000B7010008B7010008B7010008B701000830
:1000D000B7010008B7010008AD140008B701000817
:1000E000B7010008B7010008B7010008B701000810
:1000F000B7010008B7010008B7010008B701000800
:10010000B7010008B7010008B7010008B7010008EF
:1001100035140008B7010008B7010008B70100084E
:10012000B7010008B7010008B7010008B7010008CF
:10013000B7010008B7010008B7010008B7010008BF
:10014000B7010008B7010008B7010008B7010008AF
:10015000B7010008B7010008B7010008B70100089F
:10016000B7010008B7010008B7010008B70100088F
:10017000B7010008B7010008B7010008B70100087F
:10018000B7010008B7010008DFF80CD000F0C6FB8B
:1001900000480047412B0008F00700200648804730
:1001A00006480047FEE7FEE7FEE7FEE7FEE7FEE75C
:1001B000FEE7FEE7FEE7FEE72113000889010008DD
:1001C00040EA01039B0703D009E008C9121F08C0D9
:1001D000042AFAD203E011F8013B00F8013B521E59
:1001E000F9D27047D2B201E000F8012B491EFBD2D0
:1001F00070470022F6E710B513460A460446194632
:10020000FFF7F0FF204610BD30B50546002003463D
:1002100000E05B1C934205D2EC5CC85C201A01D163
:10022000002CF6D130BD10B508E00A4602E0A3422A
:1002300008D0521C1378002BF9D1401C0478002CF4
:10024000F3D1002010BD2DE9F04791460F468046BE
:100250000446002614F8015B2DB100F093F8006805
:10026000405DC007F6D12B2D02D02D2D18D0641E75
:100270004A463946204600F092F827B13968A14233
:1002800001D1C7F8008071054FF002040BD5404240
:10029000002803DD01F01AFA0460A007BDE8F0872A
:1002A00046F48066E4E70028F8DA01F00FFA04600B
:1002B0006FF00040F2E70EB540F2334102910021A9
:1002C000CDE900110A460B4600F022F903B000BD4B
:1002D00000F0004230F000400AD0C10D01F560711D
:1002E000C0F3160042EA0151C208400711437047AB
:1002F00000200146704730B50B4601460020202201
:10030000012409E021FA02F59D4205D303FA02F522
:10031000491B04FA02F52844151EA2F10102F1DC82
:1003200030BD2DE9F05F0546002092469B46884689
:100330000646814640241BE0284641464746224661
:1003400000F00DFB53465A46C01A914110D3114696
:100350001846224600F0F4FA2D1A67EB01084F46C2
:1003600022460120002100F0EBFA17EB00094E4174
:10037000201EA4F10104DFDC484631462A464346EC
:10038000BDE8F09F004870472030000810B50446D3
:10039000FFF7F8FF0068005D00F0010010BD2DE9D7
:1003A000F05F82460078002715468B460AF101046B
:1003B000B946302801D09DB113E014F8010B012794
:1003C000782803D0582801D045B10AE00DB1102D8E
:1003D00007D10027102514F8010B02E0082500E0E2
:1003E0000A250026B0460EE005FB080005FB06F1D5
:1003F000012701EB10461FFA80F8B6F5803F00D3C5
:10040000B94614F8010B294600F0CBFA0028EBDAC4
:10041000BBF1000F05D00FB1641E00E05446CBF8CD
:100420000040B9F1000F06D001F050F9022101603F
:10043000C81EBDE8F09F48EA0640FAE70FB4002363
:1004400000B589B00CA900910B996FF00042CB6008
:100450001E4B06931E4B07930423CDE901321D4A20
:10046000089202466B46002000F03EFB09B05DF8A2
:1004700014FB70B586B006464FF0FF300091CDE911
:100480000101002015460C4604903246694604A836
:10049000FFF7D4FF02460498211825B108B1084699
:1004A00000E020462860049800280DD0002A02DDD4
:1004B0000098884208D0081B0094CDE90104324618
:1004C000694604A8FFF7BAFF06B070BD210D000809
:1004D0003F0D00088D0300087CB50023CDE90033F3
:1004E00005466846FFF7C5FF6946284601F094F9BE
:1004F0007CBD10B5141E73F1000408DA401C41F1F4
:10050000000192185B411A4301D120F0010010BD97
:100510002DE9F04D92469B4611B1B1FA81F202E00D
:10052000B0FA80F22032904600F00AFA04460F46F4
:1005300040EA0A0041EA0B0153465A46084313D0E9
:10054000114653EA010019D0C8F14002504600F0AC
:1005500006FA05460E4650465946424600F0F0F966
:10056000084305D0012004E020463946BDE8F08D5F
:100570000020054346EAE0762C4337430A9863059A
:10058000E40AA0EB08000022FD0A44EA47540A30BE
:1005900002D500200146E9E7010510196941DDE9AE
:1005A000084500196941BDE8F04DA2E72DE9FE4F6D
:1005B000804681EA0300C00F0C46009021F0004104
:1005C00023F00045B8EB0200A94105D24046214680
:1005D00090461C460B46024623F00040104347D08D
:1005E000270DC7F30A00C3F30A510290401A019085
:1005F00040286BDAC3F3130040F4801B0098924646
:1006000020B10023D2EB030A63EB0B0B0198594690
:10061000C0F14002504600F093F906460D465046A0
:100620005946019A00F0ABF910EB08006141002433
:1006300087EA115284EAE7731A4340D0009A62B302
:10064000019A012A4FEA075215DC001B61EB0201F7
:100650004FF0004202EA0752CDE90042001C41F58A
:10066000801132462B46FFF753FF03B0BDE8F08FF1
:1006700040462146F9E7001B61EB0201001C41F5F1
:10068000801300185B412018A2F5001747EB030107
:1006900040EAD570B6196D4111E06D084FEA360693
:1006A00045EAC0754FEA0752001B61EB0201001CCE
:1006B00041F5801149084FEA300000195141324696
:1006C0002B4603B0BDE8F04FFFF713BF009801229F
:1006D00040000023D0EB020263EBE0730098214658
:1006E0004FEAE074B8EB000061EB0401E9E783F046
:1006F00000435BE781F0004158E72DE9FE4F81EAB6
:10070000030404F0004421F0004100944FF0000B7A
:1007100023F0004350EA01045ED052EA03045BD0A8
:10072000C3F30A54C1F30A552C44A4F2F3340194E0
:10073000A0FB0254C1F3130141F48011C3F313036E
:1007400043F4801301FB024400FB034E840A970A22
:1007500044EA815447EA8357A4FB076802958D0A4F
:1007600005FB07854FEA932C04FB0C542705029DDB
:100770004FEA065847EA1637B5EB08056EEB070C4B
:10078000870E920E47EA811742EA8312A7FB020105
:10079000B6EB0B0164EB00042B0D43EA0C335E183F
:1007A00044EB1C50DA465146E7FB0201C5F3130443
:1007B0004FEA0B3343EA14534FEA0432019C43EAF5
:1007C0000603A4F10C040294009CCDE900B4FFF7E9
:1007D0009FFE03B0BDE8F08F00200146F9E72DE948
:1007E000F04D81EA030404F0004B21F0004514466B
:1007F0004FF0000A23F0004150EA050220D054EAED
:1008000001021DD0C5F30A570246C5F31303C1F315
:100810001300C1F30A5640F4801543F48013A7EB8C
:100820000608101BD64608F2FD3873EB050002D30C
:1008300008F1010801E092185B41B8F1000F03DAFA
:1008400000200146BDE8F08D00204FF480110646DF
:1008500084460EE0171B73EB050705D3121B63EBF1
:10086000050306434CEA010C49084FEA3000921890
:100870005B4150EA0107EDD152EA030012D082EA4F
:10088000040083EA0501084305D0101BAB4106D2E2
:100890000122002306E000224FF0004302E06FF047
:1008A000010253101AEB06004CEB085110EB0A0042
:1008B00041EB0B01BDE8F04DFFF71BBEC1F30A523F
:1008C000C1F3130140F2FF3341F480119A4202DA7E
:1008D00000200146704740F233439A42A2F233426D
:1008E00002DC524200F03BB800F02AB830B5041EDA
:1008F00071F1000404DB4FF00044404264EB01015D
:10090000141E73F1000405DB1C464FF000435242F5
:1009100063EB0403994208BF904230BD064C074D7B
:1009200006E0E06840F0010394E8070098471034BF
:10093000AC42F6D3FFF72CFC24300008443000080A
:10094000202A04DB203A00FA02F10020704791408F
:10095000C2F1200320FA03F3194390407047202A84
:1009600004DB203A21FA02F00021704721FA02F359
:10097000D040C2F120029140084319467047202A16
:1009800006DBCB17203A41FA02F043EAE07306E0B7
:1009900041FA02F3D040C2F12002914008431946C7
:1009A00070473A2800D2303820F02002412A01D383
:1009B000A2F13700884201D34FF0FF3070470000AA
:1009C0002DE9FF4F087883B09946FF2805D0491CD0
:1009D0002D2804D00024002008E000200BE0012492
:1009E000F9E700EB800003EB4000491C0B78FF2B7C
:1009F000F7D104B1404200230293147819461D46F2
:100A00002D2C01D02B2C04D1521C2D2C13D00024C2
:100A10000294AA461478FF2C0FD00A25A3FB057870
:100A200001FB05814FF0000C03FB0C11521CE31974
:100A30004AEB0101EEE70124EAE7814453EA0100B1
:100A400002D019F5C87F06DA03980021C0E9001129
:100A500007B0BDE8F08F0025AE4E2F46DFF8B88214
:100A6000184600F07DF9CDE90001B9F1000002DA85
:100A7000C9F1000400E004460023A74A1AEB030B67
:100A800042EB045A12E0E00707D02A4633463846C4
:100A90004146FFF732FE074688462A46334610464F
:100AA0001946FFF72AFE05460E466410002CEAD1CF
:100AB000DDE90001B9F1000F5A46534606DAFFF7A7
:100AC0008EFE3A464346FFF78AFE05E0FFF715FE25
:100AD0003A464346FFF711FE029A0AB181F00041FF
:100AE000039AC2E90001B3E72DE9FF4F1F468DB01D
:100AF000D7E901464FF0FF382E2045464FF0000958
:100B00000B90B9696D1C0E988847396A82468847F0
:100B10000028F6D1BAF1FF3F0AD024F4D064002EA9
:100B200011DDBAF12B0F08D0BAF12D0F0BD102E075
:100B3000404611B08DE744F48064B9696D1C0E988D
:100B400088478246761E6946600501D52D2000E063
:100B50002B208DF8000001F1010B0DF1200809E0B8
:100B6000B9696D1C0E98884782460F9844F400744A
:100B7000761E0560002E02DDBAF1300FF0D00B9921
:100B80008A453ED144F0800406E00F99681CA9F123
:100B9000010944F400740860B9696D1C761E0E9852
:100BA000884782463028F0D02BE00B998A4505D142
:100BB000200603D444F08004761E18E0504600F06E
:100BC0000BFF08B30DF11301761E44F400748B453E
:100BD00008D2AAF130000BF8010B200607D5A9F1C5
:100BE000010003E0200602D409F101008146A005BE
:100BF00002D50F99681C0860B9696D1C0E9888476A
:100C00008246002ED1DC53E0002E51DDBAF1650F93
:100C100002D0BAF1450F4BD1A00549D5B9696D1C79
:100C200024F44074761E0E9888478246002E0CDD10
:100C30002B2804D0BAF12D0F07D144F48074B96980
:100C40006D1C0E9888478246761EE00501D52D2141
:100C500000E02B2108F8011BCDF82C8021E00DF1DC
:100C60002901761E44F4007488450CD2AAF13000A4
:100C700010F0FF0088F8000002D10B99884509D9CF
:100C800008F1010806E0E00501D5244801E042F240
:100C90000F708146B9696D1C0E98884782460F987F
:100CA0000560002E04DD504600F096FE0028D6D1E7
:100CB000F9690E988847FF208BF8000088F800003B
:100CC0000020069007904B466A4608A906A8FFF741
:100CD00077FEA00502D46FF001002AE714F0240F7C
:100CE0000AD0E00714D1DDE906123868031D3B6025
:100CF0000068C0E900120BE0DDE9060100F054F8DD
:100D00000146E00704D13868021D3A6000680160BE
:100D100028460EE7000014400000F03FF1D8FFFF26
:100D2000426842B1016811F8013B23B1521EC0E98B
:100D30000012184670470121C160881E7047426842
:100D40005AB1C368016843B983688B4205D0491E14
:100D5000521CC0E90012002070474FF0FF3070476E
:100D60000EB540F2334202920022CDE90022134632
:100D7000FFF7CEFB03B000BD30B5041E71F10004D7
:100D800004DB4FF00044404264EB0101141E73F198
:100D9000000405DB1C464FF00043524263EB0403A2
:100DA0008B4208BF824230BD01F0004330B421F0D5
:100DB000004150EA010206D00A0DA2F56072C1F3AB
:100DC0001301002A02DC30BC00207047440F44EAC3
:100DD000C104C100E01830BC00EBC25000F002B802
:100DE000002070470029A8BF7047401C490008BF79
:100DF00020F00100704710B4B0FA80FC00FA0CF04B
:100E000050EA010404BF10BC704749B1CCF1200482
:100E100021FA04F411FA0CF118BF0121214308430F
:100E2000A3EB0C01CB1D4FEA00614FEA102042BF3B
:100E3000002010BC704700EBC35010440029A4BF31
:100E400010BC7047401C490008BF20F0010010BCD6
:100E5000704700BFFEE77047F0B50A460021002347
:100E6000002400BF3DE0012505FA01F3156805EAFD
:100E700003049C4234D105684F000326BE40B543AD
:100E8000056015794E00B540066835430560157953
:100E9000012D02D01579022D16D185684F00032649
:100EA000BE40B543856055794E00B54086683543F0
:100EB0008560456801268E40B54345604568967952
:100EC0008E40B6B235434560C5684F000326BE402C
:100ED000B543C560D5794E00B540C6683543C56099
:100EE000491C1029BFD3F0BDF0B5002300244D07E5
:100EF000ED0E02FA05F3CE1000F1200555F826504C
:100F00004E07F70E0F26BE40B543CF1000F1200666
:100F100046F82750CE1000F1200555F8265045EA36
:100F20000304CE1000F1200545F82640F0BD000076
:100F300010B588B004460121042000F0E3F8012137
:100F4000C80400F0EFF84FF44060069002208DF8DE
:100F50001C0000208DF81E0001208DF81F000220CB
:100F60008DF81D0006A91E48FFF776FF08220A210A
:100F70001B48FFF7B9FF08220B211948FFF7B4FF00
:100F800002940020ADF80C00ADF80E00ADF8100092
:100F9000ADF814000C20ADF8120002A9114800F0C1
:100FA0000FFB012240F225510E4800F0E3FA012226
:100FB00040F224410B4800F0DDFA0121094800F01D
:100FC00096FA34208DF8040001208DF805008DF884
:100FD00006008DF8070001A800F056F808B010BD13
:100FE00000080240004C004070B50024002500BFFE
:100FF000154800780128FBD114A000F057FB1A49CE
:101000001AA000F053FB184C11E019A12046FFF77D
:101010000AF9044604B90BE016A12046FFF703F9CC
:10102000054605B904E0204601F0F6FA6C1CECE731
:1010300000BF4FF4FA710C48FFF7DBF800200E49AF
:1010400008800149087070BD020000203D3D3D3D13
:101050003D3D3D3D3D3D3D3D3D3D3D3D47505320AA
:10106000444154413A0D0A001C0000202573000041
:10107000240000000A0000000000002000BFFEE77E
:1010800000BFFEE77047000070B5002100230F226B
:10109000C4781CB3174C246804F4E064C4F5E0641D
:1010A000C4F30721C1F10404E3B20A4144789C402F
:1010B000E1B28478144021430C07210E0E4C0578D0
:1010C0006155047804F01F050124AC4005786D11CA
:1010D000AD0005F1E025C5F8004109E0047804F011
:1010E0001F050124AC40054D0678761145F82640D1
:1010F00070BD00000CED00E000E400E080E100E0E5
:101100007047000029B1064A12680243044B1A6076
:1011100004E0034A12688243014B1A6070470000E2
:101120003038024029B1064A12680243044B1A6063
:1011300004E0034A12688243014B1A6070470000C2
:1011400040380240F0B5002100220024022500268C
:101150000223324F3F6807F00C0121B1042905D06A
:10116000082937D105E02E4F076036E02D4F076084
:1011700033E02A4F3F1F3F68C7F38056274F3F1F7A
:101180003F6807F03F036EB1264FB7FBF3F7DFF878
:101190008CC0ACF1040CDCF800C0CCF3881C07FB5D
:1011A0000CF40CE01E4FB7FBF3F7DFF870C0ACF1A6
:1011B000040CDCF800C0CCF3881C07FB0CF4174FC0
:1011C0003F1F3F68C7F301477F1C7D00B4FBF5F765
:1011D000076002E0124F076000BF00BF0F4F3F687B
:1011E00007F0F0010909104F7A5C0768D7404760A3
:1011F0000A4F3F6807F4E051890A0B4F7A5C476851
:10120000D7408760054F3F6807F46041490B064FA0
:101210007A5C4768D740C760F0BD000008380240DC
:101220000024F40000127A00030000207047000040
:101230000CB50020019000903448006840F48030E4
:101240003249086000BF3148006800F40030009067
:101250000198401C0190009818B90198B0F5A04F72
:10126000F1D12A48006800F4003010B1012000904C
:1012700001E0002000900098012846D1234840302A
:10128000006840F0805021494031086020480068E3
:1012900040F440401E4908601C48083000681B4963
:1012A000083108600846006840F4004008600846BD
:1012B000006840F4A05008601648091F0860081F25
:1012C000006840F08070091F086000BF0F48006888
:1012D00000F000700028F9D040F205700E49086057
:1012E0000A480830006820F0030008490831086007
:1012F0000846006840F00200086000BF034808305C
:10130000006800F00C000828F8D10CBD003802403D
:101310000070004008544007003C02407047000045
:1013200010B51548006840F4700013490860134870
:10133000006840F001001149086000200F490831A1
:1013400008600E4800680E4908400C4908600D48C6
:10135000091D0860081F006820F48020091F08602C
:10136000002006490C310860FFF762FF4FF0006073
:1013700001498039086010BD88ED00E00038024066
:10138000FFFFF6FE1030002410B588B0044601219E
:101390000846FFF7B7FE01214804FFF7C3FE072206
:1013A00002212248FFF7A0FD072203211F48FFF773
:1013B0009BFD0C20069002208DF81C008DF81D006E
:1013C00000208DF81E0001208DF81F0006A9174887
:1013D000FFF742FD02940020ADF80C00ADF80E00BE
:1013E000ADF81000ADF814000C20ADF8120002A901
:1013F0000F4800F0E5F826208DF8040003208DF852
:1014000005008DF8060001208DF8070001A8FFF700
:101410003BFE012240F22551054800F0ABF80121C6
:10142000034800F064F808B010BD0000000002405E
:101430000044004010B540F22551184800F070F803
:10144000D0B117480078012800D110BD1548008898
:10145000B0F5FA7F00DBF8E7104800F01BF9C1B2E5
:1014600010480488601C0F4A10800F48015540F254
:1014700025510A4800F02CF840F22441074800F0BA
:101480004FF8012807D1054800880448001D00884E
:1014900001200349087000BFD7E70000004C00405E
:1014A00002000020000000201C00002010B50024D5
:1014B0002021064800F027F838B1044800F0EAF887
:1014C000C4B22146014800F0EAF810BD00440040D3
:1014D00010B50022002340F66A14A14200D100BFDB
:1014E0000A1201249440A3B2DC43048010BD21B150
:1014F000828942F40052828104E082894DF6FF73B2
:101500001A408281704702460020B1F5007F00D169
:1015100000BF13880B400BB1012000E00020704792
:1015200070B50246002400230025002040F66A160C
:10153000B14200D100BFC1F3421501F01F030126E3
:1015400006FA03F3012D02D19689334006E0022DFD
:1015500002D1168A334001E0968A33400C120126EC
:1015600006FA04F41688344013B10CB1012000E0EF
:10157000002070BDF0B503460024002600250020A1
:1015800040F66A17B94200D100BF1846C1F34214B1
:1015900001F01F06012707FA06F5012C01D10C30D6
:1015A00004E0022C01D1103000E014301AB10768B9
:1015B0002F43076002E00768AF430760F0BD0000FB
:1015C0002DE9FF4705460E460024A14600BFA04670
:1015D000B08900B100BF2C8A24F44054F088044341
:1015E0002C82AC8941F20C608443B0883189084375
:1015F000718908430443AC81AC8A24F44074B089F7
:101600000443AC826846FFF79DFD2048854202D026
:101610001F48854202D1DDF80C9001E0DDF808900A
:10162000A88900F4004040B109EBC90000EB0910A3
:1016300031684900B0FBF1F707E009EBC90000EBA6
:10164000091031688900B0FBF1F76420B7FBF0F0B6
:1016500004012009642101FB1078A88900F40040EE
:1016600040B1322000EBC800B0FBF1F000F0070001
:10167000044308E0322000EB08106421B0FBF1F0D5
:1016800000F00F0004432C81BDE8FF8700100140EB
:101690000014014001468888C0F308007047C1F378
:1016A00008028280704700BFFEE700000FB4054BC0
:1016B00010B503A9044A029800F096F910BC5DF831
:1016C00014FB000019210008140000200048704796
:1016D000180000200000000030B52DED048B81B013
:1016E000B0EE408AF0EE608A6A4651EC180B00F0CA
:1016F00027FD00989FED329B7E300090002821DC72
:1017000053EC192B51EC180BFFF736FB1AD00021C4
:1017100040F60800FFF764FB044651EC180BFFF796
:1017200043FB08EE100A40F6080004EA0001FFF748
:1017300057FBB5EEC08AF1EE10FA04BF022000F0AC
:1017400083F82DE00098FF2830DB00210846FFF7E2
:1017500047FB00F4400553EC192B51EC180BFFF735
:10176000C5F88CBF00240124022000F06DF89FED25
:10177000168A4DB1002C0CBF4FF400004FF48000CE
:10178000A84218BF9FED118A04210846FFF728FBE5
:10179000002C01BFB1EE480A01B0BDEC048B30BD96
:1017A000B0EE480A01B0BDEC048B30BD51EC180B13
:1017B000FFF7FAFA01B000EE100ABDEC048B30BD61
:1017C00000000000000000000000807FFFFF7F7F1E
:1017D00000B583B09FED060B0A4601468DED000B68
:1017E0006846FEF746FE9DED000B03B000BD00000D
:1017F000000000000000000008B59FED060A0A4640
:1018000001468DED000A6846FEF766FE9DED000A72
:1018100008BD00000000000010B5044691ED000B6B
:10182000FFF75AFF84ED000A10BD02E008C8121F3E
:1018300008C1002AFAD170477047002001E001C1B9
:10184000121F002AFBD17047014908607047000051
:10185000180000202DE9FF5F82B00021DDE904308F
:10186000020DDDF840B0034318D044F61050A2F248
:10187000FF3242431514119801281FD0A5EB0B002D
:10188000401C5FEA000A4FF000064E4FDFF8389127
:10189000B046504615D5CAF1000413E01198012452
:1018A0004AA3012801D16FEA0B010298119AC0E9FD
:1018B0000031C0E9024206B0BDE8F09FCBF1000064
:1018C000DFE704460021404A491842EB0450CDE9C5
:1018D000001012E0E00707D032463B46404649463A
:1018E000FEF70BFF8046894632463B4610461946B6
:1018F000FEF703FF06460F466410002CEAD1DDE92F
:101900000401DDE90023BAF1000F06DAFEF7F5FE67
:1019100042464B46FEF7F1FE05E0FEF760FF424609
:101920004B46FEF75CFF04460E460022284BFEF7AE
:10193000DDFF03D84FF0FF30014607E00022254BC2
:1019400020463146FEF732FEFEF7B8FF102409E0CC
:10195000002C0ADB0A220023FEF7E3FC039B303253
:101960001A55641E50EA0102F2D1641C039AC4F1B4
:1019700011031444119A012A03D0012208430DD106
:101980000AE0084304D000204FF0110B119072E7D9
:10199000A3EB0B056D1E0DE05B4504DD4FF000026F
:1019A00005F1010504E003DA4FF00002A5F101059D
:1019B000002AECD002981199C0E90231C0E9004533
:1019C00079E70000000014400000F03F3000000004
:1019D0000000F0430000E03F30380A2801D2012027
:1019E00070470020704700002DE9FF4F95B09B46DF
:1019F0008946064600250FE2252877D10024274690
:101A0000F84A0121059400E0044316F8013F203B09
:101A100001FA03F01042F7D130782A2811D06FF084
:101A20002F033078A0F13002092A16D8059A44F025
:101A3000020402EB820203EB42021044761C059082
:101A4000EFE759F8042B0592002A03DA504244F4D8
:101A50000054059044F00204761C30782E2816D1EC
:101A600016F8010F44F004042A280DD06FF02F025D
:101A70003078A0F13003092B09D807EB870302EB7C
:101A80004303C718761CF3E759F8047B761C3078BB
:101A90006C280FD006DC4C2817D068280DD06A2897
:101AA00014D104E0742810D07A280FD10DE044F44A
:101AB00000140AE044F4801401E044F44014727805
:101AC000824202D104F58014761C761C3078662898
:101AD0000BD013DC582877D009DC002875D04528B6
:101AE000F6D04628F4D047281AD19DE118E06328A3
:101AF00035D0642879D0652812D195E1702873D04B
:101B000008DC6728F1D069286FD06E280DD06F28C7
:101B100006D1B5E073282CD0752875D0782874D0FC
:101B20005A46179990476D1C75E1C4F3025002287C
:101B300009D003280DD0D9F8001004280DD00D606D
:101B400009F1040967E1D9F80010EA17C1E9005268
:101B5000F6E7D9F800100D80F2E70D70F0E719F8FC
:101B6000041B8DF8001000208DF80100EA460120CA
:101B700003E059F804AB4FF0FF3061074FF000016C
:101B800002D40DE008F101018846B9420FDA804520
:101B9000F8DB1AF808100029F4D108E008F1010177
:101BA00088468142FADB1AF808100029F6D1059818
:101BB0005B46A0EB080721463846179A00F094FAD6
:101BC000284400EB080507E04DE029E10DE01AF894
:101BD000010B5A4617999047B8F10108F7D25B46B6
:101BE00021463846179A13E142E00A220092C4F3D4
:101BF00002524FF0000A022A08D059F804CB032AF7
:101C00004FEAEC710AD00DE029E02AE009F1070162
:101C100021F00702F2E802C1914609E00FFA8CFCBC
:101C20004FEAEC71042A03D14FFA8CFC4FEAEC71B5
:101C3000002907DA0A460021DCF1000C61EB020101
:101C40002D2202E0220504D52B228DF8042001224A
:101C500003E0E20701D02022F7E7904659E00A218D
:101C600002E010220DE010214FF0000A00910BE07D
:101C700010224FF0000A44F004040827009203E009
:101C800008224FF0000A0092C4F30252022A05D043
:101C900059F804CB0021032A08D009E009F1070113
:101CA00021F00702F2E802C1914605E01FFA8CFC20
:101CB000042A01D10CF0FF0C4FF00008220728D5B0
:101CC000702806D0009B83F0100353EA0A0305D066
:101CD0000EE040228DF80420012208E05CEA0102B7
:101CE00006D030228DF804208DF80500022290469F
:101CF000009B83F0080353EA0A030AD15CEA01025D
:101D000001D1620705D530228DF804204FF001087B
:101D10007F1E582804D034A003900EA802900DE036
:101D200036A0F9E753466046009AFEF7FAFA844671
:101D30000398825C0298401E029002705CEA0100E7
:101D4000F0D1029806A9081A00F1200A600702D50E
:101D500024F4803400E00127574502DDA7EB0A0098
:101D600000E0002000EB0A01009005984144401A71
:101D70000590E00306D45B462146179A059800F0CB
:101D8000B3F90544002706E001A85A46C05D17993B
:101D900090476D1C7F1C4745F6DBE0030CD55B4686
:101DA0002146179A059800F09FF9054404E0302079
:101DB0005A46179990476D1C0099481E00900029BB
:101DC000F5DC08E0029802995A460078491C029115
:101DD000179990476D1CBAF10001AAF1010AF1DCD4
:101DE00065E10000092801003031323334353637DF
:101DF0003839616263646566000000003031323357
:101E000034353637383941424344454600000000F6
:101E100000F058F90544761C307800287FF4ECADCA
:101E200019B02846BDE8F08F620700D4062709F1F3
:101E3000070222F0070CFCE80223E14603F0004809
:101E40005FEA080C02D00FF2702C0DE05FEA045C30
:101E500002D50FF2682C07E05FEAC47C02D00FF2D3
:101E6000602C01E0AFF2700C4FF0FF3823F000431C
:101E7000CDF850C065280CD006DC452809D046288E
:101E80001DD047283DD13DE0662818D067287ED177
:101E900038E00021112F01DB112000E0781CCDE992
:101EA000000106A90EA8FFF7D5FCDDE90F010E9A87
:101EB00003910021009207F1010A04914DE04FF0D7
:101EC00000400097CDE9011006A90EA8FFF7C2FC5B
:101ED000DDE90F0203920E9B11990022DDF80CA0A0
:101EE0000093049211B9791C00EB010AB7EB0A00C8
:101EF00004D4C0F1FF3007F1010A0490AAEB0700F7
:101F0000019044E0012F00DA01270021112F01DDAB
:101F1000112000E03846CDE9000106A90EA8FFF720
:101F200099FCDDE90F010E9A0391002104910092C2
:101F3000BA4621070CD40399514500DA8A46BAF112
:101F4000010F05DD009AAAF10101515C302908D08A
:101F5000B84202DA10F1040F06DA0121CDE90110CE
:101F600015E0AAF10101E9E7002805DC0499014424
:101F70000491AAEB000102E0411C514500DD8A46B4
:101F80000499401A401C01904FF000400290200735
:101F900004D40198504501DBCDF8048000208DF871
:101FA0004F0002980DF14F07B0F1004F25D02B20C4
:101FB0000E9002984FF0020800280CDA404202907E
:101FC0002D200E9007E00A210298FEF794F9303197
:101FD000029007F8011DB8F10001A8F10108F2DC38
:101FE00002980028EFD1791E0E980870307800F022
:101FF000200040F0450007F8020D12A8C01B00F1B8
:1020000007081498007800B1012000EB0A0101983C
:1020100001EBE07105984144401A401E0590E00331
:1020200006D45B462146179A059800F05DF80544F2
:102030001498007818B15A46179990476D1CE00320
:1020400024D55B462146179A059800F04DF80544C3
:102050001CE00498002807DBDDE90301884203DD6A
:102060000098405C179901E0179930205A46904734
:10207000049805F10105401C04900198401E019050
:1020800004D12E205A46179990476D1CBAF10001D1
:10209000AAF1010ADDDC05E017F8010B5A46179991
:1020A00090476D1CB8F10001A8F10108F4DC5B4613
:1020B0002146179A0598ABE62D0000002B00000082
:1020C000200000002DE9F041044600251E46174679
:1020D000880404D405E039462020B0476D1C641EF6
:1020E000F9D52846BDE8F0812DE9F04104460025E8
:1020F0001E469046C80301D5302700E020278804FB
:1021000004D505E041463846B0476D1C641EF9D53C
:102110002846BDE8F081000070B504460D46E1B2E6
:102120000548FFF7BCFA00BF80210348FFF7EBF931
:102130000028F9D0204670BD004400400000000097
:1021400010B582B01446CDE900010023009A236047
:10215000194B21F0004098422ADA024328D0B0F50A
:10216000801FA8BF226810DA9FED150B53EC102BCF
:102170009DED000B51EC100BFEF7BFFACDE900010D
:102180006FF0350221F0004022600F4B6FF31E51BB
:1021900003EB20501044206041F0FF5040F000500D
:1021A00001909DED000B00BF02B051EC100B10BD73
:1021B0009DED000BF8E700000000F07F000000003C
:1021C000000000000000504302FCFFFF2DE9F04733
:1021D0000446884600250026002714B1B8F1000FF8
:1021E00001D1BDE8F087454650212046FEF701F8B1
:1021F0008CE049A12846FEF716F80646AE4203D108
:10220000751C781CC7B281E036B944A12846FEF798
:102210000AF8064606B97CE00F2F71D2DFE807F016
:102220007008131A1D242830384551525E5F67002C
:1022300039A12846FDF7F7FF0646721B29462046BE
:10224000FDF7BEFF5DE000212846FFF7C1FA84EDEF
:10225000040B56E02878207653E000212846FFF74B
:10226000B7FA84ED080B4CE0287884F8280048E0A1
:102270000A2200212846FDF7E6FF84F8290040E005
:102280000A2200212846FDF7DEFF84F82A0038E004
:102290000A2200212846FDF7D6FF00F0FF09484634
:1022A000FEF709F8C4E90C012BE000212846FFF7EE
:1022B000A3FA10EE109A4846FEF70AF8C4E90E0198
:1022C0001FE01EE000212846FFF796FA10EE109A54
:1022D0004846FDF7FDFFC4E9100112E011E00A22B3
:1022E00000212846FDF7AFFF84F8480009E00A22E4
:1022F00000212846FDF7A7FFA4F84A0001E0FFE708
:1023000000BF00BF751C781CC7B200BF002D7FF452
:1023100070AF00BF00BF64E72C0000002A0000007F
:1023200010B504462CA0FFF7C1F9214631A0FFF7F4
:10233000BDF9103494ED001BB0EE410AF0EE610AD5
:1023400053EC102B2EA0FFF7B1F9217A2FA0FFF745
:10235000ADF994ED041BB0EE410AF0EE610A53ECC6
:10236000102B2EA0FFF7A2F9217E2FA0FFF79EF9D8
:10237000617E31A0FFF79AF9A17E33A0FFF796F9AD
:1023800094ED081BB0EE410AF0EE610A53EC102BFD
:1023900030A0FFF78BF994ED0A1BB0EE410AF0EE86
:1023A000610A53EC102B2EA0FFF780F994ED0C1B63
:1023B000B0EE410AF0EE610A53EC102B2BA0FFF7B0
:1023C00075F994F838102EA0FFF770F9618F103C62
:1023D0002EA0FFF76BF910BD3D3D3D3D3D3D3D3D20
:1023E0003D3D3D3D3D3D3D3D4747412044415441FC
:1023F0003A0D0A007574633A25730D0A0000000057
:102400006C61743A256C660D0A0000006C61745FA3
:102410006469723A25630D0A000000006C6F6E3A21
:10242000256C660D0A0000006C6F6E5F6469723A7D
:1024300025630D0A000000007175616C6974793ABA
:1024400025750D0A00000000736174733A25750D3F
:102450000A00000068646F703A256C660D0A00007F
:10246000616C743A256C660D0A000000756E647527
:102470006C6174696F6E3A256C660D0A000000008D
:102480006167653A25750D0A0000000073746E5F80
:1024900049443A25750D0A002DE9F0410446884665
:1024A00000250026002714B1B8F1000F01D1BDE8C6
:1024B000F081454628212046FDF79BFE3FE022A102
:1024C0002846FDF7B0FE0646AE4203D1751C781CC7
:1024D000C7B234E036B91DA12846FDF7A4FE064672
:1024E00006B92EE0072F24D2DFE807F023040B0EF5
:1024F00015181F0000212846FFF76AF984ED000B2C
:1025000018E02878207215E000212846FFF760F9CE
:1025100084ED040B0EE0287820760BE0721B294630
:1025200004F11900FDF74CFE04E0287884F824003B
:1025300000E000BF00BF751C781CC7B200BF002DB3
:10254000BDD100BF00BFB2E72C0000002A00000090
:1025500010B5044615A0FFF7A9F894ED001BB0EEE6
:10256000410AF0EE610A53EC102B17A0FFF79EF81A
:10257000217A18A0FFF79AF894ED041BB0EE410AF7
:10258000F0EE610A53EC102B16A0FFF78FF8217EB6
:1025900017A0FFF78BF804F1190119A0FFF786F8CF
:1025A00094F8241019A0FFF781F810BD3D3D3D3D82
:1025B0003D3D3D3D3D3D3D3D3D3D3D3D474C4C2040
:1025C000444154413A0D0A006C61743A256C660D21
:1025D0000A0000006C61745F6469723A25630D0A39
:1025E000000000006C6F6E3A256C660D0A0000005A
:1025F0006C6F6E5F6469723A25630D0A000000001B
:102600007574633A25730D0A0000000073746174D9
:1026100075733A25630D0A0010B5044604B910BD60
:1026200006222AA12046FDF7EFFD38B921462948A8
:10263000FFF7CCFD2748FFF773FEF0E7062226A13F
:102640002046FDF7E1FD38B92146254800F084FA1F
:10265000234800F007FBE2E7062222A12046FDF70F
:10266000D3FD38B921462148FFF716FF1F48FFF771
:102670006FFFD4E706221EA12046FDF7C5FD38B93D
:1026800021461D4800F046F81B4800F0B7F8C6E7A1
:1026900006221AA12046FDF7B7FD38B92146194890
:1026A00000F028F9174800F0C1F9B8E7062216A192
:1026B0002046FDF7A9FD38B92146154800F0A2FBD8
:1026C000134800F0FDFBAAE700BFA8E724474E47E8
:1026D000474100001002002024474E524D430000A5
:1026E0006002002024474E474C4C0000B8020020F6
:1026F00024474E4753410000E00200202447504742
:10270000535600001003002024474E565447000043
:10271000C80300202DE9F041044688460026002722
:10272000002514B1B8F1000F01D1BDE8F081464693
:1027300030212046FDF75DFD57E02EA13046FDF724
:1027400072FD0746B74203D17E1C681CC5B24CE03F
:1027500037B929A13046FDF766FD074607B946E0BF
:10276000102D19D006DC012D09D0022D0AD00F2D15
:1027700028D10AE0112D16D0122D23D11AE030787D
:10278000207020E0307860701DE000213046FFF7B7
:102790001FF884ED040B16E000213046FFF718F80F
:1027A00084ED060B0FE000213046FFF711F884EDB1
:1027B000080B00BF0A2200213046FDF744FD84F8D3
:1027C000280000BF00BF00BF032D0ADB0E2D08DC70
:1027D0000A2200213046FDF736FDC2B2E81EA11CD8
:1027E0000A547E1C681CC5B200BF002EA5D100BFD4
:1027F00000BF9AE72C0000002A00000070B50446D4
:1028000000251EA0FEF752FF217823A0FEF74EFF01
:10281000617825A0FEF74AFF00BF06E0A01C425DDC
:10282000294625A0FEF742FF6D1C0C2DF6DB94ED2A
:10283000041BB0EE410AF0EE610A53EC102B21A00C
:10284000FEF734FF94ED061BB0EE410AF0EE610A8C
:1028500053EC102B1EA0FEF729FF94ED081BB0EEE1
:10286000410AF0EE610A53EC102B1CA0FEF71EFF8C
:1028700094F828101CA0FEF719FF70BD3D3D3D3DAA
:102880003D3D3D3D3D3D3D3D3D3D3D3D4753412071
:10289000444154413A0D0A006D6F64655F4D413A01
:1028A00025750D0A000000006D6F64655F313233DD
:1028B0003A25750D0A00000070726E25643A257580
:1028C0000D0A000070646F703A256C660D0A0000F6
:1028D00068646F703A256C660D0A000076646F704C
:1028E0003A256C660D0A000073797369643A2575A0
:1028F0000D0A00002DE9F047044688464FF0000914
:1029000000270025AA46002614B1B8F1000F01D116
:10291000BDE8F087C1467DE042A14846FDF783FC53
:1029200007464F4504D107F10109681CC5B271E0A3
:102930005FB93DA14846FDF776FC07460A22002113
:102940004846FDF780FCE07068E0042D0ADB607803
:10295000401E0AEB8000C6B2A078B04202DCA0782C
:10296000401EC6B2082D4ED2DFE805F04D040B1212
:102970001924303C0A2200214846FDF764FC2070EF
:1029800042E00A2200214846FDF75DFC60703BE012
:102990000A2200214846FDF756FCA07034E00A22C6
:1029A00000214846FDF74FFCC1B206EB8602201D10
:1029B000815429E00A2200214846FDF744FCC1B2B7
:1029C00006EB8602201D104441701DE00A22002102
:1029D0004846FDF738FC81B206EB8602201D104404
:1029E000418011E00A2200214846FDF72CFCC1B2CB
:1029F00006EB8602201D1044017103250AF1010037
:102A000000F0FF0A00E000BF00BF07F10109681CE9
:102A1000C5B200BFB9F1000F7FF47EAF00BF00BFA9
:102A200076E700002C0000002A00000070B5044684
:102A300000251EA0FEF73AFE217823A0FEF736FE01
:102A4000617824A0FEF732FEA17825A0FEF72EFEC5
:102A500000BF23E0294625A0FEF728FE05EB8502EE
:102A6000201D815C26A0FEF721FE05EB8502201DBE
:102A70001044417825A0FEF719FE05EB8502201DC4
:102A80001044418824A0FEF711FE05EB8502201DAD
:102A90001044017924A0FEF709FE6D1CA078A8421D
:102AA000D8DCE17823A0FEF701FE70BD3D3D3D3D41
:102AB0003D3D3D3D3D3D3D3D3D3D3D3D475356202A
:102AC000444154413A0D0A006D7367733A25750D00
:102AD0000A0000006D73673A25750D0A00000000BA
:102AE000736174733A25750D0A0000002D2D2D2D8C
:102AF0002D2D2D2D2D2D2D7361743A2564720A0014
:102B000070726E3A25750D0A00000000656C6576DE
:102B10003A25750D0A000000617A696D7574683A8E
:102B200025750D0A00000000534E523A25750D0A16
:102B30000000000073797369643A25750D0A00007E
:102B40004FF4E130FEF720FC4FF41650FEF7F0F999
:102B500001E0FEF749FAFCE72DE9F041044688461A
:102B600000250026002714B1B8F1000F01D1BDE8FF
:102B7000F081454658212046FDF73BFB69E037A12F
:102B80002846FDF750FB0646AE4203D1751C781C63
:102B9000C7B25EE036B932A12846FDF744FB0646CF
:102BA00006B958E00E2F4ED2DFE807F04D070D10A2
:102BB000171A21252C333A414549721B29462046D4
:102BC000FDF7FEFA40E02878E0723DE0002128465B
:102BD000FEF7FEFD84ED040B36E02878207633E026
:102BE00000212846FEF7F4FD84ED080B2CE0287840
:102BF00084F8280028E000212846FEF7E9FD84ED4E
:102C00000C0B21E000212846FEF7E2FD84ED0E0BBF
:102C10001AE0721B294604F14000FDF7D1FA13E0D7
:102C200000212846FEF7D4FD84ED120B0CE0287835
:102C300084F8500008E0287884F8510004E02878EF
:102C400084F8520000E000BF00BF751C781CC7B2BA
:102C500000BF002D93D100BF00BF88E72C0000000B
:102C60002A00000010B504462FA0FEF71FFD2146E4
:102C700034A0FEF71BFDE17A35A0FEF717FD94EDB9
:102C8000041BB0EE410AF0EE610A53EC102B33A0A6
:102C9000FEF70CFD217E34A0FEF708FD94ED081B25
:102CA000B0EE410AF0EE610A53EC102B32A0FEF7B1
:102CB000FDFC94F8281033A0FEF7F8FC94ED0C1BF3
:102CC000B0EE410AF0EE610A53EC102B31A0FEF792
:102CD000EDFC94ED0E1BB0EE410AF0EE610A53ECF0
:102CE000102B30A0FEF7E2FC04F1400132A0FEF709
:102CF000DDFC483494ED001BB0EE410AF0EE610AB1
:102D000053EC102B2FA0FEF7D1FC217A31A0FEF757
:102D1000CDFC617A34A0FEF7C9FCA17A483C35A00D
:102D2000FEF7C4FC10BD00003D3D3D3D3D3D3D3D39
:102D30003D3D3D3D3D3D3D3D524D4320444154418F
:102D40003A0D0A007574633A25730D0A00000000FD
:102D50007374617475733A25750D0A006C61743A69
:102D6000256C660D0A0000006C61745F6469723A3C
:102D700025630D0A000000006C6F6E3A256C660D2D
:102D80000A0000006C6F6E5F6469723A25630D0A79
:102D90000000000073706565645F4B6E3A256C66D9
:102DA0000D0A0000747261636B5F747275653A2579
:102DB0006C660D0A00000000646174653A25730DAD
:102DC0000A0000006D61675F6469723A256C660DE8
:102DD0000A0000006D61675F7661725F6469723A34
:102DE00025750D0A000000006D6F64653A25630DBE
:102DF0000A0000006E61765F7374617475733A2522
:102E0000630D0A002DE9F04104468846002600259E
:102E1000002714B1B8F1000F01D1BDE8F08146469A
:102E200028212046FDF7E5F941E023A13046FDF7D2
:102E3000FAF90546B54203D16E1C781CC7B236E0DC
:102E400035B91EA13046FDF7EEF9054605B930E06B
:102E50000A2F26D2DFE807F02505250C2513251AB1
:102E6000252100213046FEF7B3FC84ED000B19E06C
:102E700000213046FEF7ACFC84ED020B12E000218D
:102E80003046FEF7A5FC84ED040B0BE00021304634
:102E9000FEF79EFC84ED060B04E0307884F82000F9
:102EA00000E000BF00BF6E1C781CC7B200BF002E40
:102EB000BBD100BF00BFB0E72C0000002A0000001B
:102EC00010B504461AA0FEF7F1FB94ED001BB0EE1E
:102ED000410AF0EE610A53EC102B1CA0FEF7E6FB52
:102EE00094ED021BB0EE410AF0EE610A53EC102B98
:102EF0001BA0FEF7DBFB94ED041BB0EE410AF0EEE5
:102F0000610A53EC102B1AA0FEF7D0FB94ED061BC0
:102F1000B0EE410AF0EE610A53EC102B18A0FEF758
:102F2000C5FB94F820101AA0FEF7C0FB10BD0000EE
:102F30003D3D3D3D3D3D3D3D3D3D3D3D3D3D3D3DC1
:102F400056544720444154413A0D0A00747261635B
:102F50006B5F747275653A256C660D0A000000009F
:102F6000747261636B5F6D61673A256C660D0A0070
:102F700073706565645F4B6E3A256C660D0A0000E0
:102F800073706565645F4B6D3A256C660D0A0000D1
:102F90006D6F64653A25630D0A00000000404040F3
:102FA000404040404040414141414140404040401C
:102FB00040404040404040404040404040050202C8
:102FC0000202020202020202020202020220202087
:102FD00020202020202020020202020202029090E3
:102FE00090909090101010101010101010101010E1
:102FF0001010101010101010020202020202888835
:103000008888888808080808080808080808080840
:103010000808080808080808020202024000000028
:103020009D2F000844300008000000201C00000014
:103030002A180008603000081C000020D407000097
:103040003A1800080000000000000001020304011B
:103050000203040607080900000000000000000049
:040000050800019D51
:00000001FF
