:020000040800F2
:10000000A007002031020008C907000827070008E0
:10001000C507000889060008FD1000080000000060
:10002000000000000000000000000000A10F000818
:100030008D06000800000000950A000891100008D5
:100040004B0200084B0200084B0200084B0200085C
:100050004B0200084B0200084B0200084B0200084C
:100060004B0200084B0200084B0200084B0200083C
:100070004B0200084B0200084B0200084B0200082C
:100080004B0200084B0200084B0200084B0200081C
:100090004B0200084B0200084B0200084B0200080C
:1000A0004B0200084B0200084B0200084B020008FC
:1000B0004B0200084B0200084B0200084B020008EC
:1000C0004B0200084B0200084B0200084B020008DC
:1000D0004B0200084B0200084B0200084B020008CC
:1000E0004B0200084B0200084B0200084B020008BC
:1000F0004B0200084B0200084B0200084B020008AC
:100100004B0200084B0200084B0200084B0200089B
:100110004B0200084B0200084B0200084B0200088B
:100120004B0200084B0200084B0200084B0200087B
:100130004B0200084B0200084B0200084B0200086B
:100140004B0200084B0200084B0200084B0200085B
:100150004B0200084B0200084B0200084B0200084B
:100160004B0200084B0200084B0200084B0200083B
:100170004B0200084B0200084B0200084B0200082B
:100180004B0200084B02000800F002F800F041F8B2
:100190000AA090E8000C82448344AAF10107DA45E2
:1001A00001D100F036F8AFF2090EBAE80F0013F0F3
:1001B000010F18BFFB1A43F0010318477419000020
:1001C00094190000103A24BF78C878C1FAD85207B1
:1001D00024BF30C830C144BF04680C6070470000C1
:1001E0000023002400250026103A28BF78C1FBD840
:1001F000520728BF30C148BF0B607047642900F028
:100200007380002070471FB501F078F81FBD10B54E
:1002100010BD00F0BAF91146FFF7F5FF00F0F6FF48
:1002200000F0D8F903B4FFF7F2FF03BC00F0E0F9E7
:100230000948804709480047FEE7FEE7FEE7FEE77A
:10024000FEE7FEE7FEE7FEE7FEE7FEE704480549B6
:10025000054A064B70470000951000088901000808
:10026000A0010020A0070020A0030020A003002080
:100270000FB41CB5074B06AA7B446946009005984D
:1002800000F06BF90020694600F07AF91CBC5DF8BB
:1002900014FB00000503000070B504468569006882
:1002A000C10601D5302600E02026C00707D070BD6A
:1002B000D4E9012130469047206A401C20626D1E1F
:1002C000F6D570BD70B5044685690078C00707D1C2
:1002D00070BDD4E9012120209047206A401C206293
:1002E0006D1EF6D570BD00002DE9F04106460024D4
:1002F00010687529314616A510D0AFF3008000288C
:1003000002DA404213A507E031688A0701D512A539
:1003100002E0490704D511A5012401E0AFF30080F4
:1003200000210A2206F1240709E0B0FBF2FCB0FB31
:10033000F2F302FB1C00303078541846491C0028A8
:10034000F3D123462A463046BDE8F04100F0A7B875
:10035000000000002D0000002B0000002000000025
:100360002DE9F05F894604464FF0000ADFF824B11A
:10037000FB44C0F820A02046E168884700287DD0D3
:10038000252806D0D4E901219047206A401C20622C
:10039000F1E700255F462046E168884720280646A9
:1003A00007DB312E05D2B81910F8200C08B105432F
:1003B000F1E7A80701D525F00405C4F81CA0002723
:1003C000C4F818A02A2E09D0304600F0FBFE38B33E
:1003D00004EB8708303EC8F8186019E059F8041B90
:1003E000204604EB87029161E1688847012F0646A9
:1003F00018D1E069002820DA25F020051DE0D8F8A2
:10040000180000EB800006EB40003038C8F81800F8
:100410002046E1688847064600F0D4FE0028EED169
:10042000012F0AD02E2E08D12046E16888477F1C74
:100430000646022F45F02005C4DBA069002803DA38
:10044000404245F00105A061E80701D025F0100504
:10045000A6B1A6F14100192802D8203645F400655E
:100460004A463146204625604D46FFF7C7FE60B13B
:10047000012807D0ED1D25F0070000E007E000F19E
:10048000080978E705F1040975E730467AE7206A3C
:10049000BDE8F09FAA1700007047704770472DE92C
:1004A000F0470D4699469246044600F1240801683B
:1004B000880604D5E06921F01001216000E00120E8
:1004C000A84201DD471B00E00027A1697A1902EB71
:1004D0000900081AA0612078C00602D42046FFF760
:1004E000DBFE002608E0D4E901211AF80600904757
:1004F000206A401C761C20624E45F4DB2078C00642
:100500000AD52046FFF7C8FE06E0D4E901213020D5
:100510009047206A401C2062381EA7F10107F4DCD6
:1005200007E0D4E9012118F805009047206A401C33
:100530002062281EA5F10105F3DC2046FFF7C2FE6C
:100540002078000602D50220BDE8F0870120FBE7F5
:1005500001694A1C02610878704700B58FB0CDE987
:1005600001310021059105497944CDE90310114677
:100570006846FFF7F5FE0FB000BD0000E5FFFFFF86
:100580000A6802F8010B0A607047754600F02CF803
:10059000AE4605006946534620F00700854618B070
:1005A00020B5FFF753FEBDE820404FF000064FF0A6
:1005B00000074FF000084FF0000B21F00701AC4698
:1005C000ACE8C009ACE8C009ACE8C009ACE8C009B7
:1005D0008D46704710B50446AFF300802046BDE855
:1005E0001040FFF71FBE0000004870473C0100208C
:1005F00001491820ABBEFEE72600020070473EB559
:1006000041F6FF740121080700F056FA012000F0BE
:100610003BFA002000F086FB45F25001884231D0C1
:10062000012000F079FA04E0601C84B20A2000F096
:10063000D0FD412000F050FA0028F5D00CB901207F
:100640003EBD4FF4807000F083FA012000F07AFA8A
:100650007F200190FF20029000200090684600F06B
:100660002FFB00231A4619460D2000F049FC0323F6
:100670000F220C21152000F031FC45F25001002022
:1006800000F080FC0020DBE700BFFEE77047F0B51C
:100690000A4600210023002400BF3DE0012505FAA1
:1006A00001F3156805EA03049C4234D105684F0044
:1006B0000326BE40B543056015794E00B540066877
:1006C000354305601579012D02D01579022D16D11B
:1006D00085684F000326BE40B543856055794E00BE
:1006E000B540866835438560456801268E40B54330
:1006F0004560456896798E40B6B235434560C56819
:100700004F000326BE40B543C560D5794E00B540C5
:10071000C6683543C560491C1029BFD3F0BD41836D
:1007200070470183704700BFFEE7000010B540210D
:100730000D48FFF7F6FF012000F05AFD80210A481E
:10074000FFF7EFFF012000F053FD80210648FFF77F
:10075000E6FF012000F04CFD40210348FFF7DFFFDA
:10076000012000F045FD10BD0004024010B54021FD
:100770000A48FFF7D6FF012000F03AFD8021074824
:10078000FFF7CDFF012000F033FD80210348FFF784
:10079000C8FF012000F02CFD10BD00000004024045
:1007A00010B540210648FFF7BCFF012000F020FDF6
:1007B00040210348FFF7B3FF012000F019FD10BDF1
:1007C0000004024000BFFEE7704770B5002418E047
:1007D00004F1B000002100F04AF90021084600F0C1
:1007E00046F90021102000F042F9002505E0012122
:1007F000002000F03CF9681CC5B2802DF7DB601CBE
:10080000C4B2082CE4DB70BD1CB50121022000F04D
:1008100043F9C020009001208DF8040000208DF8DD
:10082000060003208DF8050000208DF807006946BA
:100830003248FFF72CFFC82000F0DAFC0021AE2080
:1008400000F015F90021402000F011F90021B0203E
:1008500000F00DF90021C82000F009F900218120E5
:1008600000F005F90021FF2000F001F90021A1208E
:1008700000F0FDF80021A62000F0F9F80021A820E2
:1008800000F0F5F800211F2000F0F1F80021D3203E
:1008900000F0EDF80021084600F0E9F80021D5202D
:1008A00000F0E5F80021F02000F0E1F80021D92067
:1008B00000F0DDF80021222000F0D9F80021DA2034
:1008C00000F0D5F80021022000F0D1F80021DB2053
:1008D00000F0CDF80021492000F0C9F800218D205A
:1008E00000F0C5F80021142000F0C1F80021AF206D
:1008F00000F0BDF8FFF769FF1CBD000000040240D6
:1009000070B504460D4605F1B000002100F0AFF8C7
:10091000102141EA1410002100F0A9F804F00F00A2
:10092000002100F0A4F870BD2DE9F04180460E468C
:100930001546002731464046FFF7E2FF00240AE053
:10094000124A02EB8511085D012100F090F8781C35
:10095000C7B2601CC4B2102CF2DB701CC1B240469E
:10096000FFF7CEFF00240CE06900491C074A02EBA8
:100970004111085D012100F07AF8781CC7B2601CB3
:10098000C4B2102CF0DBBDE8F081000000000020B4
:100990002DE9F04707460E4690469946002500246B
:1009A000A8F12000C5B27F2F02DD0027B01CC6B21F
:1009B000B9F1100F24D131463846FFF7A1FF0024CA
:1009C00008E004EB0511194A505C012100F04FF8D2
:1009D000601CC4B2082CF4DB701CC1B23846FFF7AF
:1009E0008FFF002409E004EB051108310F4A505C29
:1009F000012100F03CF8601CC4B2082CF3DB12E0CB
:100A000031463846FFF77CFF00240AE005EB45013C
:100A1000074A02EB4101085D012100F028F8601C43
:100A2000C4B2062CF2DBBDE8F08700002E150008EA
:100A3000061300082DE9F04104460F461546984676
:100A400000260FE0AA5D434639462046FFF7A0FF87
:100A500004F10800C4B2782C02DD0024B81CC7B22F
:100A6000701CC6B2A85D0028ECD1BDE8F08170B55D
:100A700004460D461DB1E0B200F08EFB02E0E0B28C
:100A800000F074FB70BD000001490862704700006F
:100A900000000E427047000029B1064A1268024366
:100AA000044B1A6004E0034A12688243014B1A6047
:100AB000704700003038024029B1064A12680243EC
:100AC000044B1A6004E0034A12688243014B1A6027
:100AD000704700004038024010B501460022002354
:100AE00000204A11012A02D10A4C236808E0022A98
:100AF00003D1084C7034236802E0064C7434236838
:100B000001F01F02012494401C400CB1012000E0C0
:100B1000002010BD003802400021094A11701170F8
:100B2000012802D0042808D103E00121044A1170F1
:100B300004E00521024A117000E000BF00BF7047C9
:100B40007038024001490860704700003C0E47427F
:100B5000002100F44072B2F5407F08D1094A1168C3
:100B600021F4F811084A02401143064A1160054A6F
:100B700068321268C0F30B031A43024B68331A60E1
:100B80007047000008380240FFFCFF0F014600BF1D
:100B9000080900EB8000420001F00F001044C0B2D1
:100BA00070470146002204E0501CC2B2A1F10A00C5
:100BB000C1B20A29F8DA100741EA10607047000054
:100BC00008B50022009200200021104A126802F0AD
:100BD0004002CAB9421E0D4B1A6000BF0B4A126890
:100BE00002F04001009A521C0092009AB2F5803F38
:100BF00001D00029F2D0054A126802F040020AB181
:100C0000012002E0002000E0012008BD0C28004087
:100C10000348006820F08000014908607047000028
:100C20000C28004070B506460C4600250E480068AA
:100C30000E4900EA0105280CE070C5F3042060703D
:100C400005F03F00A070C5F3423020705EB9E07837
:100C5000FFF79CFFE0706078FFF798FF6070A07866
:100C6000FFF794FFA07070BD042800403FFFFF0015
:100C700070B506460C4600250F4800680F4900EA8B
:100C80000105C5F305402070C5F30620607005F02E
:100C90007F00A07005F48000000CE0705EB9207841
:100CA000FFF774FF20706078FFF770FF6070A07826
:100CB000FFF76CFFA07070BD002800407F7F7F00B1
:100CC00030B504460025CA20154908605320086045
:100CD000FFF776FF00B91DE011481C38006820F0CE
:100CE00040000F491C390860084600682168084325
:100CF0000B491C3908600A491439A0680860084685
:100D00000068A18840EA0140054914390860FFF7EE
:100D10007FFF0125FF2002490860284630BD000002
:100D20002428004008B501460020009004480090A7
:100D3000009800EB810000900098006808BD00005A
:100D4000502800402DE9F04105460C4600260027BA
:100D50004DB9607800F01000102804D1607820F0C0
:100D600010000A30607005B908E06078FFF70EFFE8
:100D70000646A078FFF70AFF064600BF55B1E078A7
:100D80000004617840EA0120A1780843217840EA14
:100D9000413611E0E078FFF704FF4FEA0048607841
:100DA000FFF7FFFE48EA0028A078FFF7FAFE48EABE
:100DB0000008207848EA4036CA20124908605320CB
:100DC0000860FFF7FDFE08B9002714E00E48304028
:100DD0000C4920390860FFF71BFF0A481C380068DF
:100DE00000F0200030B900F09DF808B9002702E0BB
:100DF000012700E00127FF20024908603846BDE8CE
:100E0000F0810000242800403FFFFF002DE9F04161
:100E100005460C46002600274DB92E48006800F014
:100E2000400000B102E00020E07000BF0DE0294862
:100E3000006800F0400020B12078FFF7A7FE0646CA
:100E400002E00020E07000BF00BF55B12078000430
:100E5000617840EA0120A1780843E17840EA014640
:100E600011E02078FFF79DFE4FEA00486078FFF719
:100E700098FE48EA0028A078FFF793FE48EA0008A9
:100E8000E07848EA0046CA2012491C310860532025
:100E90000860FFF795FE08B9002713E00E483040C0
:100EA0000C4908390860FFF7B3FE0A48006800F0F3
:100EB000200030B900F036F808B9002702E0012719
:100EC00000E00127FF2003491C3108603846BDE8D7
:100ED000F0810000082800407F7F7F00F8B50446BD
:100EE0000D4617461E468DF802708DF801508DF89C
:100EF00000608DF8034069460020FFF723FFF8BD2E
:100F0000F8B504460D4617461E468DF800408DF88C
:100F100001508DF802708DF8036069460020FFF7DC
:100F200075FFF8BD08B50022009200200021CA22FA
:100F3000134B1A6053221A60114A183A126822F0B1
:100F4000A0020F4B183B1A6000BF0D4A183A1268F6
:100F500002F02001009A521C0092009AB2F5003F64
:100F600001D00029F1D0064A183A126802F0200296
:100F70000AB1012000E00020FF22014B1A6008BDE9
:100F80002428004008B500220092044A0092009AEA
:100F900002EB80020092009A116008BD50280040C8
:100FA000704700000CB500200190009034480068A4
:100FB00040F480303249086000BF3148006800F4D6
:100FC000003000900198401C0190009818B90198D9
:100FD000B0F5A04FF1D12A48006800F4003010B1FC
:100FE0000120009001E0002000900098012846D1E7
:100FF00023484030006840F080502149403108606B
:101000002048006840F440401E4908601C480830F1
:1010100000681B49083108600846006840F4004039
:1010200008600846006840F4A05008601648091F90
:101030000860081F006840F08070091F086000BF4A
:101040000F48006800F000700028F9D040F20570E9
:101050000E4908600A480830006820F0030008497B
:10106000083108600846006840F00200086000BFD0
:1010700003480830006800F00C000828F8D10CBDC7
:10108000003802400070004008544007003C024015
:101090007047000010B51548006840F4700013490F
:1010A00008601348006840F0010011490860002002
:1010B0000F49083108600E4800680E4908400C4985
:1010C00008600D48091D0860081F006820F4802092
:1010D000091F0860002006490C310860FFF762FF15
:1010E0004FF0006001498039086010BD88ED00E0D4
:1010F00000380240FFFFF6FE1030002400BFFEE77C
:101100002DE9F04105462C4640211748FFF707FB23
:10111000002625E0274607F08007802F07D1802191
:101120001148FFF7FEFA012000F062F803E0802189
:101130000D48FFF7F4FA012000F05AF86006040E9B
:1011400040210948FFF7EDFA012000F051F8402155
:101150000548FFF7E4FA012000F04AF8701CC6B217
:10116000082ED7DBBDE8F0810004024010B504462C
:10117000FFF7DCFA7820FFF7C3FFFFF711FB002031
:10118000FFF7BEFFFFF70CFB2046FFF7B9FFFFF7A5
:1011900007FBFFF7EBFA10BD10B50446FFF7C6FAE0
:1011A0007820FFF7ADFFFFF7FBFA4020FFF7A8FF1D
:1011B000FFF7F6FA2046FFF7A3FFFFF7F1FAFFF774
:1011C000D5FA10BD30380A2801D20120704700201E
:1011D000704707E048F2084100BF0A1EA1F1010371
:1011E00099B2FAD1021EA0F1010398B2F2D1704770
:1011F00006E01F2100BF0A1EA1F1010399B2FAD136
:10120000021EA0F1010398B2F3D1704708B5642023
:10121000FFF7DFFFFFF7F8FAFFF7D7FA00221146D2
:101220001C20FFF781FBC820FFF7D3FF012200211C
:101230002E20FFF779FBC820FFF7CBFF0222002109
:101240004020FFF771FBC820FFF7C3FF03220021F6
:101250005220FFF769FBFFF7D2F94FF47A70FFF7DE
:10126000B8FF2BE016490020FFF702FD14488078F4
:10127000009013484378027812A11848FEF7F8FF4F
:101280001023164A00210846FFF7D4FB144900201A
:10129000FFF7C8FC12488078009011484378C27864
:1012A00010A10E48FEF7E4FF10230C4A0221002093
:1012B000FFF7C0FB4FF4C870FFF78BFFD2E70000C9
:1012C000000100202054696D653A253032643A25CA
:1012D0003032643A253032642000000008010020DA
:1012E00004010020446174653A3230253032642DA7
:1012F000253032642D253032640000004FF04070FC
:10130000E1EE100A70470000000000000000002F0E
:10131000000000000700070000147F147F14002461
:101320002A7F2A120062640813230036495522508E
:1013300000000503000000001C22410000004122C3
:101340001C000014083E08140008083E08080000AD
:1013500000A06000000808080808000060600000A5
:10136000002010080402003E5149453E0000427F23
:101370004000004261514946002141454B3100186F
:1013800014127F10002745454539003C4A49493031
:1013900000017109050300364949493600064949EB
:1013A000291E0000363600000000563600000008F6
:1013B00014224100001414141414000041221408D3
:1013C00000020151090600324959513E007C1211B8
:1013D000127C007F49494936003E41414122007F4D
:1013E0004141221C007F49494941007F0909090107
:1013F000003E4149497A007F0808087F0000417F8C
:101400004100002040413F01007F08142241007F3D
:1014100040404040007F020C027F007F0408107FA4
:10142000003E4141413E007F09090906003E41510D
:10143000215E007F091929460046494949310001CA
:10144000017F0101003F4040403F001F2040201F1E
:10145000003F4038403F00631408146300070870E1
:10146000080700615149454300007F414100005594
:101470002A552A55000041417F0000040201020460
:10148000004040404040000001020400002054544D
:101490005478007F4844443800384444442000389D
:1014A0004444487F00385454541800087E0901020F
:1014B0000018A4A4A47C007F080404780000447DE4
:1014C0004000004080847D00007F10284400000020
:1014D000417F4000007C04180478007C08040478F4
:1014E00000384444443800FC2424241800182424E0
:1014F00018FC007C080404080048545454200004DC
:101500003F444020003C4040207C001C2040201CE8
:10151000003C4030403C004428102844001CA0A05F
:10152000A07C004464544C4414141414141400009B
:1015300000000000000000000000000000000000AB
:1015400000F8000000000000003330000000001030
:101550000C06100C0600000000000000000040C057
:101560007840C0784000043F04043F040400007049
:1015700088FC08300000001820FF211E0000F00841
:10158000F000E018000000211C031E211E0000F0E6
:101590000888700000001E2123241927211010162E
:1015A0000E0000000000000000000000000000002D
:1015B00000E01804020000000007182040000002AC
:1015C0000418E00000000040201807000000404020
:1015D00080F0804040000202010F01020200000082
:1015E00000F0000000000101011F010101000000E6
:1015F00000000000000080B070000000000000004B
:1016000000000000000000010101010101010000D3
:10161000000000000000003030000000000000006A
:10162000000080601804006018060100000000E05F
:1016300010080810E000000F102020100F0000100C
:1016400010F8000000000020203F20200000007063
:10165000080808887000003028242221300000305B
:101660000888884830000018202020110E00000053
:10167000C02010F8000000070424243F240000F8D4
:101680000888880808000019212020110E0000E0B9
:10169000108888180000000F112020110E0000385B
:1016A0000808C83808000000003F00000000007073
:1016B000880808887000001C222121221C0000E0FC
:1016C00010080810E0000000312222110F00000075
:1016D00000C0C0000000000000303000000000002A
:1016E000008000000000000080600000000000009A
:1016F0008040201008000001020408102000404033
:101700004040404040000404040404040400000875
:10171000102040800000002010080402010000702A
:1017200048080808F0000000003036010000C03012
:10173000C828E810E0000718272423140B00000035
:10174000C038E0000000203C23020227382008F8BF
:10175000888888700000203F202020110E00C030B3
:10176000080808083800071820202010080008F88A
:1017700008080810E000203F202020100F0008F883
:101780008888E8081000203F20202320180008F84F
:101790008888E8081000203F200003000000C030C7
:1017A00008080838000007182020221E020008F848
:1017B00008000008F808203F210101213F2000080F
:1017C00008F8080800000020203F2020000000004A
:1017D0000808F8080800C08080807F00000008F832
:1017E00088C028180800203F20012638200008F86B
:1017F000080000000000203F20202020300008F8D2
:10180000F800F8F80800203F003F003F200008F8EB
:1018100030C00008F808203F200007183F00E01003
:1018200008080810E0000F10202020100F0008F812
:1018300008080808F000203F210101010000E01025
:1018400008080810E0000F18242438504F0008F84A
:10185000888888887000203F2000030C30200070AA
:101860008808080838000038202121221C001808A8
:1018700008F8080818000000203F2000000008F8C1
:1018800008000008F808001F202020201F0008780A
:10189000880000C83808000007380E010000F8086A
:1018A00000F80008F800033C0700073C0300081894
:1018B00068808068180820302C03032C30200838FA
:1018C000C800C83808000000203F200000001008B1
:1018D0000808C838080020382621202018000000F9
:1018E00000FE020202000000007F40404000000CA9
:1018F00030C000000000000000010638C0000002F7
:101900000202FE000000004040407F000000000096
:1019100004020202040000000000000000000000B9
:1019200000000000000080808080808080800002B5
:1019300002040000000000000000000000000000A1
:101940008080808000000019242222223F2008F895
:10195000008080000000003F112020110E000000D8
:10196000008080800000000E112020201100000067
:1019700000808088F800000E112020103F20000019
:10198000808080800000001F22222222130000801D
:1019900080F0888888180020203F20200000000068
:1019A000808080808000006B94949493600008F89D
:1019B000008080800000203F210000203F20008028
:1019C0009898000000000020203F20200000000028
:1019D00000809898000000C08080807F000008F898
:1019E000000080808000203F24022D30200000086D
:1019F00008F8000000000020203F20200000808028
:101A0000808080808000203F20003F20003F808039
:101A1000008080800000203F210000203F20000047
:101A2000808080800000001F202020201F008080F8
:101A300000808000000080FFA12020110E00000027
:101A4000008080808000000E112020A0FF80808018
:101A500080008080800020203F21200001000000C5
:101A6000808080808000003324242424190000809A
:101A700080E0808000000000001F202000008080A7
:101A8000000000808000001F202020103F20808068
:101A900080000080808000010E30080601008080F8
:101AA0000080008080800F300C030C300F0000801D
:101AB0008000808080000020312E0E312000808048
:101AC00080000080808080818E7018060100008078
:101AD0008080808080000021302C22213000000096
:101AE0000000807C020200000000003F4040000037
:101AF0000000FF00000000000000FF0000000002E6
:101B0000027C800000000040403F00000000000612
:101B100001010202040400000000000000000400B3
:101B2000000800000000000000020001000010009A
:101B3000501B00080000002008010000C40100083C
:101B4000581C00080801002098060000E001000869
:101B5000404454545454547F7F5454545454444037
:101B60000000000000000000000000000000000075
:101B7000000000FFFF1515151555D5FF7F0000006B
:101B80000000000000000000000000000000000055
:101B900008C8F8BFEFE888C8703FCFC828381800D9
:101BA0000000000000000000000000000000000035
:101BB00008181808FFFF84C4703E0F0F3E70C080E5
:101BC0000000000000000000000000000000000015
:101BD000203018FCFF575455FFFE54545454040051
:101BE00000000000000000000000000000000000F5
:101BF00044446427371D0DFFFF0D1D352565454401
:101C000000000000000000000000000000000000D4
:101C100000FEFE22222222A2FAFA222222FEFE0048
:101C200000000000000000000000000000000000B4
:101C300000FFFF484C4653717F5F404040FFFF006C
:101C40000000000000000000000000000000000094
:081C500000000000000000008C
:0400000508000231BC
:00000001FF
